:100000000C9440030C9471030C9471030C947103D1
:100010000C9471030C9471030C9471030C94710390
:100020000C9471030C9471030C9471030C94710380
:100030000C9471030C9471030C9471030C94710370
:100040000C9471030C9471030C9471030C94710360
:100050000C9471030C9471030C9471030C94594A21
:100060000C9471030C94CD4A0C94A34A0C94710324
:100070000C9471030C9471030C9471030C94710330
:100080000C9471030C9471030C9471030C94710320
:100090000C9471030C9471030C9471030C94710310
:1000A0000C9471030C9471030C9471030C94710300
:1000B0000C9471030C9471030C9471030C947103F0
:1000C0000C9471030C9471030C9471030C947103E0
:1000D0000C9471030C9471030C9471030C947103D0
:1000E0000C9471030C94DB040C94BA040C94A932A4
:1000F0000C94F3120C9407130C9498340C945848F5
:100100000C9404480C948D100C94FC470C944433CC
:100110000C9499100C94A23C0C944E0F0C944C48E7
:100120000C9403110C9447110C944C0F0C94FE0585
:100130000C94E0120C941F3C0C945E200C945735E8
:100140000C9473030C944D3C0C94333C0C94C004FD
:100150000C94A0050C94F8120C941E480C94954233
:100160000C9454480C9483100C9484330C943912DE
:100170000C94DC330C949F2F0C947A3C0C94C71194
:100180000C9430480C94EA110C942E480C943B5279
:100190000C9448480C94BE0C0C94334B0C947B107C
:1001A0000C94CA100C9416130C94500F0C94E13458
:1001B0000C9456480C9443340C94AD040C940148B0
:1001C0000C94D7240C9434480C9422480C94FE11BF
:1001D0000C9406480C9436480C942C110C947B34E7
:1001E0000C948F100C9425330C94C4040C94703C24
:1001F0000C940E110C94CF0E0C941B0F0C940D3517
:100200000C94F5110C9463400C94B6040C94BA0B46
:100210000C9415460C9452480C94840B0C94A00D2D
:100220000C94C90F0C9424110C94563D0C94EA12B2
:100230000C94F0440C94CA340C94D2040C94C9125B
:100240000C94DC050C94C2320C94AB120C94573C09
:100250000C94F3110C9460480C9465330C94F247A1
:100260000C9414310C94380E0C942A110C941848E8
:100270000C9413480C94ED470C94BC0C0C94D412C1
:100280000C94B5340C94850B0C9454350C941B3A97
:100290000C94CD050C940D230C94C8040C94F1100F
:1002A0000C94613C0C94B5320C948E3C0C942F470A
:1002B0000C9487100C944F3B0C94593E0C9487453A
:1002C0000C9445440C94620C0C94A7330C94D616F1
:1002D0000C94DD1C0C94A5040C9420110C94103487
:1002E0000C9420480C9485100C94BB0B0C947F103C
:1002F0000C94F10B0C94D8370C94D7120C94E23276
:100300000C94BA0A0C942E110C94F0050C94ED1276
:100310000C940B3C0C945C480C94EB470C944911E6
:100320000C9426340C94CE040C944F120C94843C00
:100330000C949D380C9423160C94F6340C94DA1219
:100340000C94B60B0C940F230C94983C0C945E48C0
:100350000C94F8100C9409480C948E100C9464239F
:100360000C944B110C9480490C9494230C94E71238
:100370000C94BC0B0C94EE0B0C94520F0C943606A0
:100380000C94AE0F0C94A3100C94730B0C94DC041F
:100390000C94D13C0C9490140C94953A0C947F0BD3
:1003A0000C9416480C94830B0C948B100C94153CF5
:1003B0000C9426480C944E350C94B90A0C94F31600
:1003C0000C9422110C94EE120C941B480C941933CB
:1003D0000C94AA0B0C94ED320C94840E0C943848B7
:1003E0000C94B0040C949D1D0C9478030C94E810AC
:1003F0000C9454370C948C100C9489100C94D604E3
:100400000C944A480C94CC1D0C94293C0C948110FB
:100410000C94A1040C9497360C94433C0C94993999
:100420000C94103C0C94D3120C945D340C94D73281
:100430000C94330C0C94E0040C94DF1B0C94EC0D26
:100440000C94FF470C94A5300C94A9040C9428112B
:100450000C945A480C9432480C94F5330C94504840
:100460000C9496120C947C310C9422350C94F53536
:100470000C944E480C947D100C9498120C94EF47F9
:100480000C94F63E0C9445110C9424480C94BD0C2D
:100490000C948B1E0C94540F0C943B3C0C94381110
:1004A0000C9483060C94E6120C949B040C94B90BE8
:1004B0000C94D2120C9450430C94921E0C94A346AC
:1004C0000C9439350C9426110C94820B0C940C115D
:1004D0006D63756272696467652D763268616E64FA
:1004E0007368616B652D61757468F7BC83F4305374
:1004F0008424B13298E6AA6FB143EF4D59A1494621
:10050000175997479DBC2D1A3CD8546865207175C2
:1005100069636B2062726F776E20666F78206A75F0
:100520006D7073206F76657220746865206C617AD7
:100530007920646F676B6579BA7816BF8F01CFEA4F
:10054000414140DE5DAE2223B00361A396177A9C41
:10055000B410FF61F20015AD616263000021002458
:100560000027002A002D00300033000101000004A4
:100570000107010A0100002200250028002B002E9F
:10058000003100340002010000050108010B0100E8
:100590000020002300260029002C002F003200003C
:1005A000010000030106010901050505050705080D
:1005B000080808020202020A0A08080404040401E6
:1005C0000101010101010103030303030303030408
:1005D0000707070C0C0C0C0C0C0C0C020202020698
:1005E000060606060606060B0B0B0B0B0B0B0B0188
:1005F0000210202008081020401020408002010234
:1006000001080402010102040810204080804020FB
:100610001008040201800402018040201008040236
:1006200001080402010102040810204080010204B4
:10063000081020408000000A0B02090C0D0E08076C
:1006400003040100000000000000000000000000A2
:10065000000000000000000000000000000000009A
:100660000012111000000000000000000000000057
:10067000000000000000000000000000334B3B526F
:1006800011241FBECFEFD1E2DEBFCDBF00E00CBF13
:1006900015E0A0E0B2E0EEE0F8EA00E00BBF02C037
:1006A00007900D92A03AB107D9F721E1A0EAB5E091
:1006B00001C01D92AE3BB207E1F713E0CFE3D3E0F8
:1006C00000E006C021970109802FFE010E94AB5374
:1006D000CE33D10780E00807A9F70E9469500C9437
:1006E000F5530C9400008E5C9B4FFC011082089522
:1006F0000895FF920F931F93CF93DF93D0E0C0E054
:10070000FF24F3942091130A3091140A8091150A62
:100710009091160A821B930B95958795C817D90758
:10072000F8F4CE01880F991F280F391FD9010D91B8
:100730001C91D801ED91FC910480F581E02DC80158
:100740001995672B682B692B49F0D801ED91FC9125
:100750000680F781E02DC8011995F12C2196D2CFA2
:100760008F2DDF91CF911F910F91FF900895EF9200
:10077000FF92CF93DF93DC0130912F0A8091260AFC
:10078000831778F5E0901E0AF0901F0A80E0381772
:1007900041F1F70190E1E90EF11CE70126979881FC
:1007A0009F3FE9F4B183A0834283538364837583BD
:1007B0004FEF5FEFBA014683578360877187828767
:1007C000938794872587178616869091260A9F5FC0
:1007D0009093260ADF91CF91FF90EF9008958F5F5D
:1007E000D6CF8FEFF7CFCF92DF92EF92FF92CF93DA
:1007F000DF93EC016A017B01E889F98982E080835B
:10080000C11481EED806E104F104A1F060E079E0C2
:100810008DE390E0A70196010E94755321503109A4
:10082000410951095695479537952795211580E13E
:10083000380798F0E889F989108260E874E88EE159
:1008400090E0A70196010E9475532150310941099A
:1008500051095695479537952795EC85FD85308349
:10086000EE85FF852083188EEC89FD8986E08083E4
:10087000EA89FB89808180618083EA89FB898081A4
:1008800088608083EA89FB89808180688083EA8927
:10089000FB8980818F7D8083DF91CF91FF90EF90E6
:1008A000DF90CF90089522E030E0FC01368325836D
:1008B00026E030E03183208323EF31E1348323834A
:1008C000089523EF31E1FC013383228321E030E0FE
:1008D0003583248326E030E031832083089523EF9D
:1008E00031E1FC013383228321E030E0358324832E
:1008F00026E030E03183208308958150823108F072
:100900005AC0E82FF0E08827E757FB4F8F4F0C9431
:10091000AB53A904AD049B04A104A504DB04B004FB
:10092000B604BA04C004C404C804CE04D204DB0470
:10093000D604DC04E004809180008F7780938000EF
:100940000895809180008F7DF9CF80918000877F0E
:10095000F5CF84B58F7784BD089584B58F7DFBCFA7
:100960008091B0008F778093B00008958091B0009F
:100970008F7DF9CF809190008F77809390000895BC
:10098000809190008F7DF9CF80919000877FF5CF87
:100990008091A0008F778093A00008958091A0009F
:1009A0008F7DF9CF8091A000877FF5CF80912001C6
:1009B0008F77809320010895809120018F7DF9CF5A
:1009C00080912001877FF5CFCF93DF93282F30E0F0
:1009D000F901EB5CF94F8491F901E151FA4FD4919F
:1009E000F901E755FA4FC491CC23A1F081110E947F
:1009F0007D04EC2FF0E0EE0FFF1FE157FA4FA591B9
:100A0000B491EC91ED2381E090E009F480E0DF9176
:100A1000CF91089580E090E0FACF1F93CF93DF93BA
:100A2000282F30E0F901EB5CF94F8491F901E15195
:100A3000FA4FD491F901E755FA4FC491CC23A9F0AC
:100A4000162F81110E947D04EC2FF0E0EE0FFF1FA6
:100A5000EB58FA4FA591B4918FB7F894EC9111111E
:100A600008C0D095DE23DC938FBFDF91CF911F911B
:100A70000895DE2BF8CFCF93DF9390E0FC01E15196
:100A8000FA4F249187559A4FFC0184918823C9F02D
:100A900090E0880F991FFC01E55AFA4FA591B49197
:100AA000FC01EB58FA4FC591D49161110DC09FB76D
:100AB000F8948C91209582238C9388812823288315
:100AC0009FBFDF91CF910895623051F49FB7F894A2
:100AD0003C91822F809583238C93E8812E2BEFCF3E
:100AE0008FB7F894EC912E2B2C938FBFEACF8633DF
:100AF00008F0865320917B00982F9870277F922BC7
:100B000090937B008770806480937C0080917A0052
:100B1000806480937A0080917A0086FDFCCF80917A
:100B200078009091790008952FB7F8946091B405FA
:100B30007091B5058091B6059091B7052FBF0895C6
:100B4000AF92BF92CF92DF92EF92FF920F931F93DB
:100B5000CF93DF936C017B018B01040F151FEB0119
:100B60005E01AE18BF08C017D10759F06991D601D0
:100B7000ED91FC910190F081E02DC6011995892B32
:100B800079F7C501DF91CF911F910F91FF90EF9001
:100B9000DF90CF90BF90AF900895FC01538D448DAE
:100BA000252F30E0842F90E0821B930B541710F018
:100BB000CF96089501970895FC01918D828D981725
:100BC00061F0A28DAE0FBF2FB11D5D968C91928DFD
:100BD0009F5F9F73928F90E008958FEF9FEF08952E
:100BE000FC01918D828D981731F0828DE80FF11DF7
:100BF000858D90E008958FEF9FEF0895FC01918D12
:100C0000228D892F90E0805C9F4F821B91098F730A
:100C10009927089588EF96E00E94FE0521E0892B30
:100C200009F420E0822F0895FC01A48DA80FB92FAC
:100C3000B11DA35ABF4F2C91848D90E001968F7304
:100C40009927848FA689B7892C93A089B1898C9123
:100C5000837080648C93938D848D981306C0028872
:100C6000F389E02D80818F7D80830895EF92FF923C
:100C70000F931F93CF93DF93EC0181E0888F9B8DBF
:100C80008C8D98131AC0E889F989808185FF15C079
:100C90009FB7F894EE89FF896083E889F98980819C
:100CA0008370806480839FBF81E090E0DF91CF916B
:100CB0001F910F91FF90EF900895F62E0B8D10E08D
:100CC0000F5F1F4F0F731127E02E8C8D8E110CC0FC
:100CD0000FB607FCFACFE889F989808185FFF5CF47
:100CE000CE010E941406F1CFEB8DEC0FFD2FF11D0C
:100CF000E35AFF4FF0829FB7F8940B8FEA89FB8984
:100D000080818062CFCFCF93DF93EC01888D8823E1
:100D1000B9F0AA89BB89E889F9898C9185FD03C05E
:100D2000808186FD0DC00FB607FCF7CF8C9185FF43
:100D3000F2CF808185FFEDCFCE010E941406E9CF6E
:100D4000DF91CF91089580E090E0892B29F00E94F7
:100D50000A0681110E94000080E090E0892B49F092
:100D600080E090E0892B29F00E94000081110E9410
:100D7000000080E090E0892B49F080E090E0892B32
:100D800029F00E94000081110E94000080E090E0A4
:100D9000892B49F080E090E0892B29F00E94000027
:100DA00081110C94000008952F923F924F925F9210
:100DB0006F927F928F929F92AF92BF92CF92DF926B
:100DC000EF92FF920F931F93CF93DF93CDB7DEB7D0
:100DD000C253D1400FB6F894DEBF0FBECDBF1C0189
:100DE0009E012F5F3E4FC75DDE4F39832883C95276
:100DF000D1408096F901CF5DDE4F39822882C15201
:100E0000D140CF5DDE4FA881B981C152D1400D9153
:100E10001D912D913D91CF5DDE4FB983A883C152C5
:100E2000D14001931193219331938A179B0749F77E
:100E3000FB01CB01805C9F4FDE01119641915191E6
:100E4000619171914D935D936D937D938E179F0783
:100E5000A9F701E010E00C0F1D1F00541F4FFE0109
:100E600031969F0180AD91ADA2ADB3AD4481558166
:100E70006681778134964C015D01072E7FE0880CF6
:100E8000991CAA1CBB1C7A95D1F7702D6C017D01B1
:100E90000B2EB1E1F694E794D794C794BA95D1F7A5
:100EA000B02D8C289D28AE28BF286C017D010B2E0B
:100EB000BDE0CC0CDD1CEE1CFF1CBA95D1F7B02DAB
:100EC0002C013D01032E33E17694679457944794A7
:100ED0003A95D1F7302DC428D528E628F728C8241C
:100EE000D924EA24FB24072E7AE0B695A795979596
:100EF00087957A95D1F7702DC826D926EA26FB2644
:100F0000D90194968D909D90AD90BC9097974D90FF
:100F10005D906D907C90840C951CA61CB71CD7012D
:100F2000C601880D991DAA1DBB1D2A013B0127E0A2
:100F300076946794579447942A95D1F76A017B0178
:100F400039E1CC0CDD1CEE1CFF1C3A95D1F74C2886
:100F50005D286E287F284A015B012EE0880C991CD1
:100F6000AA1CBB1C2A95D1F76A017B0132E1F694D9
:100F7000E794D794C7943A95D1F78C289D28AE284A
:100F8000BF28482459246A247B2423E0769567955A
:100F9000579547952A95D1F74425552566257725F8
:100FA000840F951FA61FB71F84AF95AFA6AFB7AF2D
:100FB0000E171F0709F055CFF0E0E0E041E051E0E7
:100FC0004C0F5D1F405E5F4FC95DDE4F5983488304
:100FD000C752D140CF0182539D4FC35DDE4F9983ED
:100FE0008883CD52D140A1E0B0E0AC0FBD1FAE0F61
:100FF000BF1FC55DDE4FB983A883CB52D14090E0BF
:1010000080E0DC011496A770BB27AA0FBB1FAA0FB4
:10101000BB1F88248394982C8C0E9D1EA80DB91D8F
:10102000CD90DD90ED90FC90DC011696A770BB276B
:10103000AA0FBB1FAA0FBB1FA80DB91D2D913D9173
:101040004D915C91CD5DDE4F288339834A835B836C
:10105000C352D140C35DDE4FA881B981CD52D1408A
:101060000D911D912D913D91C35DDE4FB983A883F4
:10107000CD52D140C55DDE4FA881B981CB52D14060
:101080004D915D916D917D91C55DDE4FB983A883D2
:10109000CB52D140040F151F261F371F26013701E1
:1010A00056E076946794579447945A95D1F7B701D0
:1010B000A601AAE1440F551F661F771FAA95D1F715
:1010C000442955296629772946015701BBE0B69482
:1010D000A79497948794BA95D1F726013701A5E193
:1010E000440C551C661C771CAA95D1F74828592832
:1010F0006A287B284426552666267726460157010E
:10110000B7E0880C991CAA1CBB1CBA95D1F7B70193
:10111000A601A9E17695679557954795AA95D1F7C8
:10112000482959296A297B29442655266626772687
:10113000C95DDE4FA881B981C752D1407E916E91C1
:101140005E914E91C95DDE4FB983A883C752D140ED
:10115000040F151F261F371F040D151D261D371DD3
:10116000DC011596A770BB27AA0FBB1FAA0FBB1FD8
:1011700088248394982C8C0E9D1EA80DB91D4D912A
:101180005D916D917C91CD5DDE4F88809980AA80C4
:10119000BB80C352D140482559256A257B254C2167
:1011A0005D216E217F21482559256A257B25400F29
:1011B000511F621F731FDC01A770BB27AA0FBB1F43
:1011C000AA0FBB1FAA24A394BA2CAC0EBD1EAA0D55
:1011D000BB1D0D911D912D913C91DC011196A770C5
:1011E000BB27AA0FBB1FAA0FBB1FAA0DBB1D4D908B
:1011F0005D906D907C90DC011296A770BB27AA0FC2
:10120000BB1FAA0FBB1FAA0DBB1D48015901842893
:101210009528A628B728CD90DD90ED90FC908C20E5
:101220009D20AE20BF2040225122622273227501F0
:101230006401C428D528E628F728C15DDE4FC8829E
:10124000D982EA82FB82CF52D14028013901ADE038
:101250007694679457944794AA95D1F768017901D9
:10126000B3E1CC0CDD1CEE1CFF1CBA95D1F74C2869
:101270005D286E287F2868017901A2E0F694E79442
:10128000D794C794AA95D1F748015901BEE1880CBB
:10129000991CAA1CBB1CBA95D1F7C828D928EA28E2
:1012A000FB284C245D246E247F2468017901AAE088
:1012B000CC0CDD1CEE1CFF1CAA95D1F7B6E13695CF
:1012C000279517950795BA95D1F70C291D292E2931
:1012D0003F294026512662267326C15DDE4F888055
:1012E0009980AA80BB80CF52D140840C951CA61C4B
:1012F000B71CDC011396A770BB27AA0FBB1FAA0F50
:10130000BB1FCC24C394DC2CCC0EDD1EAC0DBD1D4C
:101310000D911D912D913C911397040F151F261FC0
:10132000371F0D931D932D933C931397840E951E99
:10133000A61EB71EC95DDE4FA881B981C752D14034
:101340008D929D92AD92BC9213970197883FBFEF0B
:101350009B0709F056CEB096E11521E0F20709F09F
:101360002DCEF10181919191A191B1911F01C75DA4
:10137000DE4FE881F981C952D1404191519161918B
:101380007191C75DDE4FF983E883C952D140F10105
:101390003497840F951FA61FB71F80839183A28364
:1013A000B383CF5DDE4F88809980C152D1408214D3
:1013B0009304B9F690E080E0CE5CDE4F0FB6F8946F
:1013C000DEBF0FBECDBFDF91CF911F910F91FF9078
:1013D000EF90DF90CF90BF90AF909F908F907F90D5
:1013E0006F905F904F903F902F900895CF92DF9233
:1013F000EF92FF920F931F9369017A0122E0F69416
:10140000E794D794C7942A95D1F7FB01DC0100E05B
:1014100010E0980161917191819191910E94B35373
:101420006D937D938D939D930F5F1F4F2F4F3F4F74
:10143000C016D106E206F30669F71F910F91FF90DF
:10144000EF90DF90CF900895FC01892BF9F0828511
:101450009385A485B585892B8A2B8B2BB9F4808540
:1014600091850A9761F084819581A681B781019663
:10147000A11DB11D84839583A683B78308958685B6
:10148000882311F01686EFCF81E086870895DC016E
:101490001E962D913C911F97232B51F41F967C9300
:1014A0006E931E971296ED91FC91309709F0199466
:1014B0000895DC0152968D919C915397892BA1F44C
:1014C00053967C936E9352971E968D919C911F9785
:1014D00051969C938E9350971496ED91FC9115978D
:1014E000309711F0CD0119940895FC01608171814C
:1014F000828193810E94B3530895FC011682178262
:1015000010861186428353836483758388E090E05C
:1015100091838083CF010895FC0116821782108683
:101520001186428353836483758387E090E09183BF
:101530008083CF010895FC011682178210861186E0
:1015400042835383648375838AE090E09183808330
:10155000CF010895FC0116821782108611864283FE
:1015600053836483758389E090E091838083CF0106
:101570000895089508958091B905882361F09FB773
:10158000F8942091B9058091B805213019F48DBBEC
:101590009FBF08958FBF0895AF92BF92CF92DF9201
:1015A000EF92FF920F931F93CF93DF93EC01809103
:1015B000A006882309F44AC0288139818A819B8149
:1015C0002817390709F442C02091A1069091A2067C
:1015D0008091B905882361F08FB7F8943091B905EF
:1015E000313051F53DB33093B8053DB33DBB8FBFAE
:1015F0002CBD9DBD0E9494056B017C01AA80BB801F
:1016000008811981A016B106D1F00E9494056C19C9
:101610007D098E099F09633371058105910578F471
:10162000F80180818EBD00000DB407FEFDCF8EB5A0
:10163000F80181938F01E6CF8093B805D9CF8A81D5
:101640009B818017910729F00E94BB0A90E080E0FF
:1016500008C00E94BB0A8A819B8128813981821B34
:10166000930BDF91CF911F910F91FF90EF90DF903F
:10167000CF90BF90AF9008950F931F93FC0180858A
:101680009185A285B3850097A105B10509F1448133
:101690005581668177814F5F5F4F6F4F7F4F4483E6
:1016A000558366837783048515852685378540179E
:1016B00051076207730721F414821582168217827C
:1016C0000197A109B10980879187A287B387D7CFF6
:1016D000108211821282138214821582168217825E
:1016E0001F910F91089524E034E0FC0131832083A1
:1016F00020E134E03383228304960C943C0B029760
:101700000C94730B0895089508950895DC011596BF
:101710002D913C912F3F3F4F51F0DC011396ED91FD
:10172000FC9150E040E0BC0182E090E01994089503
:10173000DC0114962D913C912F3F3F4F51F0DC017D
:101740001296ED91FC9150E040E0BC0182E090E007
:101750001994089526E434E0FC013183208322E5C6
:1017600034E03383228304960C943C0B02970C9450
:10177000AA0B089508950895CF92DF92EF92FF92F9
:101780000F931F93CF93DF937C018B01EA016115C7
:101790007105C1F02097C1F06B01C40ED51ED0E0D9
:1017A000C0E0C016D10681F0D701ED91FC91019007
:1017B000F081E02DD8016D918D01C7011995C80FF9
:1017C000D91FEFCFD0E0C0E0CE01DF91CF911F91C4
:1017D0000F91FF90EF90DF90CF90089590E080E020
:1017E00008950F931F93CF93DF938C01EB01E88152
:1017F000F9810480F581E02DCB011995813049F004
:10180000D80115968D919C910097F9F4F801828189
:1018100010C09A819F3F29F1D8011396ED91FC9158
:10182000A385B48525853685A217B30739F4808B47
:1018300080E0DF91CF911F910F9108959D012F5F5F
:101840003F4F348723879C93F3CFDC01ED91FC91CC
:101850000480F581E02DBE01DF91CF911F910F91A2
:10186000199481E0E6CF0F931F93CF93DF938C0100
:10187000EB01E881F9810480F581E02DCB01199518
:10188000D801813041F015968D919C91009771F4AB
:10189000F801828106C01396ED91FC918A818787B9
:1018A00082E0DF91CF911F910F910895DC01ED91BE
:1018B000FC910480F581E02DBE01DF91CF911F9155
:1018C0000F9119940F931F93CF93DF938C01EB012A
:1018D000E881F9810480F581E02DCB0119958130F3
:1018E00049F0D80115968D919C910097C9F5F801A2
:1018F00082811BC0F801A381B4811F968C911F9730
:101900008F3FC1F090E002961B96ED91FC911C97E1
:101910001D962D913C911E972E1B3F0B28173907C2
:1019200060F481E050968C9380E0DF91CF911F911D
:101930000F91089581E090E0E7CF9F01280F391FB4
:101940004A8141932E173F07D9F71B962D913C9161
:101950001C97820F931F1C969C938E931B97E4CF2A
:10196000DC01ED91FC910480F581E02DBE01DF9159
:10197000CF911F910F911994089508950895089596
:1019800061E080E00E943B0560E080E00E940D0580
:1019900061E081E00E943B0560E081E00E940D056E
:1019A00061E082E00E943B0560E082E00E940D055C
:1019B00061E083E00E943B0560E083E00E940D054A
:1019C00061E084E00E943B0560E084E00E940D0538
:1019D00061E085E00E943B0560E085E00E940D0526
:1019E00061E086E00E943B0560E086E00E940D0514
:1019F00061E087E00E943B0560E087E00E940D0502
:101A000061E088E00E943B0560E088E00E940D05EF
:101A100061E089E00E943B0560E089E00E940D05DD
:101A200061E08AE00E943B0560E08AE00E940D05CB
:101A300061E08BE00E943B0560E08BE00E940D05B9
:101A400061E08CE00E943B0560E08CE00E940D05A7
:101A500061E08DE00E943B0560E08DE00E940D0595
:101A600061E08EE00E943B0560E08EE00E940D0583
:101A700061E08FE00E943B0560E08FE00E940D0571
:101A800061E080E10E943B0560E080E10E940D057D
:101A900061E081E10E943B0560E081E10E940D056B
:101AA00061E082E10E943B0560E082E10E940D0559
:101AB00061E083E10E943B0560E083E10C940D0549
:101AC00091E0843108F090E0892F0895CF93DF935F
:101AD000EB01DC01ED91FC910480F581E02D19957D
:101AE000863031F485E0888381E0DF91CF910895DD
:101AF00080E0FBCFCF93DF93EB01DC01ED91FC9114
:101B00000480F581E02D1995833029F4188281E055
:101B1000DF91CF91089580E0FBCFCF93DF93EB016E
:101B2000DC01ED91FC910480F581E02D1995873061
:101B300029F4188281E0DF91CF91089580E0FBCFF6
:101B4000EF92FF920F931F93CF93DF931F92CDB726
:101B5000DEB77C018B01DB01ED91FC910480F58106
:101B6000E02DCB0119958823F9F0BE016F5F7F4FFF
:101B7000C8010E948D0D811119C0BE016F5F7F4F9A
:101B8000C8010E947A0D811111C0BE016F5F7F4FA5
:101B9000C8010E94660D811109C0F70185819681F7
:101BA000009781F4828116C081E0898389818E3F0C
:101BB000A1F389810F90DF91CF911F910F91FF9039
:101BC000EF900895DC01ED91FC910480F581E02D0A
:101BD000B80119958983EDCFEF92FF920F931F9370
:101BE000CF93DF931F92CDB7DEB77C018B01DB0172
:101BF000ED91FC910480F581E02DCB0119958130A8
:101C0000F9F0BE016F5F7F4FC8010E948D0D8111F9
:101C100019C0BE016F5F7F4FC8010E947A0D81110C
:101C200011C0BE016F5F7F4FC8010E94660D811118
:101C300009C0F70185819681009781F4828116C0E1
:101C400082E0898389818E3FA1F389810F90DF91A2
:101C5000CF911F910F91FF90EF900895DC01ED91CE
:101C6000FC910480F581E02DB80119958983EDCFB1
:101C7000EF92FF920F931F93CF93DF931F92CDB7F5
:101C8000DEB77C018B01DB01ED91FC910480F581D5
:101C9000E02DCB0119958230F9F0BE016F5F7F4FC7
:101CA000C8010E947A0D811119C0BE016F5F7F4F7C
:101CB000C8010E948D0D811111C0BE016F5F7F4F61
:101CC000C8010E94660D811109C0F70185819681C6
:101CD000009781F4828116C083E0898389818E3FD9
:101CE000A1F389810F90DF91CF911F910F91FF9008
:101CF000EF900895DC01ED91FC910480F581E02DD9
:101D0000B80119958983EDCFEF92FF920F931F933E
:101D1000CF93DF931F92CDB7DEB77C018B01DB0140
:101D2000ED91FC910480F581E02DCB011995843073
:101D3000F9F0BE016F5F7F4FC8010E948D0D8111C8
:101D400018C0BE016F5F7F4FC8010E947A0D8111DC
:101D500010C0BE016F5F7F4FC8010E94660D8111E8
:101D600008C0F70185819681009779F4828115C0BA
:101D7000898389818E3FA9F389810F90DF91CF916B
:101D80001F910F91FF90EF900895DC01ED91FC9170
:101D90000480F581E02DB80119958983EDCFEF928C
:101DA000FF920F931F93CF93DF931F92CDB7DEB7B0
:101DB0007C018B01DB01ED91FC910480F581E02D2C
:101DC000CB0119958530F9F0BE016F5F7F4FC801D7
:101DD0000E94660D811119C0BE016F5F7F4FC8015F
:101DE0000E948D0D811111C0BE016F5F7F4FC80130
:101DF0000E947A0D811109C0F701858196810097B3
:101E000081F4828116C083E0898389818E3FA1F3AA
:101E100089810F90DF91CF911F910F91FF90EF90EB
:101E20000895DC01ED91FC910480F581E02DB8016D
:101E300019958983EDCFEF92FF920F931F93CF9364
:101E4000DF931F92CDB7DEB78C017B01BE016F5FC0
:101E50007F4FC7010E948D0D882319F089818E3F25
:101E600079F4D80115968D919C91009791F0DC0141
:101E7000ED91FC910480F581E02DB70119958983DE
:101E800089810F90DF91CF911F910F91FF90EF907B
:101E90000895F8018281F3CF0895089581E00895AF
:101EA00080E0089581E00895EF92FF920F931F93D1
:101EB000CF93DF931F921F92CDB7DEB7DC0114964C
:101EC0002C91621719F06D3F09F03FC08C01FC01A5
:101ED000A081B1815096ED90FC90DA018D919C919A
:101EE0009A838983DC01ED91FC910084F185E02DDA
:101EF0001995DC01ED91FC910680F781E02D199593
:101F0000BE016F5F7F4FC801F701199589819A81E2
:101F10000097D9F0DC01ED91FC910084F185E02D72
:101F20001995DC01ED91FC910084F185E02D199566
:101F3000672B682B692B49F489819A81DC01ED912B
:101F4000FC910484F585E02D19950F900F90DF9199
:101F5000CF911F910F91FF90EF9008950F931F93D2
:101F6000CF93DF93EC01E881F98104811581DB01D6
:101F70008D919C91DC01ED91FC910480F581E02D27
:101F80001995BC01CE01F801DF91CF911F910F91FE
:101F90001994DC0114963C91631711F06D3F41F4E4
:101FA000DC01ED91FC910480F581E02DBA011994DA
:101FB00008958F929F92AF92BF92CF92DF92EF924D
:101FC000FF920F931F93CF93DF936417750709F464
:101FD00085C0FB01A191BF01FC010081118122811B
:101FE00033816801790122E0F694E794D794C7948D
:101FF0002A95D1F70A27037024E0029FF0011124EB
:10200000E459FD4F0081118122813381C026D12600
:10201000E226F3262A2F30E046015701E2E0B6948B
:10202000A79497948794EA95D1F7E901D595C79538
:10203000D595C795CC25C370A4E0CA9FF0011124A3
:10204000E459FD4FC080D180E280F3808C249D2430
:10205000AE24BF2475016401A2E0F694E794D794FE
:10206000C794AA95D1F7D901C4E0B595A795CA95AB
:10207000E1F7A825A370E4E0AE9FD0011124A45994
:10208000BD4F8D909D90AD90BC90C824D924EA247A
:10209000FB2446015701D2E0B694A7949794879405
:1020A000DA95D1F716E0359527951A95E1F7E22FE5
:1020B000EC25E37024E0E29FF0011124E459FD4F88
:1020C0000081118122813381082519252A253B258C
:1020D000FC01008311832283338377CFDF91CF917B
:1020E0001F910F91FF90EF90DF90CF90BF90AF9036
:1020F0009F908F90089580E0089581E0089582E098
:10210000089583E0089584E0089585E0089586E0C9
:10211000089587E008950895089508950895029711
:1021200038F485E0FA01DB0101900D928A95E1F720
:102130000895029738F48CE0FA01DB0101900D92CA
:102140008A95E1F70895FB01DA01009719F00197EC
:1021500009F008958C91808311968D919C9112972E
:102160009283818313968D919C911497948383839A
:1021700015968D919C9116979683858317968D91D0
:102180009C9118979087878319968D919C9192873F
:1021900081870895FB01DA01009719F0019709F092
:1021A00008958D919C9111979183808312968D91C2
:1021B0009C9113979383828314968D919C9115978C
:1021C0009583848316968D919C9197838683089539
:1021D000029730F4FA0180819181FB019183808321
:1021E0000895029720F4FA018081FB01808308950D
:1021F000029740F4FA0180819181A281FB018083E2
:102200009183A2830895029730F4FA01808191812D
:10221000FB019183808308950C940311FB01DA0183
:10222000009719F0019709F008958D919C911197ED
:102230009183808312968D919C91938382830895DC
:102240000C940E110C940E110C940E110C940E1192
:102250000C940E110C940E110C940E11029738F47C
:1022600080E2FA01DB0101900D928A95E1F7089571
:10227000029750F4FA0180819181A281B381FB0120
:1022800080839183A283B38308950C9438110C94B6
:1022900038110C9438110895DC0116962D913C915B
:1022A0002F3F3F4F51F0DC011496ED91FC9150E02F
:1022B00040E0BC0182E090E019940895FC01DB014C
:1022C0008C91A681B78122813381A20FB31F8C9399
:1022D0008281938101969383828320813181821749
:1022E000930711F413821282828193814481558174
:1022F0008417950749F401962817390719F0958333
:1023000084830895158214820895EF92FF920F93AB
:102310001F93CF93DF931F92CDB7DEB71092B20613
:102320001092B1061092B4061092B306FC0100811F
:102330001181E280F3800E151F0509F1F8018191EA
:102340008F0189838091B1069091B2060196209108
:10235000AF063091B0068217930711F490E080E049
:102360002091B3063091B4062817390721F3BE0136
:102370006F5F7F4F8FEA96E00E945E11DCCF0F9077
:10238000DF91CF911F910F91FF90EF900895CF9320
:10239000DF93EB01009729F0019719F0DF91CF91BE
:1023A000089587E0FA01DE0101900D928A95E1F728
:1023B000FA018781908598878F83818592859A8796
:1023C000898783859485A585B6858B879C87AD870E
:1023D000BE87E4CF029730F4FA0180819181FB013E
:1023E0009183808308950C94EA11029730F4FA01E6
:1023F00080819181FB01918380830895029720F46D
:10240000FA018081FB0180830895DC0192962D9171
:102410003C912F3F3F4F51F0DC019096ED91FC91A4
:1024200050E040E0BC0182E090E019940895DC01A6
:1024300051962D913C912F3F3F4F51F0DC011F965B
:10244000ED91FC9150E040E0BC0182E090E01994F5
:102450000895DC011296ED91FC91309741F0DB017B
:102460006C91DC018D919C91199581E0089580E03B
:1024700008959FB7F8948091AE05882319F0815094
:102480008093AE058091AE05811105C08CB58F7B20
:102490008CBD1092B9059FBF1092A0060895CF93EE
:1024A000CFB7F8948091AE05811127C0EEEDF5E02D
:1024B0008491E4E2F6E09491E82FF0E0EE0FFF1F44
:1024C000E55AFA4FA591B491EC91E92321F461E02A
:1024D00085E30E940D0561E085E30E943B058CB514
:1024E00080618CBD8CB580648CBD61E084E30E940A
:1024F0003B0561E083E30E943B058091AE058F5F61
:102500008093AE05CFBF81E08093A006CF91089560
:10251000640F751F4617570739F0FC012191CF0151
:10252000FA012193AF01F6CFCA010895A895089545
:102530000E94C00C87E797E79093010880930008FA
:1025400088E198E00FB6F894A895809360000FBEDC
:1025500090936000F7CF4091AD075091AE07609126
:10256000AF077091B007411551056105710581F004
:102570008091970790919807009711F00E94F303BC
:102580001092AD071092AE071092AF071092B007ED
:1025900008951092270D1092260D1092290D109279
:1025A000280D08950895089502960C943C0B049606
:1025B0000C943C0BFC01158214821782168208953C
:1025C000FC011782168211861086089508950296DE
:1025D0000C943C0B04960C943C0B0895FC019281E6
:1025E0009E7F92830895FC0190899E7F908B089531
:1025F000FC01848181608483108617821286118693
:10260000E25BFF4F82819381958384830895FC016F
:1026100080898160808B148A138A168A158AE65A0B
:10262000FF4F8281938195838483089561E070E0F8
:1026300080E090E00895DC01ED91FC9111971296F5
:102640008D919C9113978E179F0731F011928E17E1
:102650009F07E1F78D919C910895CF93DF93EA0155
:10266000DB01A20FB31FFC0186819781823D94405C
:1026700039F4FB01EA17FB0749F081918993FACFFE
:102680006A177B0719F08E918993FACFDF91CF916A
:102690000895EF92FF920F931F93CF93DF931F92B2
:1026A0001F92CDB7DEB77C018B01FC011182108235
:1026B0001282FB0162817381808191819B01281BC1
:1026C000390B84819581821B930B0297A8F022E03D
:1026D00030E0AE014F5F5F4FC8010E942D13F8013B
:1026E0008281938102969383828389819A81F70103
:1026F0009183808381E08283C7010F900F90DF91E7
:10270000CF911F910F91FF90EF900895EF92FF925C
:102710000F931F93CF93DF9300D01F92CDB7DEB7F7
:102720008C017B01DC0112968D919C9113979C0189
:10273000260F371F1A96ED91FC911B97309759F091
:102740009A8389833C832B83BE016F5F7F4F1896EA
:102750008D919C911995F801628173816E0D7F1D99
:10276000738362830F900F900F900F90DF91CF9142
:102770001F910F91FF90EF900895CF93FC01A281DC
:10278000B381808191819D01281B390B84819581C2
:10279000821B930B96958795C1E0009709F4C0E0E2
:1027A000892B69F086819781823D944059F07C9312
:1027B00011966C93CF0162E070E00E9486138C2F1B
:1027C000CF9108956C9311967C93F4CF0F931F9340
:1027D000CF93DF93CDB7DEB72C970FB6F894DEBF5B
:1027E0000FBECDBF8C01DB01ED91FC9111971296CC
:1027F0008D919C918E1B9F0BFA83E983FC83EB8365
:102800009E838D8321EE30E138872F831A861986C7
:102810001C861B86892B49F0D8018C91808361E04E
:1028200070E0CE0101960E948613F80161817281E9
:10283000CE0101960E94BD13D80113966D917C9133
:10284000CE0101960E94BD13F80165817681CE010B
:1028500001960E94BD132C960FB6F894DEBF0FBEF2
:10286000CDBFDF91CF911F910F910895CF93DF934B
:10287000CDB7DEB7A0970FB6F894DEBF0FBECDBFC1
:10288000FE01319620E2DF011D922A95E9F740E032
:1028900050E167E070E049875A876B877C8741E0A9
:1028A00050E0BA014D875E876F87788B48E050E033
:1028B00061E070E0498B5A8B6B8B7C8B40E050E081
:1028C00069E170E04D8B5E8B6F8B788F8F3F910548
:1028D00009F020F59C0145E0369527954A95E1F7EA
:1028E000220F331F220F331FE20FF31F9C012F71A2
:1028F000332780819181A281B38104C0B695A795C9
:10290000979587952A95D2F78170A0960FB6F8947F
:10291000DEBF0FBECDBFDF91CF91089580E0F5CF30
:102920008FEF08950F931F93CF93DF93DC011396DE
:102930008D919C91149720E1629FF0011124E80F82
:10294000F91F54852C9126133CC05C932385119666
:102950008C91119786133FC011962C9311974111BA
:1029600021C084858F3FF1F020E1829FC0011124B6
:1029700013960D90BC91A02DA80FB91F16964D91DE
:102980005D916D917C911997068117812085318524
:10299000400F511F621F731F16964D935D936D93E9
:1029A0007C9319978FEF838784878FEF9FEFDC01EC
:1029B00086839783A087B187DF91CF911F910F9175
:1029C0000895238570E1279F90011124820F931FA2
:1029D000EC015C87BBCFC485D0E1CD9FC001112441
:1029E0001396CD91DC911497C80FD91F2B87B7CFC1
:1029F0000F931F93CF93DF93DC0120E1629FC0010F
:102A000011241396ED91FC911497E80FF91F8C9106
:102A10008F3F51F46C9311966C9383878487DF9179
:102A2000CF911F910F91089512968C93129760E1A8
:102A3000869FC00111241396CD91DC911497C80F85
:102A4000D91F46815781608571850E811F81288538
:102A50003985041715072607370760F19A858C9189
:102A6000981302C082858C938B85838782858B87A0
:102A70008A8584874E815F81688579850681178183
:102A800020853185401B510B620B730B4E835F8396
:102A90006887798783858F3F11F24285C0E18C9FDB
:102AA000C001112413962D913C91820F931FFC01BC
:102AB0004487B5CF401B510B620B730B4683578382
:102AC0006087718713962D913C911497820F931F05
:102AD000EC018C8512968C9312978F3F09F0A7CF4B
:102AE000928511964C911197D0E14D9FA001112430
:102AF000240F351FE9019C8711969C9111979387AC
:102B00008487828511968C938ACFCF92DF92EF9241
:102B1000FF920F931F93CF93DF936F3F09F44FC042
:102B200020E1629FB0011124FC01C081D181C60F58
:102B3000D71F2A852F3F09F442C04A815B816C81EF
:102B40007D814F3F5F4F6F4F7F4FC9F18C01F894EC
:102B50006C0122E0C20ED11C7E018AE0E80EF11C5D
:102B60008E819F81A885B9858F3F9F4FAF4FBF4F03
:102B700051F040E06A85C6010E949214B701C80175
:102B80000D960E9429128A819B81AC81BD818E8322
:102B90009F83A887B9876A85C6010E94F814B70188
:102BA000C80109960E942912789481E0DF91CF91A3
:102BB0001F910F91FF90EF90DF90CF90089580E0EC
:102BC000F5CF0F931F93CF93DF936F3F31F120E148
:102BD000629FB0011124FC01C081D181C60FD71FB3
:102BE0002A852F3FD1F04E815F81688579854F3FDF
:102BF0005F4F6F4F7F4F79F08C01F89440E06A850A
:102C000002960E949214BE01665F7F4FC8010D9626
:102C10000E942912789481E001C080E0DF91CF9179
:102C20001F910F910895FC012281338144815581C8
:102C3000C9012417350720F480819181820F931FE9
:102C4000841B950B089541960C9413162091A605AC
:102C500021110BC01092A3051092A2051092A50598
:102C60001092A40521E02093A605E091A405F0911F
:102C7000A505309731F0BC018091A2059091A30584
:102C800019940895EF92FF920F931F93CF93DF93C0
:102C900000D01F92CDB7DEB78C017B01DC0112960C
:102CA0008D919C91892B61F482E295E09A838983CE
:102CB0008EE791E09C838B83CE0101960E942616BD
:102CC000D8011296ED91FC91D7018D919C911197AD
:102CD0009A83898312968D919C919C838B83BE01EC
:102CE0006F5F7F4FD8018D919C9119950F900F9038
:102CF0000F900F90DF91CF911F910F91FF90EF9068
:102D00000895CF93DF9300D01F92CDB7DEB7FC01BB
:102D1000858196810197A9F086E295E09A8389835F
:102D200086EA92E09C838B83CE0101960E94261650
:102D300080E090E00F900F900F900F90DF91CF9177
:102D40000895CF01F7CF0F931F93CF93DF9300D058
:102D50001F92CDB7DEB78C01FC01228133818481C3
:102D600095812817390761F48AE295E09A8389836F
:102D700089EC93E09C838B83CE0101960E942616FA
:102D8000F801848195810196958384832081318126
:102D90008217930711F4158214820F900F900F90F1
:102DA0000F90DF91CF911F910F910895CF93DC0188
:102DB00055962D913C91569753964D915C91549711
:102DC0004217530769F05796ED91FC91E20FF31FFC
:102DD000C08141960E94A3168C2F90E0CF91089558
:102DE0008FEF9FEFFBCFDC0155968D919C9156970D
:102DF00053962D913C9154972817390741F05796D7
:102E0000ED91FC91E80FF91F808190E008958FEF1C
:102E10009FEF08950F931F93CF93DF9300D01F92DE
:102E2000CDB7DEB78C01DC018D919C91892B61F4CB
:102E30008EE295E09A8389838CE592E09C838B8374
:102E4000CE0101960E942616D801ED91FC91828157
:102E50000F900F900F900F90DF91CF911F910F91D6
:102E600008953F924F925F926F927F928F929F92BE
:102E7000AF92BF92CF92DF92EF92FF920F931F9388
:102E8000CF93DF9300D01F92CDB7DEB78C016A01DC
:102E9000DC0118967C936E93179719964C93312CFE
:102EA0009EE2492E95E0592E2DEE622E77247394E2
:102EB00032E3A32E35E0B32E4EEE842E9924939464
:102EC000E32CF12CEC14FD04A0F5EE0CFF1CD80152
:102ED0001796ED91FC91EE0DFF1D80819181892B5C
:102EE00041F45A8249827C826B82CE0101960E9413
:102EF0002616D8011796ED91FC91EE0DFF1D01905D
:102F0000F081E02D8281381641F0BA82A9829C823C
:102F10008B82CE0101960E942616F801878190854A
:102F2000E80EF91ED701ED91FC91148303833394CD
:102F3000C7CF0F900F900F900F90DF91CF911F91FF
:102F40000F91FF90EF90DF90CF90BF90AF909F9048
:102F50008F907F906F905F904F903F9008950F9368
:102F60001F93CF93DF9300D01F92CDB7DEB78C01B4
:102F7000FC0186819781019761F086E395E09A8351
:102F800089838CEE94E09C838B83CE0101960E9412
:102F90002616C8010F900F900F900F90DF91CF91E0
:102FA0001F910F910895CF93DF9300D01F92CDB75B
:102FB000DEB7FC01848195810197A9F086E295E056
:102FC0009A83898386EA92E09C838B83CE01019663
:102FD0000E94261680E090E00F900F900F900F90C7
:102FE000DF91CF910895CF01F7CFCF93DF9300D03A
:102FF0001F92CDB7DEB7FC01268137812130310524
:10300000A9F086E295E09A83898386EA92E09C8320
:103010008B83CE0101960E94261690E080E00F90EF
:103020000F900F900F90DF91CF9108950E94AF17EE
:10303000F6CF0F931F93CF93DF9300D01F92CDB79E
:10304000DEB78C01FC0186819781019761F086E3F0
:1030500095E09A8389838CEE94E09C838B83CE01E8
:1030600001960E942616C8010F900F900F900F90A6
:10307000DF91CF911F910F9108950F931F93CF93DD
:10308000DF9300D01F92CDB7DEB78C01FC018481A5
:103090009581019761F086E395E09A8389838CEEB0
:1030A00094E09C838B83CE0101960E942616C80172
:1030B0000F900F900F900F90DF91CF911F910F9174
:1030C00008952F923F924F925F926F927F928F92CC
:1030D0009F92AF92BF92CF92DF92EF92FF920F93A7
:1030E0001F93CF93DF93CDB7DEB72D970FB6F8942C
:1030F000DEBF0FBECDBF4FB64D82F8947C0123EAF0
:10310000E21A2AEFF20AD70118964D905D906D9061
:103110007C901B974A865B866C867D86812C912CE1
:10312000540162E4262E65E0362E8C01075B1B4FAE
:103130004A845B846C847D84481459046A047B044B
:1031400009F4B6C0F70180859185A285B385892BE6
:103150008A2B8B2B09F473C08481958153E0880FEF
:10316000991F5A95E1F70088F189E02DE80FF91FC2
:10317000C480D580C114D10409F44CC0D8018D910C
:103180009C911197F601E81BF90BCF01F7FD17C0D1
:1031900050964D915D916D917C915397415051099D
:1031A000610971091C96ED91FC91E49F9001E59FE6
:1031B000300DF49F300D11242817390784F43AE3B9
:1031C000432E35E0532E5A82498247E5642E42E071
:1031D000742E7C826B82CE0101960E942616F80125
:1031E00084819581A681B781892B8A2B8B2B69F1EC
:1031F00082819381D6018D939C93D382C2828481F4
:103200009581A681B7810197A109B109848395832E
:10321000A683B783F70180859185A285B385009742
:10322000A105B10519F53A8229828FEC482E552463
:1032300053945C824B82CE0101960E942616FFEFCA
:103240008F1A9F0AAF0ABF0A73CF9EE3492E95E0FB
:10325000592E5A82498224E6622E22E0722E7C8206
:103260006B82CE0101960E942616D4CF44815581EF
:10327000668177814F5F5F4F6F4F7F4F44835583E8
:103280006683778344845584668477844415550522
:103290006605770521F4148215821682178201973C
:1032A000A109B109F70180879187A287B387C7CFAA
:1032B0004D804FBE2D960FB6F894DEBF0FBECDBF2A
:1032C000DF91CF911F910F91FF90EF90DF90CF9002
:1032D000BF90AF909F908F907F906F905F904F9036
:1032E0003F902F9008958F929F92AF92BF92CF926E
:1032F000DF92EF92FF920F931F93CF93DF93CDB79F
:10330000DEB7C057D1090FB6F894DEBF0FBECDBFF0
:103310005C01ECE4F0E0EC0FFD1F3A9685E0DF0184
:103320001D928A95E9F782E02D968FAF2D97F901CE
:103330008281938120813181FC01E21BF30B2F9666
:10334000FFAFEEAF2F9761967FAF6EAF6197639639
:103350005FAF4EAF639765963FAF2EAF65976796A9
:103360009FAF8EAF6797A0961FAEA0978FEF9FEF8E
:10337000DC016F968CAF9DAFAEAFBFAF6F978E0184
:103380000F5F1F4FA9961FAF0EAFA9977E01F8E000
:10339000EF0EF11CAB96FFAEEEAEAB97BE016959D6
:1033A0007F4FCE01845B9F4F0E94E613A701B801B7
:1033B000CE01855A9F4F0E94D90F67964EAD5FADE3
:1033C000679765966EAD7FAD6597CE01855A9F4F25
:1033D0000E94D90F6F968CAD9DADAEADBFAD6F970E
:1033E00080959095A095B0956B968CAF9DAFAEAF44
:1033F000BFAF6B9767968EAD9FAD679765962EAD05
:103400003FAD6597821B930B0B968C34910508F0AA
:1034100089C06D961FAF0EAF6D976F96FFAEEEAE83
:103420006F97BE01655A7F4FCE01845B9F4F0E940C
:10343000E61365968EAD9FAD659767966EAD7FADD1
:103440006797681B790BA7010E9488126796EEADFB
:10345000FFAD679765968EAD9FAD6597E81BF90B3D
:103460003796E00FF11F6D96FFAFEEAF6D976F9639
:10347000FFAFEEAF6F9784E090E0A1969FAF8EAF65
:10348000A19781EE90E1A3969FAF8EAFA397A596EB
:103490001FAE1EAEA597A7961FAE1EAEA797CE0174
:1034A00083599F4F6B964CAD5DAD6EAD7FAD6B9705
:1034B000DC014D935D936D937D932E912193A8171D
:1034C000B907D9F764E070E0CE01855A9F4F0E949A
:1034D00086136796EEACFFAC679765968EAD9FAD91
:1034E0006597E81AF90A9701255F3F4FD9F048011F
:1034F000820E931E0815190549F581E090E0AD96FE
:103500009FAF8EAFAD97A9961FAE1EAEA99785EF60
:1035100091E1AB969FAF8EAFAB97CE0189599F4F8C
:103520000E94980BC059DF4F0FB6F894DEBF0FBE54
:10353000CDBFDF91CF911F910F91FF90EF90DF9062
:10354000CF90BF90AF909F908F900895C9016EEF7C
:1035500070E00E949753C7010C96680F791F6501B0
:1035600089EDC81A8DEFD80AF601A081B181828158
:1035700093818A1B9B0B8617970768F482E090E083
:10358000AD969FAF8EAFAD9781E0A8968FAFA8970D
:103590008EEF91E1BECFF501A080B180F80181915D
:1035A0008F018D938E169F06C9F7D6014D915C91C0
:1035B0001197FA01E20FF31F8F0112968D919C91E2
:1035C0008E1B9F0B8617970708F043C082E090E0A0
:1035D000A1969FAF8EAFA19781E06C968FAF6C974D
:1035E0008EEF91E16F969FAF8EAF6F97A1968EADE4
:1035F0009FADA1978130910509F45DC0029789F0D4
:1036000086E395E0A9969FAF8EAFA9978CEE94E0E4
:10361000AB969FAF8EAFAB97CE0189599F4F0E945B
:1036200026166C968FAD6C9722E030E0AD963FAFDA
:103630002EAFAD97A8968FAFA8978EEF91E1AB967E
:103640009FAF8EAFAB97CE01855A9F4F0E94980BCC
:1036500064CF4F01BFEF8B1A9B0ABF0191E0641743
:103660007507C1F0DA018D91AD0194012F5F3F4FD5
:10367000811105C09083F40191E04901F0CFD4019C
:103680008C939F5F9F3FC9F79083F90194012E5F50
:103690003F4FF2CF908381E090E0A1969FAF8EAF35
:1036A000A197D401A01BB10B6D96BFAFAEAF6D97C4
:1036B00085EF91E197CFCE01855A9F4F0E943D182B
:1036C000FC0100811181D6018D919C91E80EF91EBB
:1036D0006701D501ED91FC910190F081E02DC701CA
:1036E0008C199D098017910748F4D7011B966C919E
:1036F000C5011995BFEFEB1AFB0AEBCF60E0C501DE
:10370000199581E090E0AD969FAF8EAFAD970F5FBA
:103710001F4FA9961FAF0EAFA99785EF91E18FCFED
:10372000FF920F931F93CF93DF9300D01F92CDB7DB
:10373000DEB7FFB6F894DC01A35ABA4F18964D9144
:103740005D916D917C911B97452B462B472B61F129
:103750008C0114968D919C91159723E0880F991FE9
:103760002A95E1F75096ED91FC91E80FF91F26811B
:103770003781848195819A838983820F931F9C83EB
:103780008B8342815381608171819E012F5F3F4F06
:10379000C8010E947319F801E551FD4F6081C8010D
:1037A00087579D4F0E948515FFBE0F900F900F9079
:1037B0000F90DF91CF911F910F91FF9008952F925D
:1037C0003F924F925F926F927F928F929F92AF92B1
:1037D000BF92CF92DF92EF92FF920F931F93CF93FE
:1037E000DF9300D000D000D01F92CDB7DEB76C01C0
:1037F0000E9494052B013C01F60186819781A085EA
:10380000B185892B8A2B8B2B21F4468257826086C7
:103810007186F60186819781A085B18553014201A9
:10382000881A990AAA0ABB0A09F47EC08481958184
:10383000FC01E757FD4F2781222309F46EC09C014C
:1038400025573D4F3E832D83D9018C918F3F09F43D
:1038500064C01F01B2E02B0E311C255F3F4F38873B
:103860002F83CF0109969A878987AD81BE810C91FC
:10387000B0E10B9FC0011124ED81FE810381148111
:10388000080F191FF80186819781A085B1858816D8
:103890009906AA06BB0608F487C0881A990AAA0ADC
:1038A000BB0A41E06285C1010E9492147801FAE0EE
:1038B000EF0EF11CB7018F8198850E942912D80163
:1038C0001D968C911D978823A1F012968D919D9144
:1038D0000D90BC91A02DF80186839783A087B187B6
:1038E0006285C1010E94F814B70189859A850E94FA
:1038F0002912D801ED90FC901197E114F10439F0F0
:103900001E968D919C91009741F5F7011995ED81D7
:10391000FE8180818F3F09F0A8CFD60116964D9287
:103920005D926D927C9219972A960FB6F894DEBF3D
:103930000FBECDBFDF91CF911F910F91FF90EF9000
:10394000DF90CF90BF90AF909F908F907F906F90BF
:103950005F904F903F902F9008958130910549F4EA
:10396000D701ED91FC910480F581E02DC7011995F7
:10397000CECF029761F6F70182819381892B61F4A2
:1039800022E235E03A8329838EE791E09C838B83A2
:10399000CE0101960E942616D7011296ED91FC9158
:1039A00013978D919C91E3CF88199909AA09BB09B6
:1039B00086839783A087B187B0CFEF92FF920F9352
:1039C0001F93CF93DF9300D01F92CDB7DEB78C014A
:1039D0006D3FB1F4DC0115968D919C91DC01ED9168
:1039E000FC910084F185E02D1995F801858196817F
:1039F000DC01ED91FC910680F781E02D1995682F8F
:103A0000D8011596ED91FC91169782816817A1F067
:103A1000862F8D7F8D3F81F019968C916817E0F08D
:103A200086E495E09A83898389EB92E09C838B837B
:103A3000CE0101960E942616D8011596ED91FC91B3
:103A400082810F900F900F900F90DF91CF911F9177
:103A50000F91FF90EF90089570E0660F771FF801C7
:103A600087819085680F791FDB01ED90FC90F8014C
:103A700085819681DC01ED91FC910084F185E02D3A
:103A80001995F801F682E582D701ED91FC91068047
:103A9000F781E02DC7011995D8011596ED91FC919C
:103AA000169792818917D9F0982F9D7F9D3FB9F085
:103AB00019969C911997891738F086E495E09A83B6
:103AC000898385EC92E0B2CF90E0880F991F17961A
:103AD0002D913C91820F931FDC01ED90FC90EE162E
:103AE000FF0629F6A9CF0F931F93CF93DF9300D042
:103AF0001F92CDB7DEB78C01DC016D937C93FB0187
:103B00008081882361F08AE495E09A83898381EF3C
:103B100090E09C838B83CE0101960E942616D801EB
:103B2000ED91FC9181E080830F900F900F900F90AA
:103B3000DF91CF911F910F910895FF920F931F93E3
:103B4000CF93DF931F921F92CDB7DEB78C01F62E75
:103B5000BC01665F7F4FCE0101960E94731DD801A4
:103B600015968D919C91009749F0FF2039F0DC016A
:103B7000ED91FC910084F185E02D1995F8011682F4
:103B80001582E981FA8110820F900F90DF91CF9119
:103B90001F910F91FF900895EF92FF920F931F9343
:103BA000CF93DF9300D000D0CDB7DEB78C017B017F
:103BB000BC01665F7F4FCE0105960E94731DD80140
:103BC00015968D919C91009709F1DC01ED91FC9186
:103BD0000480F581E02DB7011995D801ED91FC9194
:103BE000008CF18DE02D682FC8011995ED81FE81C3
:103BF000108226960FB6F894DEBF0FBECDBFDF91C0
:103C0000CF911F910F91FF90EF9008958EE495E072
:103C10009A83898387E392E09C838B83CE0101960C
:103C20000E942616E3CFBF92CF92DF92EF92FF92CF
:103C30000F931F93CF93DF9300D01F92CDB7DEB7C2
:103C4000BFB6F894FC01EE5CFB4F2081222309F4FF
:103C500053C06C0123EAC21A2AEFD20AF60140854A
:103C6000518562857385452B462B472B09F444C04B
:103C70008C018F599D4F0E940A178430E9F1F6019B
:103C8000E480F58083E0EE0CFF1C8A95E1F78089E3
:103C90009189E80EF91EF70126813781848195818B
:103CA0009A838983820F931F9C838B8342815381E4
:103CB000608171819E012F5F3F4FC8010E9473197F
:103CC000F801108AF70180819181F8019587848736
:103CD000E551FD4F6081C80187579D4F0E948515B2
:103CE00084E392E09A838983BE016F5F7F4FC801AE
:103CF000845A9D4F0E94CC1DBFBE0F900F900F9015
:103D00000F90DF91CF911F910F91FF90EF90DF9077
:103D1000CF90BF900895FC01EE5CFB4F21E0208323
:103D20000C94131EEF92FF920F931F93CF93DF9388
:103D30001F921F92CDB7DEB78C01FB01E280F380AA
:103D40008F599D4F0E940A17843001F5F801848530
:103D50009585E816F906D1F4E551FD4F6081C8015B
:103D600087579D4F0E94E115C8010E9461188EE39C
:103D700092E09A838983BE016F5F7F4FC801845AA6
:103D80009D4F0E94CC1DC8010E94131E0F900F90E2
:103D9000DF91CF911F910F91FF90EF9008952F9297
:103DA0003F924F925F926F927F928F929F92AF92CB
:103DB000BF92CF92DF92EF92FF920F931F93CF9318
:103DC000DF9300D01F92CDB7DEB7FC01EE5CFB4F56
:103DD0001081112309F49FC039012A015B016C0194
:103DE000CB010E943614382E882309F436C12FB631
:103DF000F894760183EAE81A8AEFF80AD701189650
:103E00004D915D916D917C911B971C968D919D912B
:103E10000D90BC91A02D481759076A077B0709F43C
:103E200078C08601075B1B4FF80184859585A685C0
:103E3000B78580349105A105B10560F482E595E070
:103E40009A83898380E491E09C838B83CE010196E1
:103E50000E942616F80180899189A289B38944813C
:103E6000558166817781481759076A077B0708F0F3
:103E70006DC04085518562857385481759076A076B
:103E80007B07F0F484859585849F9001859F300D94
:103E9000949F300D11240190F081E02DE20FF31F6B
:103EA0008E0F9F1F91838083F80180859185A28565
:103EB000B3850196A11DB11D80879187A287B38725
:103EC000D80112968D909C90139714968D919D9188
:103ED0000D90BC91A02D0196A11DB11DF801848308
:103EE0009583A683B7834089518962897389841732
:103EF0009507A607B70738F5D4018D919C91938358
:103F0000828381E090E0D4018D939C93811491048D
:103F100051F52FBE10E0812F0F900F900F900F9052
:103F2000DF91CF911F910F91FF90EF90DF90CF9095
:103F3000BF90AF909F908F907F906F905F904F90C9
:103F40003F902F90089513821282DBCF8EE395E08D
:103F50009A8389838BE492E09C838B83CE010196C4
:103F60000E942616D6CFF3018081918162817381F0
:103F7000681B790BA4010E948812D70118964D91F5
:103F80005D916D917C911B971C968D919D910D90EB
:103F9000BC91A02D481759076A077B07C9F486E52D
:103FA00095E09A83898385E491E09C838B83CE019D
:103FB00001960E9426162FBEC6018F599D4F0E9462
:103FC0000A17843019F0C6010E94131E132DA3CFC7
:103FD000F3018281938120813181D7014D915C91E0
:103FE000119763E0440F551F6A95E1F75096ED91E4
:103FF000FC915197E40FF51FB182A0825382428257
:1040000095828482821B930B978386838D919D91E9
:104010000D90BC91A02D0196A11DB11DF7018083CB
:104020009183A283B38344855585668577858417FC
:104030009507A607B70721F4108211821282138216
:10404000F70180859185A285B3850196A11DB11DDB
:1040500080879187A287B387AECFD3018D919C9142
:1040600011979A83898312968D919C919C838B835F
:104070009E012F5F3F4FA201B501C6010E94731937
:104080004ACFCF93DF9300D01F92CDB7DEB7D901CF
:10409000ED91FC911197FA83E98312962D913C9151
:1040A0003C832B839E012F5F3F4F0E94CF1E0F90BA
:1040B0000F900F900F90DF91CF9108952F923F9224
:1040C0004F925F926F927F928F929F92AF92BF9228
:1040D000CF92DF92EF92FF920F931F93CF93DF93D4
:1040E000CDB7DEB768970FB6F894DEBF0FBECDBF71
:1040F0007C01DC011496CD90DC90F601408051806B
:10410000D201ED91FC910084F185E02DC201199559
:104110005C01181619060CF03AC18601015E1D4FAC
:10412000C8010E941316F80180809180F1E08F1A77
:104130009108881A990AA814B9040CF44501312C85
:10414000212C360129ED621A2DEF720AB601635D4A
:104150007D4F7C8B6B8BC8010C969E8B8D8BD60113
:10416000AF5CBD4FBF87AE87F601E15DFD4FF98BB8
:10417000E88B281439040CF00AC1D201ED91FC91AE
:104180000284F385E02DC201199597FD00C18B874C
:104190008111F6C0C8010E941316009709F4C5C02A
:1041A000F301A081B181F8014281538124813581DD
:1041B0002417350799F0F80166817781FB01E20F3A
:1041C000F31F60816D932F5F3F4FF8016081718114
:1041D0002617370769F730E020E0EACFD8011396B9
:1041E0001C921E92129715961C921E921497F30120
:1041F00040815181A280B380840F951F48175907D1
:1042000049F481E090E09E838D831A82198285EFC4
:1042100091E14FC09A01588F4F8B28C0E20FF31FD6
:10422000AE16BF06D0F02A8BB901262FAA892A1B09
:10423000BD852B1738F4D6012D916D01DB012D932F
:10424000BD01F3CFBC85BF3F81F02F89388D281782
:10425000390758F4AE16BF0631F482E090E09E8331
:104260008D8381E023C0108231969F016F89788D04
:104270006817790708F05DC06B017FEFC71AD70A8E
:10428000AF89B88DBC91BC87B150BD87EB2FF0E0F2
:10429000B6016E0F7F1F788F6F8B8617970708F018
:1042A000BDCF82E090E09E838D8383E089838EEF93
:1042B00091E19C838B838D819E818130910509F4EE
:1042C00041C0AE85BF852D913C91232B51F10297C2
:1042D00061F0E6E3F5E0F887EF838CEE94E09A87EF
:1042E0008987CE0107960E942616AE85BF858D91DF
:1042F0009C91892B61F4E2E2F5E0F887EF832EE7E9
:1043000031E03A872987CE0107960E942616A889B0
:10431000B9891296ED91FC91139769818D919C91C9
:104320001995CE0101960E94980BFFEF2F1A3F0AB4
:1043300020CF81E090E09E838D83241B350B3A8350
:10434000298365CFCE0101960E943D18EB89FC8937
:1043500020813181232B29F3DC012D913C91F30144
:104360008081918198878F83820F931F9A87898795
:10437000BE01695F7F4F8D899E890E944216D1CF11
:10438000BE01655F7F4FC8010E945E11CECFD7018D
:104390001496ED91FC9180819181DC01ED91FC916D
:1043A0000084F185E02D1995F701268121112EC099
:1043B000C1979CF0848195811A8219821C821B828C
:1043C0009E012F5F3F4F50E040E06EE470E00E949E
:1043D000412081E0D70116968C9368960FB6F89429
:1043E000DEBF0FBECDBFDF91CF911F910F91FF9028
:1043F000EF90DF90CF90BF90AF909F908F907F9085
:104400006F905F904F903F902F90089540972CF7BA
:10441000848195811A8219821C821B829E012F5FE2
:104420003F4F50E040E06FE470E00E944120D70130
:1044300016961C92D2CFCF93DF9300D01F92CDB7A8
:10444000DEB7D901ED91FC911197FA83E9831296B9
:104450002D913C913C832B8370E09E012F5F3F4F59
:104460000E94CF1E0F900F900F900F90DF91CF9171
:104470000895FF920F931F93CF93DF9300D01F9265
:10448000CDB7DEB78C01F62EDC011A96ED91FC91CA
:104490001B97309759F01A8219821C821B82AE0139
:1044A0004F5F5F4F18968D919C9119951A821982D2
:1044B0001C821B829E012F5F3F4F50E040E06F2D1A
:1044C000C8010E941B220F900F900F900F90DF9158
:1044D000CF911F910F91FF900895AF92BF92CF920D
:1044E000DF92EF92FF920F931F93CF93DF9300D051
:1044F0001F92CDB7DEB78C01FFB6F89482ED93E042
:104500009A838983BE016F5F7F4FC801845A9D4F94
:104510000E94CC1DFFBE580180E1A81A8DEFB80A99
:104520007801A5E1EA1AADEFFA0A6801B7E7CB1AFC
:10453000BDEFDB0AAE14BF0439F0F70161917F01D2
:10454000C6010E94E115F6CFD80158961D921D9222
:104550001D921C925B9750961C92C8010E94611894
:10456000F801E157FA4F1382128215821482ED5539
:10457000F14081E080837801BAECEB1ABDEFFB0AD1
:10458000F70184819581228133813A8329839C8339
:104590008B83CE0101960E941B13D70112968D9139
:1045A0009C91139715969C938E93149788E991E1AB
:1045B0000E943C0B0E94C00CF801E95CFB4FE080BC
:1045C000F1803297008111818AE2C82E82E0D82ED4
:1045D000E016F10699F0F801819191918F01DC01CB
:1045E0001296ED91FC910480F581E02DDA82C9826A
:1045F000BE016F5F7F4F02961995EACF0F900F9023
:104600000F900F90DF91CF911F910F91FF90EF903E
:10461000DF90CF90BF90AF9008950C946D22CF9211
:10462000DF92EF92FF920F931F93CF93DF931F922E
:104630001F92CDB7DEB70E9494056B017C0110E09C
:1046400000E08091950790919607DC01ED91FC9137
:104650000084F185E02D199518161906E4F40E94DE
:1046600094050F5F1F4F6C197D098E099F09683EE5
:1046700073408105910578F4809195079091960794
:10468000DC01ED91FC910284F385E02D1995011573
:10469000B1E01B07B1F61FB7F89480E292E09A836D
:1046A0008983BE016F5F7F4F81EF99E00E94CC1D2F
:1046B0001FBF0F900F90DF91CF911F910F91FF902F
:1046C000EF90DF90CF900895CF93DF931F921F92CA
:1046D000CDB7DEB786EF99E00E940A178430D1F497
:1046E0008091A5078F5F8093A5079091A6078917F2
:1046F000B0F06091800A8EE19AE00E94E11586E1B7
:1047000092E09A838983BE016F5F7F4F81EF99E0CA
:104710000E94CC1D0F900F90DF91CF91089585E9F5
:1047200097E00E94901BF6CF9F92AF92BF92CF92DC
:10473000DF92EF92FF920F931F93CF93DF9300D0FE
:1047400000D0CDB7DEB78C01F62EBC01665F7F4F7F
:10475000CE0105960E94731DD80115968D919C91EE
:104760001697892B09F056C01796ED91FC91189772
:104770008081918116969C938E931597892B61F475
:104780008EE295E09A83898383E192E09C838B8318
:10479000CE0101960E942616FF20E1F136E4C32ED9
:1047A00035E0D32E40E2A42E42E0B42EF801E5809D
:1047B000F680D701ED91FC910680F781E02DC701CD
:1047C0001995982EBFEF8B17F1F0F8018185981697
:1047D00040F0DA82C982BC82AB82CE0101960E948F
:1047E0002616892D90E0880F991FD80117962D91D4
:1047F0003C911897820F931FFC018081918116963E
:104800009C938E931597D80115968D919C918E153A
:104810009F0561F6ED81FE81108226960FB6F89411
:10482000DEBF0FBECDBFDF91CF911F910F91FF90E3
:10483000EF90DF90CF90BF90AF909F900895AF9290
:10484000BF92CF92DF92EF92FF920F931F93CF937D
:10485000DF93CDB7DEB7EB970FB6F894DEBF0FBE90
:10486000CDBFFC0142815381208131814217530722
:1048700099F490E080E0EB960FB6F894DEBF0FBE9F
:10488000CDBFDF91CF911F910F91FF90EF90DF90FF
:10489000CF90BF90AF900895FB014081518122815C
:1048A00033812417350729F37B018C011C821B827D
:1048B0001D821F821E82198618861A861B868AEA26
:1048C00092E09A8389835D874C873F872E87188A79
:1048D000198A1C8A1E8A1D8A188E1F8A1A8E198EA2
:1048E0001C8E1B8E80E892E09B8B8A8B81E08F8FE1
:1048F00019A218A21BA21AA21DA21CA21FA21EA2CC
:104900008EE892E09E8F8D8F82E08AA71CA61BA660
:104910001EA61DA618AA1FA61AAA19AA8CE992E01B
:1049200099A788A7CE0142969CAB8BAB0B969EAB0A
:104930008DAB0B9698AF8FAB43E050E0BE016D5C42
:104940007F4F87970E94311761E0CE0101960E9448
:104950009423F801C280D3800081118188ECA82EB5
:1049600082E0B82E8989C016D10689F081110CC069
:10497000F8018081BAAEA9AE8BAFBE01675C7F4FF4
:10498000CE0101960E94CC1D0F5F1F4FEBCF81110E
:1049900070CFCE0106960E940A1781116ACF8C85CE
:1049A0009D85F70120813181821B930B64CF3F925B
:1049B0004F925F926F927F928F929F92AF92BF922F
:1049C000CF92DF92EF92FF920F931F93CF93DF93DB
:1049D000CDB7DEB7E7970FB6F894DEBF0FBECDBFF9
:1049E0008C01DB01ED90FC9011971296AD90BC907C
:1049F00045018E189F08C4010B978134910548F03A
:104A000082E090E09B8B8A8B9A8389838AEE91E186
:104A1000C4C0FD8AEC8AFF8AEE8A998E888E81EE68
:104A200090E19B8F8A8F1FA28FEF9FEFDC018BA3FA
:104A30009CA3ADA3BEA3A401445051094E0D5F1D1C
:104A4000B701CE0183960E94D90FEE89FF898C8928
:104A50009D899F01281B390B888D998DC12CD12CE4
:104A60002817390739F0CF0101969F8B8E8BD080A4
:104A7000CC24C394BE016C5E7F4FCE01C5960E94CC
:104A80004913BE016C5E7F4FCE01C1960E9449134F
:104A9000BE016C5E7F4FCE018B960E944913CC20E5
:104AA00009F4AECF8FA9882309F4AACF8BA9882354
:104AB00009F4A6CF8DA5882309F4A2CFB2E0DB12BA
:104AC0009FCFCDA8DEA8C6010B968816990609F0DF
:104AD00097CFEFEFCE16DE0631F05601F7E0AF0EBE
:104AE000B11CAE0CBF1C89A89AA86BA47CA42E890B
:104AF0003F894C895D89888D998DB901641B750B3F
:104B0000DC01A61BB70BAC15BD0520F02C0D3D1D1F
:104B10003F8B2E8B6E897F899B01241B350B821B5B
:104B2000930B049708F475C024E030E0AE014F5FAA
:104B30005F4FCE0144960E942D138E899F89049663
:104B40009F8B8E8B49815A816B817C818BA19CA12B
:104B5000ADA1BEA180959095A095B09584179507BD
:104B6000A607B70709F055C021E030E03B8B2A8B40
:104B700022E02983DB82CA829D828C827F826E82C0
:104B8000E7E0EE0EF11CF986E886BB86AA868C87E4
:104B90009D87AE87BF8787EC91E1998B888B8A8947
:104BA0009B8981309105E1F1029761F086E395E000
:104BB0009D8B8C8B8CEE94E09F8B8E8BCE014496DC
:104BC0000E94261689819A81D8015E969C938E93C5
:104BD0005D9763E3C8010E943922CE0101960E94CD
:104BE0001712E7960FB6F894DEBF0FBECDBFDF9168
:104BF000CF911F910F91FF90EF90DF90CF90BF90DA
:104C0000AF909F908F907F906F905F904F903F906C
:104C1000089582E090E09B8B8A8B81E090E0F4CE57
:104C20001C8E1B8E1E8E1D8E87E0FE013196DE01CE
:104C3000549601900D928A95E1F7288539858A85E9
:104C40009B854C815D8157FD0BC03C8F2B8F9E8FC8
:104C50008D8F8BE491E19EA78DA718AA1FA632C065
:104C60007801B0EDEB1ABCEFFB0AF701A801405D3B
:104C70005B4FE417F50711F01192FBCFFCA2EBA2FA
:104C8000FEA3EDA33CA72BA79EA78DA7BE016D5D3C
:104C90007F4FCE018B960E941F24009761F54885B7
:104CA00059852A853B854217530729F18AEE91E100
:104CB0009EA78DA781E090E098AB8FA782E090E05F
:104CC0009CA78BA78FA598A90197F1F4CE018B968D
:104CD0000E943D18FC0180819181D8015E969C93D1
:104CE0008E935D9763E3C8010E943922CE018B96B3
:104CF0000E94980B72CFFC8EEB8EE80EF91EFE8E92
:104D0000ED8E9E8B8D8BA5CF8F88988CE89497F82D
:104D10007801B1E7EB1ABAEFFB0AF701A280B38082
:104D200044805580698C7A8CC2019C01220F331F0C
:104D30006C01AC14BD04C9F0D7011696ED91FC913D
:104D4000E20FF31F808191818615970579F0BFEFFF
:104D5000CB1ADB0A2E5F3F4F90E080E0F7014081E5
:104D60005181C416D50629F7E0CF65013324339469
:104D7000CA14DB0409F4312CC4010E9436149E01CC
:104D80002C5E3F4F3CA32BA39EA28DA278A66FA2C0
:104D900039A68AA7CA14DB0409F041C0FFEFCF1A75
:104DA000DF0AD7018D919C91C816D90611F4D12C38
:104DB000C12C4C145D0419F4C7010E94A316298D5F
:104DC0003A8DF70182819381880F991F0680F781C0
:104DD000E02DE80FF91F31832083D70112968D91C2
:104DE0009C911397019613969C938E9312972D91F5
:104DF0003C9111978217930721F413961C921E92EF
:104E00001297F70182819381448155818417950718
:104E100031F401962817390769F195838483F801E5
:104E2000EA5CFD4F248135818281938128173907FF
:104E300021F18DA19EA186349105F9F08B7F8034FC
:104E40009105D9F0C8018F599D4F0E940A178350D0
:104E5000823098F01AAA19AA1CAA1BAA4FA158A519
:104E60009E012F5C3F4F61E3C8010E941B22CE01CF
:104E70008B963ECF15821482D2CF8DA19EA18F3FFB
:104E8000910509F0B8F4880F991F880F991FD80170
:104E9000A755BA4FA80FB91FED91FC911197129623
:104EA0008D919C919C01217033273097B1F421158D
:104EB000310599F4D8011696ED91FC91179730972A
:104EC00039F06BA17CA114968D919C911995CFCF4F
:104ED00061E3C8010E943922CACF95958795800F5A
:104EE000911F232B41F0DC012D913C91E20FF31F28
:104EF0000190F081E02DBE016D5D7F4FE7CF2091E5
:104F0000CC0B3091CD0B4091CA0B5091CB0B241B95
:104F1000350B359527954091C80B5091C90B241737
:104F2000350729F0BC0188EC9BE00C94034B0895F5
:104F30004F925F926F927F928F929F92AF92BF92A9
:104F4000CF92DF92EF92FF920F931F93CF93DF9355
:104F50005C018B0169017A01009709F4C6C0672BD7
:104F600041F4CD28CE28CF2809F0BFC090E080E0E2
:104F7000ABC04C0180E6880E911CF40180819181C8
:104F8000A281B38180349105A105B10508F0B0C0BC
:104F900034964080518062807380BA01A901440D2B
:104FA000551D661D771D40835183628373834415AD
:104FB00055056605770568F4349640815181628114
:104FC00073814F5F5F4F6F4F7F4F40835183628389
:104FD0007383E501A0960097A105B10509F441C0CE
:104FE00020E4422E512C612C712C481A590A6A0A6D
:104FF0007B0AC414D504E604F70410F42601370133
:105000008C0F9D1FA201B8010E94D353F40180812F
:105010009181A281B381840D951DA61DB71D80834A
:105020009183A283B383040D151DC418D508E60827
:10503000F70880349105A105B10599F420E430E02A
:1050400040E050E0BE01CE010E94F609BE01C5015C
:105050000E94D4060097C1F5F401108211821282D9
:10506000138280E4C816D104E104F10488F4C11469
:10507000D104E104F10409F479CFA601B801CE010D
:105080000E94D353F401C082D182E282F3826ECFB8
:1050900080E4F801DE0101900D928A95E1F7005C51
:1050A0001F4FF0E4CF1AD108E108F10820E430E006
:1050B00040E050E0BE01CE010E94F609BE01C501EC
:1050C0000E94D406009769F2DF91CF911F910F9152
:1050D000FF90EF90DF90CF90BF90AF909F908F9018
:1050E0007F906F905F904F90089583E59FEFECCF96
:1050F0008CE79FEFE9CF8F929F92AF92BF92CF92B2
:10510000DF92EF92FF920F931F93CF93DF9361157E
:105110007105A9F483E59FEF232B242B252B11F494
:1051200090E080E0DF91CF911F910F91FF90EF9081
:10513000DF90CF90BF90AF909F908F9008952115F2
:1051400031054105510561F349015A018B01EC011B
:105150006C012FEEC21A2EEFD20AF60180819E0159
:10516000205F3E4F7901811113C0F90180818630A3
:1051700061F420E430E040E050E0BE0162597F4F2E
:10518000CE010E949827009769F681E0F60180839E
:10519000F7018081863021F6A5019401B801CE0186
:1051A000DF91CF911F910F91FF90EF90DF90CF9003
:1051B000BF90AF909F908F900C9498272F923F9222
:1051C0004F925F926F927F928F929F92AF92BF9217
:1051D000CF92DF92EF92FF920F931F93CF93DF93C3
:1051E0003B017C0120E6E20EF11CF7014081518178
:1051F00062817381403451056105710508F017C162
:10520000EC018C01005E1F4FDB01CA010196A11D5C
:10521000B11D80839183A283B383400F511F80E827
:10522000FA018083F70180819181A281B381893362
:105230009105A105B10520F180349105A105B105C5
:1052400050F440E450E0481B590B800F911F70E070
:1052500060E00E94EE5320E430E040E050E0B8010E
:10526000C8010E94F609B801CE010E94D4066C0163
:10527000892B09F0C8C0F7011082118212821382B3
:10528000F7018081918148E350E0481B590B70E0A1
:1052900060E0800F911F0E94EE534E01F4E68F0EE6
:1052A000911CF40140815181628173815E01F8E6B5
:1052B000AF0EB11CF50180819181A281B38123E001
:1052C000880F991FAA1FBB1F2A95D1F71A012B011E
:1052D0003DE156944794379427943A95D1F7820D3F
:1052E000931DA41DB51D80839183A283B383E3E046
:1052F000440F551F661F771FEA95D1F7F4014083CD
:1053000051836283738328E330E040E050E0B801CA
:10531000C8010E94F60984E0F501DE01A85ABF4FDA
:1053200001900D928A95E1F784E0F401DE01A45A20
:10533000BF4F01900D928A95E1F7B801CE010E940E
:10534000D4066C01892B09F05EC020E230E040E019
:1053500050E0BE01CE010E94F60980E2FE01D301B9
:1053600001900D928A95E1F787E696EEA9E0BAE6FC
:1053700088839983AA83BB8385E89EEAA7E6BBEB73
:105380008C839D83AE83BF8382E793EFAEE6BCE35D
:1053900088879987AA87BB878AE395EFAFE4B5EA48
:1053A0008C879D87AE87BF878FE792E5AEE0B1E53A
:1053B000888B998BAA8BBB8B8CE898E6A5E0BBE920
:1053C0008C8B9D8BAE8BBF8B8BEA99EDA3E8BFE1F5
:1053D000888F998FAA8FBB8F89E19DECA0EEBBE5EA
:1053E0008C8F9D8FAE8FBF8FF7011082118212823A
:1053F0001382F4011082118212821382F50110824D
:10540000118212821382C601DF91CF911F910F91F9
:10541000FF90EF90DF90CF90BF90AF909F908F90D4
:105420007F906F905F904F903F902F90089580E411
:10543000C82EDD24DA94E7CFCF92DF92EF92FF926D
:105440000F931F93CF93DF93EC017B018C010F5ED1
:105450001E4FF80180819E01205F3E4F690181113E
:1054600013C0F9018081863061F420E430E040E02F
:1054700050E0BE0162597F4FCE010E9498270097ED
:1054800079F581E0F8018083F6018081863089F525
:105490006E01FEEECF0ED11CB601CE010E94DE28B9
:1054A0000097F1F420E430E040E050E0BE016255A6
:1054B0007F4FCE010E949827009791F420E230E0C0
:1054C00040E050E0B601CE010E949827009741F4D9
:1054D000B701CE010E94DE28009711F4F801108276
:1054E000DF91CF911F910F91FF90EF90DF90CF90C0
:1054F000089583E59FEFF4CFFC011182108213829F
:105500001282158214821782168217861686158AD1
:10551000148A178A168A118E108E138E128E158E8B
:10552000148E178E168E11A210A271876087738752
:105530006287605C7F4F758764870895AF92BF92E2
:10554000CF92DF92EF92FF920F931F93CF93DF934F
:105550008C016B017A015901D0E0C0E0D8011296AC
:10556000ED91FC91A5014C1B5D0BB6016C0F7D1FED
:10557000C8011995F80122893389232B59F49C011C
:10558000215031092E3F3F4F40F062E070E0C801EA
:105590000E94590AD0E0C0E005C0C80FD91FCE153F
:1055A000DF05E0F2CE01DF91CF911F910F91FF90C7
:1055B000EF90DF90CF90BF90AF900895FC0184E111
:1055C000DF011D928A95E9F777876687640F751F5B
:1055D000718B608B0895FC01CF019F0123703327ED
:1055E000232BF1F49B012430310508F59B013695FE
:1055F000279536952795F901EE0FFF1FEE0FFF1F38
:10560000E80FF91F4CEF4203C001439F900D112496
:10561000680F791F6E0F7F1FE617F70779F408955B
:1056200061157105E1F3119261507109D5CF1192A5
:1056300011921192119224503109D5CF1192ECCFD1
:10564000CF93DF93EC01FC01E05FFE4F8081863059
:1056500029F46EE670E0CE010E94EB2A62E171E06F
:10566000CE01DF91CF910C94EB2A4F925F926F9213
:105670007F92AF92BF92CF92DF92EF92FF920F9301
:105680001F93CF93DF93EC018B0129013A01672B24
:1056900041F483E59FEF411451046104710409F062
:1056A0009DC07E0182EFE81A8EEFF80AF701C080F4
:1056B000D1805E01F0EFAF1AFEEFBF0AF5018081E5
:1056C000882319F0CE010E94202BFE01EF5EFE4FD1
:1056D000108286E0F501808387E696EEA9E0BAE6BF
:1056E00088839983AA83BB8385E89EEAA7E6BBEB00
:1056F0008C839D83AE83BF8382E793EFAEE6BCE3EA
:1057000088879987AA87BB878AE395EFAFE4B5EAD4
:105710008C879D87AE87BF878FE792E5AEE0B1E5C6
:10572000888B998BAA8BBB8B8CE898E6A5E0BBE9AC
:105730008C8B9D8BAE8BBF8B8BEA99EDA3E8BFE181
:10574000888F998FAA8FBB8F89E19DECA0EEBBE576
:105750008C8F9D8FAE8FBF8FFE01E05AFF4F10825E
:105760001182128213823496108211821282138265
:10577000349610821182128213823496D182C082B2
:10578000F701D182C0827E01FEE6EF0EF11C81E4BA
:10579000481651046104710480F50115110529F0C2
:1057A000A201B801C7010E94D353E0E44E16510490
:1057B00061047104A9F5F701DE01A255BF4FC25182
:1057C000DF4F2CE596E3808182278D9380818927A6
:1057D0008193CA17DB07B9F790E080E0DF91CF91A2
:1057E0001F910F91FF90EF90DF90CF90BF90AF90FF
:1057F0007F906F905F904F900895A3019201B80140
:10580000CE010E949827009749F7B701CE010E9468
:10581000DE28009719F780E2482E512C612C712C5C
:1058200040E450E044195509C701840D951D70E00E
:1058300060E00E94EE53BFCF2F923F924F925F9253
:105840006F927F928F929F92AF92BF92CF92DF9290
:10585000EF92FF920F931F93CF93DF93CDB7DEB7F5
:10586000CD55D1400FB6F894DEBF0FBECDBFFB01C2
:10587000DC011296ED90FC9013972D903C90D9018D
:1058800012966D907C9013978D919C91C85ADE4F23
:1058900099838883C855D140DA016D917C91119725
:1058A00012962D913C91261B370B50E040E0A280D0
:1058B000B380808091806115710561F4BE016D5ED9
:1058C0007E4F80E2FB0111928A95E9F720E230E0F9
:1058D00040E050E08E010F5F1F4F82E191E0D80160
:1058E000FC011D923197E9F7C8010E94352B6C012C
:1058F000892B99F4A818B908950150E040E0B4014B
:10590000C8010E947B286C01892B39F4BE016D5CB3
:105910007E4FC8010E941C2A6C01C8010E94202BE6
:10592000CD2809F09CC081E0CD5ADE4F8883C35555
:10593000D1402114310409F492C0E218F308C701E0
:10594000B0E0A0E0CC5ADE4F88839983AA83BB8362
:10595000C455D1409FE1E922FF2481E090E0A0E01E
:10596000B0E0EF2819F480E090E0DC01CC5ADE4F83
:10597000488159816A817B81C455D14025E0769563
:105980006795579547952A95D1F7840F951FA61FC0
:10599000B71F8F3F9105A105B10511F008F05FC059
:1059A00082E191E0D801FC011D923197E9F7FE01F7
:1059B000ED5EFE4F80E2DF011D928A95E9F7812CB2
:1059C000912C54018F01C85ADE4FE881F981C855E6
:1059D000D1406E1A7F0AC301B0E0A0E0C65ADE4F84
:1059E00088839983AA83BB83CA55D140CC5ADE4FA2
:1059F00088819981AA81BB81C455D14088169906B6
:105A0000AA06BB0640F5CD5ADE4F8881C355D1406A
:105A1000412C512C3201813029F090E2492E512C39
:105A2000612C712CCC5ADE4FC880D980EA80FB8073
:105A3000C455D140C818D908EA08FB0820E230E074
:105A400040E050E0BE016D5C7E4FCE0101960E94A9
:105A5000352B892BF1F0CE0101960E94202BC35AE1
:105A6000DE4F0FB6F894DEBF0FBECDBFDF91CF91F2
:105A70001F910F91FF90EF90DF90CF90BF90AF906C
:105A80009F908F907F906F905F904F903F902F905E
:105A90000895A3019201B801CE0101960E947B28CE
:105AA000892BC9F6C65ADE4F288139814A815B812C
:105AB000CA55D140C85ADE4F68817981C855D14056
:105AC000CE0101960E947B28892B29F621E030E047
:105AD00040E050E0BE016D5A7E4FCE0101960E941B
