:100000000C9449010C9471010C9471010C947101D0
:100010000C9471010C9471010C9471010C94710198
:100020000C9471010C9471010C94DB490C944A4AB4
:100030000C9471010C9471010C9471010C94710178
:100040000C9471010C9471010C9471010C94710168
:100050000C9471010C9471010C9471010C949149F0
:100060000C9471010C9471010C9471010C94710148
:100070000C9471010C9471010C9471010C94710138
:100080000C9471010C9471010C9471010C94710128
:100090000C9471010C9471010C9471010C94710118
:1000A0000C9471010C9471010C947101436F6D619A
:1000B0006E646F20525043206E6F206D616E656AD2
:1000C00061646F3A2049443D3078004572726F7226
:1000D0002064652045737461646F3A203078006D48
:1000E00063756272696467652D763268616E6473E8
:1000F00068616B652D61757468F7BC83F430538457
:1001000024B13298E6AA6FB143EF4D59A149461781
:100110005997479DBC2D1A3CD85468652071756964
:10012000636B2062726F776E20666F78206A756DE0
:100130007073206F76657220746865206C617A79BF
:1001400020646F676B6579BA7816BF8F01CFEA417B
:100150004140DE5DAE2223B00361A396177A9CB4C2
:1001600010FF61F20015AD616263080B000202022C
:100170000000090400000102020000052400100133
:1001800005240101010424020605240600010705D7
:10019000810310004009040100020A000000070565
:1001A0000202400000070583024000000403090426
:1001B00012010002EF0201404123418000010102CF
:1001C000030141726475696E6F204C4C43004172AB
:1001D0006475696E6F2059756E0042726964676557
:1001E0002073696E63726F6E697A61646F20792023
:1001F0006F706572616E646F2E0007060504010062
:10020000080A0B0C0D0900000000240027002A003A
:100210002D00300000000000250028002B002E00DB
:100220003100000000002300260029002C002F00D0
:10023000040404040403040502020202040302028B
:10024000020206060606060604040202020404046C
:1002500008020110408040102040804080080204C5
:10026000018040201002011080102040402000003A
:10027000000200090F0000030401000C0000000050
:100280000000000000000000000000000000F84C2A
:100290001C5411241FBECFEFDAE0DEBFCDBF14E047
:1002A000A0E0B1E0E2ECFBEA02C005900D92A63BB3
:1002B000B107D9F720E1A6EBB4E001C01D92A13A45
:1002C000B207E1F711E0C8E4D1E004C02197FE01D4
:1002D0000E948C55C734D107C9F70E9408520C946C
:1002E000D4550C9400008E5C9B4FFC011082089545
:1002F0000895FF920F931F93CF93DF93D0E0C0E058
:10030000FF24F3942091F6083091F7088091F808C3
:100310009091F908821B930B95958795C817D9077B
:10032000F8F4CE01880F991F280F391FD9010D91BC
:100330001C91D801ED91FC910480F581E02DC8015C
:100340000995672B682B692B49F0D801ED91FC9139
:100350000680F781E02DC8010995F12C2196D2CFB6
:100360008F2DDF91CF911F910F91FF900895EF9204
:10037000FF92CF93DF93DC0130911209809109093C
:10038000831778F5E0900109F090020980E03817B2
:1003900041F1F70190E1E90EF11CE7012697988100
:1003A0009F3FE9F4B183A0834283538364837583C1
:1003B0004FEF5FEFBA01468357836087718782876B
:1003C00093879487258717861686909109099F5FE2
:1003D00090930909DF91CF91FF90EF9008958F5F7F
:1003E000D6CF8FEFF7CFCF92DF92EF92FF92CF93DE
:1003F000DF93EC016A017B01E889F98982E080835F
:10040000C11481EED806E104F104A1F060E079E0C6
:100410008DE390E0A70196010E94565521503109C5
:10042000410951095695479537952795211580E142
:10043000380798F0E889F989108260E874E88EE15D
:1004400090E0A70196010E945655215031094109BB
:1004500051095695479537952795EC85FD8530834D
:10046000EE85FF852083188EEC89FD8986E08083E8
:10047000EA89FB89808180618083EA89FB898081A8
:1004800088608083EA89FB89808180688083EA892B
:10049000FB8980818F7D8083DF91CF91FF90EF90EA
:1004A000DF90CF90089522E030E0FC013683258371
:1004B00026E030E03183208328ED30E1348323834C
:1004C000089528ED30E1FC013383228321E030E000
:1004D0003583248326E030E031832083089528ED9E
:1004E00030E1FC013383228321E030E03583248333
:1004F00026E030E0318320830895FC018091E704F9
:10050000882311F13FB7F89482E08093E9002091AD
:10051000F200822F90E01816190614F481E090E0A2
:10052000882339F0289844E64093E6044091F1008E
:100530004083222339F02091F200211103C02BE6E1
:100540002093E8003FBF08958FEF9FEF08952FB7E6
:10055000F89483E08093E9009091E800892F8072FD
:1005600095FF04C09091F20080E4891B2FBF08958D
:100570008091DE0481110DC082E08093DA0484E072
:100580008093DB041092DD041092DC0481E0809300
:10059000DE048AED94E0089581508F3008F047C062
:1005A000E82FF0E0EA52FD4F0C948C55F302F7026D
:1005B000E502EB02EF02170317031703FA02000329
:1005C000040308030E0317031203809180008F7742
:1005D000809380000895809180008F7DF9CF809175
:1005E0008000877FF5CF84B58F7784BD089584B56B
:1005F0008F7DFBCF809190008F778093900008953E
:10060000809190008F7DF9CF80919000877FF5CF0A
:100610008091C0008F778093C00008958091C000C2
:100620008F7DF9CF8091C200877F8093C2000895AB
:10063000CF93DF93282F30E0F901E259FD4F8491E9
:10064000F901E15BFD4FD491F901E05DFD4FC491EB
:10065000CC23A1F081110E94CC02EC2FF0E0EE0F30
:10066000FF1FEE5DFD4FA591B491EC91ED2381E06C
:1006700090E009F480E0DF91CF91089580E090E070
:10068000FACF1F93CF93DF93282F30E0F901E2597F
:10069000FD4F8491F901E15BFD4FD491F901E05DDB
:1006A000FD4FC491CC23A9F0162F81110E94CC02DA
:1006B000EC2FF0E0EE0FFF1FEC5EFD4FA591B49123
:1006C0008FB7F894EC91111108C0D095DE23DC931C
:1006D0008FBFDF91CF911F910895DE2BF8CFCF937D
:1006E000DF9390E0FC01E15BFD4F2491805D9D4F25
:1006F000FC0184918823C9F090E0880F991FFC01C8
:10070000EA5FFD4FA591B491FC01EC5EFD4FC591F0
:10071000D49161110DC09FB7F8948C9120958223DC
:100720008C938881282328839FBFDF91CF910895E0
:10073000623051F49FB7F8943C91822F80958323C7
:100740008C93E8812E2BEFCF8FB7F894EC912E2B62
:100750002C938FBFEACF823108F08251E82FF0E06E
:10076000E650FE4FE49190917B008E2F880F880F0A
:1007700080729F7D892B80937B00E770E064E0931B
:100780007C0080917A00806480937A0080917A0066
:1007900086FDFCCF809178009091790008953FB755
:1007A000F8948091D6049091D704A091D804B09188
:1007B000D90426B5A89B05C02F3F19F00196A11DAD
:1007C000B11D3FBFBA2FA92F982F8827BC01CD019B
:1007D000620F711D811D911D42E0660F771F881FFA
:1007E000991F4A95D1F70895CF92DF92EF92FF9229
:1007F0000E94CF036B017C010E94CF036C197D091D
:100800008E099F09683E734081059105A8F3FF900A
:10081000EF90DF90CF9008952FB7F8946091D204B5
:100820007091D3048091D4049091D5042FBF089582
:1008300080E090E0892B49F080E090E0892B29F05E
:100840000E94000081110C94000008954091C7049B
:100850005091C8042091C5043091C6044217530733
:10086000B4F49091E8009570E1F39091E80092FD66
:1008700019C08093F1008091C7049091C80401963B
:100880008F739927892B19F48EEF8093E80080915C
:10089000C7049091C80401969093C8048093C7043C
:1008A00081E0089580E00895DF92EF92FF920F9328
:1008B0001F93CF93DF93D82E8A01EB017B01E40EC7
:1008C000F51ECE15DF0559F0D7FE12C0FE0184914A
:1008D0000E94260421968111F4CF0FEF1FEFC8016B
:1008E000DF91CF911F910F91FF90EF90DF900895CE
:1008F0008881EECF0F931F93CF93DF931F92CDB7D5
:10090000DEB782E0898342E450E06AE671E080E885
:100910000E9454040E94B802DC0112960D911C91B1
:100920000115110589F0D801ED91FC910280F38148
:10093000E02DBE016F5F7F4FC801099597FD04C090
:10094000F80100851185ECCF89810F90DF91CF915F
:100950001F910F910895615030F02091F100FC013A
:1009600020830196F8CF289884E68093E6040895C2
:100970008F929F92AF92BF92CF92DF92EF92FF92AF
:100980000F931F93CF93DF936C017B018A018091BA
:100990000B01882309F458C08091E704882309F4E7
:1009A00053C08091CB0480FF05C08091E00082603D
:1009B0008093E000E801B12C8AEFA82E93E0892E05
:1009C0002AE3922E209711F4BB20B9F10E94A702CE
:1009D000811106C0AA94AA20B9F10E94F403F2CFB3
:1009E0008C171D0611F00CF08C2F9FB7F894809295
:1009F000E9002091E80025FD02C09FBFE3CF282F2A
:100A000030E0C21BD30BF701815020F0419140939D
:100A1000F100FACFE20EF31EBB2021F09092E80025
:100A2000B12CEBCF8091E80085FDE7CF9092E800F4
:100A3000BB24B394209709F3F3CF5D9884E68093A9
:100A4000CA04101611063CF081E090E0F601938391
:100A5000828310E000E0C801DF91CF911F910F91D8
:100A6000FF90EF90DF90CF90BF90AF909F908F90CE
:100A70000895CF93DF931F92CDB7DEB76983DC0172
:100A8000ED91FC910280F381E02D41E050E0BE0148
:100A90006F5F7F4F09950F90DF91CF91089583E0AD
:100AA0008093E9008091F200882319F08AE3809313
:100AB000E80008950E94A70290E00895CF93DF9385
:100AC0001F92CDB7DEB7FC018485958597FD08C0E0
:100AD0002FEF3FEF358724870F90DF91CF91089557
:100AE000CE0101960E947D02019719F4898190E060
:100AF000F3CF8FEF9FEFF0CF0F931F93CF93DF9341
:100B00001F92CDB7DEB78C01FC018485958597FFD8
:100B10000BC0CE0101960E947D02019771F489817C
:100B200090E0F80195878487F801848595850F907A
:100B3000DF91CF911F910F9108958FEF9FEFF1CF2C
:100B4000FC018485958597FD0BC09FB7F89482E0E2
:100B50008093E9008091F2009FBF90E00196089594
:100B60009FB7F89482E08093E9008091F2009FBFE4
:100B700090E008952F923F924F925F926F927F92F2
:100B80008F929F92AF92BF92CF92DF92EF92FF929D
:100B90000F931F93CF93DF93CDB7DEB7C253D140EE
:100BA0000FB6F894DEBF0FBECDBF1C019E012F5FB4
:100BB0003E4FC75DDE4F39832883C952D1408096AE
:100BC000F901CF5DDE4F39822882C152D140CF5D1D
:100BD000DE4FA881B981C152D1400D911D912D9157
:100BE0003D91CF5DDE4FB983A883C152D1400193BF
:100BF0001193219331938A179B0749F7FB01CB018E
:100C0000805C9F4FDE0111964191519161917191EC
:100C10004D935D936D937D938E179F07A9F701E028
:100C200010E00C0F1D1F00541F4FFE0131969F0155
:100C300080AD91ADA2ADB3AD448155816681778120
:100C400034964C015D01072E7FE0880C991CAA1C8C
:100C5000BB1C7A95D1F7702D6C017D010B2EB1E193
:100C6000F694E794D794C794BA95D1F7B02D8C2811
:100C70009D28AE28BF286C017D010B2EBDE0CC0C59
:100C8000DD1CEE1CFF1CBA95D1F7B02D2C013D01E7
:100C9000032E33E176946794579447943A95D1F7AD
:100CA000302DC428D528E628F728C824D924EA24DA
:100CB000FB24072E7AE0B695A795979587957A95A8
:100CC000D1F7702DC826D926EA26FB26D90194969D
:100CD0008D909D90AD90BC9097974D905D906D904C
:100CE0007C90840C951CA61CB71CD701C601880DEE
:100CF000991DAA1DBB1D2A013B0127E0769467942C
:100D0000579447942A95D1F76A017B0139E1CC0CBD
:100D1000DD1CEE1CFF1C3A95D1F74C285D286E288F
:100D20007F284A015B012EE0880C991CAA1CBB1C81
:100D30002A95D1F76A017B0132E1F694E794D794C2
:100D4000C7943A95D1F78C289D28AE28BF2848240F
:100D500059246A247B2423E0769567955795479517
:100D60002A95D1F74425552566257725840F951FAB
:100D7000A61FB71F84AF95AFA6AFB7AF0E171F075B
:100D800009F055CFF0E0E0E041E051E04C0F5D1F8D
:100D9000405E5F4FC95DDE4F59834883C752D140E3
:100DA000CF0186529E4FC35DDE4F99838883CD521B
:100DB000D140A1E0B0E0AC0FBD1FAE0FBF1FC55DBD
:100DC000DE4FB983A883CB52D14090E080E0DC01B4
:100DD0001496A770BB27AA0FBB1FAA0FBB1F88249E
:100DE0008394982C8C0E9D1EA80DB91DCD90DD907E
:100DF000ED90FC90DC011696A770BB27AA0FBB1FD5
:100E0000AA0FBB1FA80DB91D2D913D914D915C916D
:100E1000CD5DDE4F288339834A835B83C352D14043
:100E2000C35DDE4FA881B981CD52D1400D911D9196
:100E30002D913D91C35DDE4FB983A883CD52D14042
:100E4000C55DDE4FA881B981CB52D1404D915D91F6
:100E50006D917D91C55DDE4FB983A883CB52D140A2
:100E6000040F151F261F371F2601370156E0769401
:100E70006794579447945A95D1F7B701A601AAE110
:100E8000440F551F661F771FAA95D1F7442955298E
:100E90006629772946015701BBE0B694A794979439
:100EA0008794BA95D1F726013701A5E1440C551C6A
:100EB000661C771CAA95D1F7482859286A287B28F0
:100EC000442655266626772646015701B7E0880C4A
:100ED000991CAA1CBB1CBA95D1F7B701A601A9E1C0
:100EE0007695679557954795AA95D1F74829592939
:100EF0006A297B294426552666267726C95DDE4F5A
:100F0000A881B981C752D1407E916E915E914E9178
:100F1000C95DDE4FB983A883C752D140040F151FA6
:100F2000261F371F040D151D261D371DDC011596C4
:100F3000A770BB27AA0FBB1FAA0FBB1F88248394CF
:100F4000982C8C0E9D1EA80DB91D4D915D916D9133
:100F50007C91CD5DDE4F88809980AA80BB80C35292
:100F6000D140482559256A257B254C215D216E21DC
:100F70007F21482559256A257B25400F511F621F77
:100F8000731FDC01A770BB27AA0FBB1FAA0FBB1FD3
:100F9000AA24A394BA2CAC0EBD1EAA0DBB1D0D91A4
:100FA0001D912D913C91DC011196A770BB27AA0FD2
:100FB000BB1FAA0FBB1FAA0DBB1D4D905D906D906E
:100FC0007C90DC011296A770BB27AA0FBB1FAA0F4B
:100FD000BB1FAA0DBB1D4801590184289528A628CE
:100FE000B728CD90DD90ED90FC908C209D20AE2018
:100FF000BF20402251226222732275016401C4285D
:10100000D528E628F728C15DDE4FC882D982EA825A
:10101000FB82CF52D14028013901ADE0769467942C
:1010200057944794AA95D1F768017901B3E1CC0CA4
:10103000DD1CEE1CFF1CBA95D1F74C285D286E28EC
:101040007F2868017901A2E0F694E794D794C794C9
:10105000AA95D1F748015901BEE1880C991CAA1C38
:10106000BB1CBA95D1F7C828D928EA28FB284C24FC
:101070005D246E247F2468017901AAE0CC0CDD1C7C
:10108000EE1CFF1CAA95D1F7B6E13695279517956A
:101090000795BA95D1F70C291D292E293F294026FD
:1010A000512662267326C15DDE4F88809980AA8012
:1010B000BB80CF52D140840C951CA61CB71CDC0110
:1010C0001396A770BB27AA0FBB1FAA0FBB1FCC2468
:1010D000C394DC2CCC0EDD1EAC0DBD1D0D911D91FD
:1010E0002D913C911397040F151F261F371F0D9349
:1010F0001D932D933C931397840E951EA61EB71E29
:10110000C95DDE4FA881B981C752D1408D929D92B1
:10111000AD92BC9213970197883FBFEF9B0709F0F0
:1011200056CEB096E11521E0F20709F02DCEF1017F
:1011300081919191A191B1911F01C75DDE4FE8812D
:10114000F981C952D1404191519161917191C75D2D
:10115000DE4FF983E883C952D140F1013497840FFF
:10116000951FA61FB71F80839183A283B383CF5D92
:10117000DE4F88809980C152D14082149304B9F621
:1011800090E080E0CE5CDE4F0FB6F894DEBF0FBE7D
:10119000CDBFDF91CF911F910F91FF90EF90DF9026
:1011A000CF90BF90AF909F908F907F906F905F9007
:1011B0004F903F902F900895CF92DF92EF92FF9241
:1011C0000F931F9369017A0122E0F694E794D79474
:1011D000C7942A95D1F7FB01DC0100E010E09801EB
:1011E00061917191819191910E9492556D937D933E
:1011F0008D939D930F5F1F4F2F4F3F4FC016D1060A
:10120000E206F30669F71F910F91FF90EF90DF90D0
:10121000CF900895FC01892BF9F082859385A485F0
:10122000B585892B8A2B8B2BB9F4808591850A97FC
:1012300061F084819581A681B7810196A11DB11DC0
:1012400084839583A683B78308958685882311F0C8
:101250001686EFCF81E086870895DC011E962D91DA
:101260003C911F97232B51F41F967C936E931E97EE
:101270001296ED91FC91309709F009940895DC01E4
:1012800052968D919C915397892BA1F453967C9300
:101290006E9352971E968D919C911F9751969C9399
:1012A0008E9350971496ED91FC911597309711F00D
:1012B000CD0109940895FC0160817181828193813F
:1012C0000E9492550895FC0116821782108611869D
:1012D000428353836483758388E090E091838083A5
:1012E000CF010895FC011682178210861186428371
:1012F00053836483758387E090E091838083CF017B
:101300000895FC011682178210861186428353834A
:10131000648375838AE090E091838083CF01089590
:10132000FC011682178210861186428353836483E0
:10133000758389E090E091838083CF0108950895BB
:1013400008958091E904882361F09FB7F894209173
:10135000E9048091E804213019F48DBB9FBF089502
:101360008FBF0895AF92BF92CF92DF92EF92FF921C
:101370000F931F93CF93DF93EC018091D0058823C7
:1013800009F44AC0288139818A819B81281739074D
:1013900009F442C02091D1059091D2058091E904D1
:1013A000882361F08FB7F8943091E904313051F51A
:1013B0003DB33093E8043DB33DBB8FBF2CBD9DBD15
:1013C0000E940C046B017C01AA80BB8008811981FA
:1013D000A016B106D1F00E940C046C197D098E098B
:1013E0009F09633371058105910578F4F8018081C7
:1013F0008EBD00000DB407FEFDCF8EB5F8018193C0
:101400008F01E6CF8093E804D9CF8A819B81801732
:10141000910729F00E94A10990E080E008C00E9495
:10142000A1098A819B8128813981821B930BDF91DD
:10143000CF911F910F91FF90EF90DF90CF90BF90D1
:10144000AF9008950F931F93FC0180859185A2852D
:10145000B3850097A105B10509F1448155816681E5
:1014600077814F5F5F4F6F4F7F4F44835583668314
:1014700077830485158526853785401751076207D0
:10148000730721F414821582168217820197A1092D
:10149000B10980879187A287B387D7CF1082118245
:1014A0001282138214821582168217821F910F9165
:1014B000089527E133E0FC013183208323E233E008
:1014C0003383228304960C94220A02970C94590ABF
:1014D0000895089508950895DC0115962D913C9185
:1014E0002F3F3F4F51F0DC011396ED91FC9150E0FE
:1014F00040E0BC0182E090E009940895DC0114967C
:101500002D913C912F3F3F4F51F0DC011296ED9110
:10151000FC9150E040E0BC0182E090E00994089525
:1015200029E533E0FC013183208325E633E0338372
:10153000228304960C94220A02970C94900A089530
:1015400008950895CF92DF92EF92FF920F931F9329
:10155000CF93DF937C018B01EA0161157105C1F026
:101560002097C1F06B01C40ED51ED0E0C0E0C016BC
:10157000D10681F0D701ED91FC910190F081E02D31
:10158000D8016D918D01C7010995C80FD91FEFCF03
:10159000D0E0C0E0CE01DF91CF911F910F91FF907D
:1015A000EF90DF90CF90089590E080E008950F9342
:1015B0001F93CF93DF938C01EB01E881F9810480C5
:1015C000F581E02DCB010995813049F0D8011596C0
:1015D0008D919C910097F9F4F801828110C09A8155
:1015E0009F3F29F1D8011396ED91FC91A385B48515
:1015F00025853685A217B30739F4808B80E0DF910B
:10160000CF911F910F9108959D012F5F3F4F348718
:1016100023879C93F3CFDC01ED91FC910480F5814D
:10162000E02DBE01DF91CF911F910F91099481E0D0
:10163000E6CF0F931F93CF93DF938C01EB01E881EB
:10164000F9810480F581E02DCB010995D801813025
:1016500041F015968D919C91009771F4F80182816B
:1016600006C01396ED91FC918A81878782E0DF9115
:10167000CF911F910F910895DC01ED91FC910480B1
:10168000F581E02DBE01DF91CF911F910F9109945B
:101690000F931F93CF93DF938C01EB01E881F981C6
:1016A0000480F581E02DCB010995813049F0D80106
:1016B00015968D919C910097C9F5F80182811BC008
:1016C000F801A381B4811F968C911F978F3FC1F0C1
:1016D00090E002961B96ED91FC911C971D962D9122
:1016E0003C911E972E1B3F0B2817390760F481E0B1
:1016F00050968C9380E0DF91CF911F910F910895C8
:1017000081E090E0E7CF9F01280F391F4A81419384
:101710002E173F07D9F71B962D913C911C97820FEE
:10172000931F1C969C938E931B97E4CFDC01ED9145
:10173000FC910480F581E02DBE01DF91CF911F91D6
:101740000F910994089508950895089561E080E047
:101750000E946F0360E080E00E94410361E081E04D
:101760000E946F0360E081E00E94410361E082E03B
:101770000E946F0360E082E00E94410361E083E029
:101780000E946F0360E083E00E94410361E084E017
:101790000E946F0360E084E00E94410361E085E005
:1017A0000E946F0360E085E00E94410361E086E0F3
:1017B0000E946F0360E086E00E94410361E087E0E1
:1017C0000E946F0360E087E00E94410361E088E0CF
:1017D0000E946F0360E088E00E94410361E089E0BD
:1017E0000E946F0360E089E00E94410361E08AE0AB
:1017F0000E946F0360E08AE00E94410361E08BE099
:101800000E946F0360E08BE00E94410361E08CE086
:101810000E946F0360E08CE00E94410361E08DE074
:101820000E946F0360E08DE00E94410361E08EE062
:101830000E946F0360E08EE00E94410361E08FE050
:101840000E946F0360E08FE00E94410361E080E14D
:101850000E946F0360E080E10E94410361E081E14A
:101860000E946F0360E081E10E94410361E082E138
:101870000E946F0360E082E10E94410361E083E126
:101880000E946F0360E083E10C94410391E0843196
:1018900008F090E0892F0895CF93DF93EB01DC01EE
:1018A000ED91FC910480F581E02D0995863031F4AD
:1018B00085E0888381E0DF91CF91089580E0FBCFC0
:1018C000CF93DF93EB01DC01ED91FC910480F58176
:1018D000E02D0995833029F4188281E0DF91CF91C2
:1018E000089580E0FBCFCF93DF93EB01DC01ED9116
:1018F000FC910480F581E02D0995873029F4188248
:1019000081E0DF91CF91089580E0FBCFEF92FF92CD
:101910000F931F93CF93DF931F92CDB7DEB77C0158
:101920008B01DB01ED91FC910480F581E02DCB0171
:1019300009958823F9F0BE016F5F7F4FC8010E94AF
:10194000730C811119C0BE016F5F7F4FC8010E94E7
:10195000600C811111C0BE016F5F7F4FC8010E94F2
:101960004C0C811109C0F70185819681009781F4A3
:10197000828116C081E0898389818E3FA1F38981AC
:101980000F90DF91CF911F910F91FF90EF900895ED
:10199000DC01ED91FC910480F581E02DB801099501
:1019A0008983EDCFEF92FF920F931F93CF93DF9335
:1019B0001F92CDB7DEB77C018B01DB01ED91FC916D
:1019C0000480F581E02DCB0109958130F9F0BE014D
:1019D0006F5F7F4FC8010E94730C811119C0BE0157
:1019E0006F5F7F4FC8010E94600C811111C0BE0162
:1019F0006F5F7F4FC8010E944C0C811109C0F70135
:101A000085819681009781F4828116C082E0898366
:101A100089818E3FA1F389810F90DF91CF911F9132
:101A20000F91FF90EF900895DC01ED91FC910480FF
:101A3000F581E02DB80109958983EDCFEF92FF92F2
:101A40000F931F93CF93DF931F92CDB7DEB77C0127
:101A50008B01DB01ED91FC910480F581E02DCB0140
:101A600009958230F9F0BE016F5F7F4FC8010E9477
:101A7000600C811119C0BE016F5F7F4FC8010E94C9
:101A8000730C811111C0BE016F5F7F4FC8010E94AE
:101A90004C0C811109C0F70185819681009781F472
:101AA000828116C083E0898389818E3FA1F3898179
:101AB0000F90DF91CF911F910F91FF90EF900895BC
:101AC000DC01ED91FC910480F581E02DB8010995D0
:101AD0008983EDCFEF92FF920F931F93CF93DF9304
:101AE0001F92CDB7DEB77C018B01DB01ED91FC913C
:101AF0000480F581E02DCB0109958430F9F0BE0119
:101B00006F5F7F4FC8010E94730C811118C0BE0126
:101B10006F5F7F4FC8010E94600C811110C0BE0131
:101B20006F5F7F4FC8010E944C0C811108C0F70104
:101B300085819681009779F4828115C08983898196
:101B40008E3FA9F389810F90DF91CF911F910F9163
:101B5000FF90EF900895DC01ED91FC910480F581F8
:101B6000E02DB80109958983EDCFEF92FF920F9395
:101B70001F93CF93DF931F92CDB7DEB77C018B010C
:101B8000DB01ED91FC910480F581E02DCB010995FD
:101B90008530F9F0BE016F5F7F4FC8010E944C0C89
:101BA000811119C0BE016F5F7F4FC8010E94730C85
:101BB000811111C0BE016F5F7F4FC8010E94600C90
:101BC000811109C0F70185819681009781F4828196
:101BD00016C083E0898389818E3FA1F389810F90AC
:101BE000DF91CF911F910F91FF90EF900895DC014D
:101BF000ED91FC910480F581E02DB8010995898370
:101C0000EDCFEF92FF920F931F93CF93DF931F922D
:101C1000CDB7DEB78C017B01BE016F5F7F4FC7017F
:101C20000E94730C882319F089818E3F79F4D801C2
:101C300015968D919C91009791F0DC01ED91FC91AE
:101C40000480F581E02DB7010995898389810F9082
:101C5000DF91CF911F910F91FF90EF900895F801C0
:101C60008281F3CF0895089581E0089580E008957A
:101C700081E00895EF92FF920F931F93CF93DF932C
:101C800000D0CDB7DEB7DC0114962C91621719F0A5
:101C90006D3F09F03FC08C01FC01A081B1815096DD
:101CA000ED90FC90DA018D919C919A838983DC01FF
:101CB000ED91FC910084F185E02D0995DC01ED9119
:101CC000FC910680F781E02D0995BE016F5F7F4F83
:101CD000C801F701099589819A810097D9F0DC0143
:101CE000ED91FC910084F185E02D0995DC01ED91E9
:101CF000FC910084F185E02D0995672B682B692BF9
:101D000049F489819A81DC01ED91FC910484F58587
:101D1000E02D09950F900F90DF91CF911F910F91BA
:101D2000FF90EF9008950F931F93CF93DF93EC01F3
:101D3000E881F98104811581DB018D919C91DC01A1
:101D4000ED91FC910480F581E02D0995BC01CE0157
:101D5000F801DF91CF911F910F910994DC01149646
:101D60003C91631711F06D3F41F4DC01ED91FC9162
:101D70000480F581E02DBA01099408958F929F9215
:101D8000AF92BF92CF92DF92EF92FF920F931F9389
:101D9000CF93DF936417750709F485C0FB01A19108
:101DA000BF01FC0100811181228133816801790129
:101DB00022E0F694E794D794C7942A95D1F70A279E
:101DC000037024E0029FF0011124E858FE4F0081C7
:101DD000118122813381C026D126E226F3262A2FC3
:101DE00030E046015701E2E0B694A79497948794B7
:101DF000EA95D1F7E901D595C795D595C795CC2535
:101E0000C370A4E0CA9FF0011124E858FE4FC080BF
:101E1000D180E280F3808C249D24AE24BF24750100
:101E20006401A2E0F694E794D794C794AA95D1F7F9
:101E3000D901C4E0B595A795CA95E1F7A825A37087
:101E4000E4E0AE9FD0011124A858BE4F8D909D9024
:101E5000AD90BC90C824D924EA24FB244601570144
:101E6000D2E0B694A79497948794DA95D1F716E0C8
:101E7000359527951A95E1F7E22FEC25E37024E0DC
:101E8000E29FF0011124E858FE4F00811181228168
:101E90003381082519252A253B25FC010083118360
:101EA0002283338377CFDF91CF911F910F91FF90E2
:101EB000EF90DF90CF90BF90AF909F908F9008955C
:101EC00080E0089581E0089582E0089583E0089518
:101ED00084E0089585E0089586E0089587E00895F8
:101EE0000895089508950895029738F485E0FA0159
:101EF000DB0101900D928A95E1F70895029738F47D
:101F00008CE0FA01DB0101900D928A95E1F70895CA
:101F1000FB01DA01009719F0019709F008958C91FF
:101F2000808311968D919C91129792838183139651
:101F30008D919C9114979483838315968D919C9198
:101F400016979683858317968D919C911897908705
:101F5000878319968D919C91928781870895FB01C3
:101F6000DA01009719F0019709F008958D919C917D
:101F700011979183808312968D919C9113979383EF
:101F8000828314968D919C911597958384831696E0
:101F90008D919C91978386830895029730F4FA017E
:101FA00080819181FB01918380830895029720F4C1
:101FB000FA018081FB0180830895029740F4FA01C1
:101FC00080819181A281FB0180839183A283089506
:101FD000029730F4FA0180819181FB019183808323
:101FE00008950C94E80FFB01DA01009719F00197AE
:101FF00009F008958D919C91119791838083129699
:102000008D919C919383828308950C94F30F0C948B
:10201000F30F0C94F30F0C94F30F0C94F30F0C9438
:10202000F30F0C94F30F029738F480E2FA01DB010E
:1020300001900D928A95E1F70895029750F4FA0104
:1020400080819181A281B381FB0180839183A283EE
:10205000B38308950C941D100C941D100C941D1046
:102060000895DC0116962D913C912F3F3F4F51F082
:10207000DC011496ED91FC9150E040E0BC0182E05F
:1020800090E009940895FC01DB018C91A681B78151
:1020900022813381A20FB31F8C9382819381019699
:1020A00093838283208131818217930711F41382F5
:1020B000128282819381448155818417950749F466
:1020C00001962817390719F095838483089515829E
:1020D00014820895EF92FF920F931F93CF93DF9393
:1020E0001F92CDB7DEB71092E2051092E105109273
:1020F000E4051092E305FC0100811181E280F38088
:102100000E151F0509F1F80181918F0189838091D6
:10211000E1059091E20501962091DF053091E005FF
:102120008217930711F490E080E02091E30530914D
:10213000E4052817390721F3BE016F5F7F4F8FED4C
:1021400095E00E944310DCCF0F90DF91CF911F915B
:102150000F91FF90EF900895CF93DF93EB010097DD
:1021600029F0019719F0DF91CF91089587E0FA01E6
:10217000DE0101900D928A95E1F7FA018781908541
:1021800098878F83818592859A87898783859485AF
:10219000A585B6858B879C87AD87BE87E4CF0297E0
:1021A00030F4FA0180819181FB019183808308954D
:1021B0000C94CF10029730F4FA0180819181FB01D9
:1021C000918380830895029720F4FA018081FB01B6
:1021D00080830895DC0192962D913C912F3F3F4FD3
:1021E00051F0DC019096ED91FC9150E040E0BC0193
:1021F00082E090E009940895DC0151962D913C9184
:102200002F3F3F4F51F0DC011F96ED91FC9150E0C4
:1022100040E0BC0182E090E009940895DC01129650
:10222000ED91FC91309741F0DB016C91DC018D91D7
:102230009C91099581E0089580E008959FB7F894F6
:102240008091C404882319F081508093C404809144
:10225000C404811105C08CB58F7B8CBD1092E9043C
:102260009FBF1092D0050895CF93CFB7F894809177
:10227000C404811127C0E1E4F2E08491E0E6F2E0D9
:102280009491E82FF0E0EE0FFF1FEA5FFD4FA5915C
:10229000B491EC91E92321F461E081E10E944103D2
:1022A00061E081E10E946F038CB580618CBD8CB5CB
:1022B00080648CBD61E08FE00E946F0361E080E18B
:1022C0000E946F038091C4048F5F8093C404CFBFCA
:1022D00081E08093D005CF910895640F751F461754
:1022E000570739F0FC012191CF01FA012193AF0189
:1022F000F6CFCA010895A89508950E94A60B87E716
:1023000097E7909301088093000888E198E00FB662
:10231000F894A895809360000FBE90936000F7CF6B
:1023200040919006509191066091920670919306AB
:10233000411551056105710581F080917A069091F2
:102340007B06009711F00E94F30110929006109204
:1023500091061092920610929306089510920A0C1C
:102360001092090C10920C0C10920B0C0895089509
:10237000089502960C94220A04960C94220AFC01F9
:1023800015821482178216820895FC011782168224
:10239000118610860895089502960C94220A0496D8
:1023A0000C94220A0895FC0192819E7F92830895E5
:1023B000FC0190899E7F908B0895FC01848181604F
:1023C00084831086178212861186E25BFF4F82811A
:1023D0009381958384830895FC0180898160808B3B
:1023E000148A138A168A158AE65AFF4F82819381CE
:1023F00095838483089561E070E080E090E0089523
:10240000DC01ED91FC91119712968D919C9113979F
:102410008E179F0731F011928E179F07E1F78D916C
:102420009C910895CF93DF93EA01DB01A20FB31FC4
:10243000FC0186819781823D944039F4FB01EA17C3
:10244000FB0749F081918993FACF6A177B0719F04E
:102450008E918993FACFDF91CF910895EF92FF92F9
:102460000F931F93CF93DF9300D0CDB7DEB77C01DE
:102470008B01FC01118210821282FB016281738147
:10248000808191819B01281B390B84819581821B5E
:10249000930B0297A8F022E030E0AE014F5F5F4F50
:1024A000C8010E941212F8018281938102969383DF
:1024B000828389819A81F7019183808381E082837D
:1024C000C7010F900F90DF91CF911F910F91FF9057
:1024D000EF900895EF92FF920F931F93CF93DF93A6
:1024E00000D000D0CDB7DEB78C017B01DC011296A5
:1024F0008D919C9113979C01260F371F1A96ED9191
:10250000FC911B97309759F09A8389833C832B83E6
:10251000BE016F5F7F4F18968D919C910995F801D0
:10252000628173816E0D7F1D738362830F900F90A4
:102530000F900F90DF91CF911F910F91FF90EF902F
:102540000895CF93FC01A281B381808191819D0187
:10255000281B390B84819581821B930B9695879557
:10256000C1E0009709F4C0E0892B69F0868197816A
:10257000823D944059F07C9311966C93CF0162E0B8
:1025800070E00E946A128C2FCF9108956C9311967F
:102590007C93F4CF0F931F93CF93DF93CDB7DEB728
:1025A0002C970FB6F894DEBF0FBECDBF8C01DB01B8
:1025B000ED91FC91119712968D919C918E1B9F0B22
:1025C000FA83E983FC83EB839E838D8321EE30E1E4
:1025D00038872F831A8619861C861B86892B49F01B
:1025E000D8018C91808361E070E0CE0101960E9459
:1025F0006A12F80161817281CE0101960E94A112D6
:10260000D80113966D917C91CE0101960E94A11282
:10261000F80165817681CE0101960E94A1122C9667
:102620000FB6F894DEBF0FBECDBFDF91CF911F91E3
:102630000F910895CF93DF93CDB7DEB7A0970FB674
:10264000F894DEBF0FBECDBFFE01319620E2DF0160
:102650001D922A95E9F740E050E167E070E0498774
:102660005A876B877C8741E050E0BA014D875E87CF
:102670006F87788B48E050E061E070E0498B5A8BBF
:102680006B8B7C8B40E050E069E170E04D8B5E8BA2
:102690006F8B788F8F3F910509F020F59C0145E005
:1026A000369527954A95E1F7220F331F220F331FE6
:1026B000E20FF31F9C012F71332780819181A2814A
:1026C000B38104C0B695A795979587952A95D2F7BB
:1026D0008170A0960FB6F894DEBF0FBECDBFDF911C
:1026E000CF91089580E0F5CF8FEF08950F931F935A
:1026F000CF93DF93DC0113968D919C91149720E189
:10270000629FF0011124E80FF91F54852C912613C4
:102710003CC05C93238511968C91119786133FC022
:1027200011962C931197411121C084858F3FF1F0B0
:1027300020E1829FC001112413960D90BC91A02D21
:10274000A80FB91F16964D915D916D917C911997C7
:102750000681178120853185400F511F621F731F2D
:1027600016964D935D936D937C9319978FEF8387A6
:1027700084878FEF9FEFDC0186839783A087B187E3
:10278000DF91CF911F910F910895238570E1279FCD
:1027900090011124820F931FEC015C87BBCFC4858D
:1027A000D0E1CD9FC00111241396CD91DC911497F7
:1027B000C80FD91F2B87B7CF0F931F93CF93DF93EA
:1027C000DC0120E1629FC00111241396ED91FC9180
:1027D0001497E80FF91F8C918F3F51F46C93119669
:1027E0006C9383878487DF91CF911F910F91089518
:1027F00012968C93129760E1869FC0011124139664
:10280000CD91DC911497C80FD91F468157816085FF
:1028100071850E811F8128853985041715072607C4
:10282000370760F19A858C91981302C082858C934A
:102830008B85838782858B878A8584874E815F819C
:10284000688579850681178120853185401B510B6C
:10285000620B730B4E835F836887798783858F3F15
:1028600011F24285C0E18C9FC001112413962D9175
:102870003C91820F931FFC014487B5CF401B510B45
:10288000620B730B468357836087718713962D9174
:102890003C911497820F931FEC018C8512968C93B8
:1028A00012978F3F09F0A7CF928511964C911197FF
:1028B000D0E14D9FA0011124240F351FE9019C8711
:1028C00011969C91119793878487828511968C939A
:1028D0008ACFCF92DF92EF92FF920F931F93CF9305
:1028E000DF936F3F09F44FC020E1629FB0011124D4
:1028F000FC01C081D181C60FD71F2A852F3F09F463
:1029000042C04A815B816C817D814F3F5F4F6F4F39
:102910007F4FC9F18C01F8946C0122E0C20ED11CEA
:102920007E018AE0E80EF11C8E819F81A885B98521
:102930008F3F9F4FAF4FBF4F51F040E06A85C601B8
:102940000E947613B701C8010D960E940E118A816C
:102950009B81AC81BD818E839F83A887B9876A855F
:10296000C6010E94DC13B701C80109960E940E112E
:10297000789481E0DF91CF911F910F91FF90EF90BC
:10298000DF90CF90089580E0F5CF0F931F93CF9302
:10299000DF936F3F31F120E1629FB0011124FC0110
:1029A000C081D181C60FD71F2A852F3FD1F04E811C
:1029B0005F81688579854F3F5F4F6F4F7F4F79F01B
:1029C0008C01F89440E06A8502960E947613BE015D
:1029D000665F7F4FC8010D960E940E11789481E0CA
:1029E00001C080E0DF91CF911F910F910895FC010C
:1029F0002281338144815581C9012417350720F490
:102A000080819181820F931F841B950B08954196BD
:102A10000C94F7142091BC0421110BC01092B9043E
:102A20001092B8041092BB041092BA0421E02093D3
:102A3000BC04E091BA04F091BB04309731F0BC01C2
:102A40008091B8049091B90409940895EF92FF928F
:102A50000F931F93CF93DF9300D000D0CDB7DEB795
:102A60008C017B01DC0112968D919C91892B61F484
:102A700085E394E09A8389838EE791E09C838B833E
:102A8000CE0101960E940A15D8011296ED91FC9193
:102A9000D7018D919C9111979A83898312968D917C
:102AA0009C919C838B83BE016F5F7F4FD8018D917A
:102AB0009C9109950F900F900F900F90DF91CF91FF
:102AC0001F910F91FF90EF900895CF93DF9300D067
:102AD00000D0CDB7DEB7FC01858196810197A9F0C2
:102AE00089E394E09A83898386EA92E09C838B83CE
:102AF000CE0101960E940A1580E090E00F900F90A1
:102B00000F900F90DF91CF910895CF01F7CF0F93E2
:102B10001F93CF93DF9300D000D0CDB7DEB78C01E9
:102B2000FC0122813381848195812817390761F462
:102B30008DE394E09A83898389EC93E09C838B8373
:102B4000CE0101960E940A15F801848195810196B3
:102B500095838483208131818217930711F4158234
:102B600014820F900F900F900F90DF91CF911F91D3
:102B70000F910895CF93DC0155962D913C91569776
:102B800053964D915C9154974217530769F05796AD
:102B9000ED91FC91E20FF31FC08141960E948715D1
:102BA0008C2F90E0CF9108958FEF9FEFFBCFDC014A
:102BB00055968D919C91569753962D913C91549793
:102BC0002817390741F05796ED91FC91E80FF91F4E
:102BD000808190E008958FEF9FEF08950F931F93EA
:102BE000CF93DF9300D000D0CDB7DEB78C01DC01EE
:102BF0008D919C91892B61F481E494E09A8389837F
:102C00008CE592E09C838B83CE0101960E940A158D
:102C1000D801ED91FC9182810F900F900F900F9051
:102C2000DF91CF911F910F9108953F924F925F9244
:102C30006F927F928F929F92AF92BF92CF92DF92CC
:102C4000EF92FF920F931F93CF93DF9300D000D0AA
:102C5000CDB7DEB78C016A01DC0118967C936E93C8
:102C6000179719964C93312C91E4492E94E0592EE4
:102C70002DEE622E7724739435E4A32E34E0B32E28
:102C80004EEE842E99249394E32CF12CEC14FD0445
:102C9000A0F5EE0CFF1CD8011796ED91FC91EE0DFE
:102CA000FF1D80819181892B41F45A8249827C8267
:102CB0006B82CE0101960E940A15D8011796ED91FC
:102CC000FC91EE0DFF1D0190F081E02D8281381600
:102CD00041F0BA82A9829C828B82CE0101960E9429
:102CE0000A15F80187819085E80EF91ED701ED914C
:102CF000FC91148303833394C7CF0F900F900F90F0
:102D00000F90DF91CF911F910F91FF90EF90DF9087
:102D1000CF90BF90AF909F908F907F906F905F907B
:102D20004F903F9008950F931F93CF93DF9300D060
:102D300000D0CDB7DEB78C01FC0186819781019769
:102D400061F089E494E09A8389838CEE94E09C831B
:102D50008B83CE0101960E940A15C8010F900F9037
:102D60000F900F90DF91CF911F910F910895CF9306
:102D7000DF9300D000D0CDB7DEB7FC018481958110
:102D80000197A9F089E394E09A83898386EA92E027
:102D90009C838B83CE0101960E940A1580E090E00F
:102DA0000F900F900F900F90DF91CF910895CF016A
:102DB000F7CFCF93DF9300D000D0CDB7DEB7FC01C3
:102DC0002681378121303105A9F089E394E09A8387
:102DD000898386EA92E09C838B83CE0101960E94D0
:102DE0000A1590E080E00F900F900F900F90DF9108
:102DF000CF9108950E949316F6CF0F931F93CF9310
:102E0000DF9300D000D0CDB7DEB78C01FC01868106
:102E10009781019761F089E494E09A8389838CEE2D
:102E200094E09C838B83CE0101960E940A15C80111
:102E30000F900F900F900F90DF91CF911F910F91F6
:102E400008950F931F93CF93DF9300D000D0CDB799
:102E5000DEB78C01FC0184819581019761F089E4E2
:102E600094E09A8389838CEE94E09C838B83CE01DB
:102E700001960E940A15C8010F900F900F900F90B5
:102E8000DF91CF911F910F9108952F923F924F9212
:102E90005F926F927F928F929F92AF92BF92CF92EA
:102EA000DF92EF92FF920F931F93CF93DF93CDB7F3
:102EB000DEB72D970FB6F894DEBF0FBECDBF4FB66D
:102EC0004D82F8947C0123EAE21A2AEFF20AD70134
:102ED00018964D905D906D907C901B974A865B860E
:102EE0006C867D86812C912C540165E5262E64E04C
:102EF000362E8C01075B1B4F4A845B846C847D8477
:102F0000481459046A047B0409F4B6C0F7018085AB
:102F10009185A285B385892B8A2B8B2B09F473C0ED
:102F20008481958153E0880F991F5A95E1F70088B5
:102F3000F189E02DE80FF91FC480D580C114D104B8
:102F400009F44CC0D8018D919C911197F601E81BB2
:102F5000F90BCF01F7FD17C050964D915D916D9122
:102F60007C91539741505109610971091C96ED916B
:102F7000FC91E49F9001E59F300DF49F300D1124EA
:102F80002817390784F43DE4432E34E0532E5A8247
:102F9000498247E5642E42E0742E7C826B82CE012A
:102FA00001960E940A15F80184819581A681B78156
:102FB000892B8A2B8B2B69F182819381D6018D938A
:102FC0009C93D382C28284819581A681B781019727
:102FD000A109B10984839583A683B783F70180850E
:102FE0009185A285B3850097A105B10519F53A82AF
:102FF00029828FEC482E552453945C824B82CE015B
:1030000001960E940A15FFEF8F1A9F0AAF0ABF0AA6
:1030100073CF91E5492E94E0592E5A82498224E6D5
:10302000622E22E0722E7C826B82CE0101960E947B
:103030000A15D4CF44815581668177814F5F5F4FF8
:103040006F4F7F4F448355836683778344845584D1
:1030500066847784441555056605770521F4148246
:103060001582168217820197A109B109F70180879D
:103070009187A287B387C7CF4D804FBE2D960FB6DD
:10308000F894DEBF0FBECDBFDF91CF911F910F919E
:10309000FF90EF90DF90CF90BF90AF909F908F9078
:1030A0007F906F905F904F903F902F9008958F92F8
:1030B0009F92AF92BF92CF92DF92EF92FF920F93C7
:1030C0001F93CF93DF93CDB7DEB7C057D1090FB6AB
:1030D000F894DEBF0FBECDBF5C01ECE4F0E0EC0F76
:1030E000FD1F3A9685E0DF011D928A95E9F782E09F
:1030F0002D968FAF2D97F9018281938120813181A7
:10310000FC01E21BF30B2F96FFAFEEAF2F976196FA
:103110007FAF6EAF619763965FAF4EAF6397659673
:103120003FAF2EAF659767969FAF8EAF6797A0961C
:103130001FAEA0978FEF9FEFDC016F968CAF9DAF16
:10314000AEAFBFAF6F978E010F5F1F4FA9961FAF36
:103150000EAFA9977E01F8E0EF0EF11CAB96FFAE23
:10316000EEAEAB97BE0169597F4FCE01845B9F4F96
:103170000E94CA12A701B801CE01855A9F4F0E9432
:10318000BE0E67964EAD5FAD679765966EAD7FAD2F
:103190006597CE01855A9F4F0E94BE0E6F968CADEB
:1031A0009DADAEADBFAD6F9780959095A095B09554
:1031B0006B968CAF9DAFAEAFBFAF6B9767968EAD82
:1031C0009FAD679765962EAD3FAD6597821B930BBC
:1031D0000B968C34910508F089C06D961FAF0EAF29
:1031E0006D976F96FFAEEEAE6F97BE01655A7F4F3B
:1031F000CE01845B9F4F0E94CA1265968EAD9FAD33
:10320000659767966EAD7FAD6797681B790BA701D1
:103210000E946D116796EEADFFAD679765968EAD16
:103220009FAD6597E81BF90B3796E00FF11F6D9680
:10323000FFAFEEAF6D976F96FFAFEEAF6F9784E085
:1032400090E0A1969FAF8EAFA19781EE90E1A396FB
:103250009FAF8EAFA397A5961FAE1EAEA597A7965C
:103260001FAE1EAEA797CE0183599F4F6B964CADF4
:103270005DAD6EAD7FAD6B97DC014D935D936D934E
:103280007D932E912193A817B907D9F764E070E0D8
:10329000CE01855A9F4F0E946A126796EEACFFAC32
:1032A000679765968EAD9FAD6597E81AF90A970105
:1032B000255F3F4FD9F04801820E931E081519056E
:1032C00049F581E090E0AD969FAF8EAFAD97A9969E
:1032D0001FAE1EAEA9978AED90E1AB969FAF8EAF61
:1032E000AB97CE0189599F4F0E947E0AC059DF4F8C
:1032F0000FB6F894DEBF0FBECDBFDF91CF911F9107
:103300000F91FF90EF90DF90CF90BF90AF909F9084
:103310008F900895C9016EEF70E00E947855C70143
:103320000C96680F791F650189EDC81A8DEFD80AD0
:10333000F601A081B181828193818A1B9B0B861744
:10334000970768F482E090E0AD969FAF8EAFAD979F
:1033500081E0A8968FAFA89783EE90E1BECFF501EC
:10336000A080B180F80181918F018D938E169F0608
:10337000C9F7D6014D915C911197FA01E20FF31F45
:103380008F0112968D919C918E1B9F0B861797072C
:1033900008F043C082E090E0A1969FAF8EAFA19766
:1033A00081E06C968FAF6C9783EE90E16F969FAF44
:1033B0008EAF6F97A1968EAD9FADA197813091058D
:1033C00009F45DC0029789F089E494E0A9969FAF63
:1033D0008EAFA9978CEE94E0AB969FAF8EAFAB9774
:1033E000CE0189599F4F0E940A156C968FAD6C973C
:1033F00022E030E0AD963FAF2EAFAD97A8968FAFED
:10340000A89783EE90E1AB969FAF8EAFAB97CE01BE
:10341000855A9F4F0E947E0A64CF4F01BFEF8B1ADF
:103420009B0ABF0191E064177507C1F0DA018D9125
:10343000AD0194012F5F3F4F811105C09083F401CE
:1034400091E04901F0CFD4018C939F5F9F3FC9F772
:103450009083F90194012E5F3F4FF2CF908381E07A
:1034600090E0A1969FAF8EAFA197D401A01BB10BA6
:103470006D96BFAFAEAF6D978AED90E197CFCE015D
:10348000855A9F4F0E942117FC0100811181D601AE
:103490008D919C91E80EF91E6701D501ED91FC918B
:1034A0000190F081E02DC7018C199D0980179107CB
:1034B00048F4D7011B966C91C5010995BFEFEB1A33
:1034C000FB0AEBCF60E0C501099581E090E0AD9685
:1034D0009FAF8EAFAD970F5F1F4FA9961FAF0EAF77
:1034E000A9978AED90E18FCFFF920F931F93CF930F
:1034F000DF9300D000D0CDB7DEB7FFB6F894DC0183
:10350000A35ABA4F18964D915D916D917C911B977E
:10351000452B462B472B61F18C0114968D919C9184
:10352000159723E0880F991F2A95E1F75096ED91A2
:10353000FC91E80FF91F26813781848195819A8358
:103540008983820F931F9C838B8342815381608187
:1035500071819E012F5F3F4FC8010E945718F801EB
:10356000E551FD4F6081C80187579D4F0E94691446
:10357000FFBE0F900F900F900F90DF91CF911F9192
:103580000F91FF9008952F923F924F925F926F920A
:103590007F928F929F92AF92BF92CF92DF92EF92E3
:1035A000FF920F931F93CF93DF93CDB7DEB72A9788
:1035B0000FB6F894DEBF0FBECDBF6C010E940C04A5
:1035C0002B013C01F60186819781A085B185892B6D
:1035D0008A2B8B2B21F44682578260867186F601F6
:1035E00086819781A085B18553014201881A990A85
:1035F000AA0ABB0A09F47EC084819581FC01E757C1
:10360000FD4F2781222309F46EC09C0125573D4FB1
:103610003E832D83D9018C918F3F09F464C01F0133
:10362000B2E02B0E311C255F3F4F38872F83CF012F
:1036300009969A878987AD81BE810C91B0E10B9F75
:10364000C0011124ED81FE8103811481080F191F2F
:10365000F80186819781A085B18588169906AA060A
:10366000BB0608F487C0881A990AAA0ABB0A41E077
:103670006285C1010E9476137801FAE0EF0EF11C19
:10368000B7018F8198850E940E11D8011D968C91EB
:103690001D978823A1F012968D919D910D90BC915C
:1036A000A02DF80186839783A087B1876285C10129
:1036B0000E94DC13B70189859A850E940E11D801FA
:1036C000ED90FC901197E114F10439F01E968D9164
:1036D0009C91009741F5F7010995ED81FE8180816C
:1036E0008F3F09F0A8CFD60116964D925D926D924C
:1036F0007C9219972A960FB6F894DEBF0FBECDBF05
:10370000DF91CF911F910F91FF90EF90DF90CF90BD
:10371000BF90AF909F908F907F906F905F904F90F1
:103720003F902F9008958130910549F4D701ED9194
:10373000FC910480F581E02DC7010995CECF029759
:1037400061F6F70182819381892B61F425E334E0EE
:103750003A8329838EE791E09C838B83CE01019687
:103760000E940A15D7011296ED91FC9113978D9145
:103770009C91E3CF88199909AA09BB09868397838D
:10378000A087B187B0CFEF92FF920F931F93CF9393
:10379000DF9300D000D0CDB7DEB78C016D3FB1F420
:1037A000DC0115968D919C91DC01ED91FC910084DA
:1037B000F185E02D0995F80185819681DC01ED9177
:1037C000FC910680F781E02D0995682FD8011596A8
:1037D000ED91FC91169782816817A1F0862F8D7F5D
:1037E0008D3F81F019968C916817E0F089E594E09F
:1037F0009A83898389EB92E09C838B83CE01019627
:103800000E940A15D8011596ED91FC9182810F90C6
:103810000F900F900F90DF91CF911F910F91FF901C
:10382000EF90089570E0660F771FF801878190850B
:10383000680F791FDB01ED90FC90F801858196817E
:10384000DC01ED91FC910084F185E02D0995F801F2
:10385000F682E582D701ED91FC910680F781E02D9B
:10386000C7010995D8011596ED91FC9116979281A3
:103870008917D9F0982F9D7F9D3FB9F019969C919B
:103880001997891738F089E594E09A83898385EC44
:1038900092E0B2CF90E0880F991F17962D913C913E
:1038A000820F931FDC01ED90FC90EE16FF0629F6C7
:1038B000A9CF0F931F93CF93DF9300D000D0CDB744
:1038C000DEB78C01DC016D937C93FB018081882342
:1038D00061F08DE594E09A83898381EF90E09C8389
:1038E0008B83CE0101960E940A15D801ED91FC91BF
:1038F00081E080830F900F900F900F90DF91CF9118
:103900001F910F910895FF920F931F93CF93DF9311
:1039100000D0CDB7DEB78C01F62EBC01665F7F4FBD
:10392000CE0101960E94591CD80115968D919C914B
:10393000009749F0FF2039F0DC01ED91FC91008403
:10394000F185E02D0995F80116821582E981FA8149
:1039500010820F900F90DF91CF911F910F91FF90E8
:103960000895EF92FF920F931F93CF93DF9300D0B0
:1039700000D000D0CDB7DEB78C017B01BC01665F03
:103980007F4FCE0105960E94591CD80115968D9146
:103990009C91009709F1DC01ED91FC910480F58187
:1039A000E02DB7010995D801ED91FC91008CF18DC6
:1039B000E02D682FC8010995ED81FE8110822696C1
:1039C0000FB6F894DEBF0FBECDBFDF91CF911F9130
:1039D0000F91FF90EF90089581E694E09A83898398
:1039E00087E392E09C838B83CE0101960E940A15A7
:1039F000E3CFBF92CF92DF92EF92FF920F931F938C
:103A0000CF93DF9300D000D0CDB7DEB7BFB6F89428
:103A1000FC01EE5CFB4F2081222309F453C06C01B2
:103A200023EAC21A2AEFD20AF6014085518562853F
:103A30007385452B462B472B09F444C08C018F59C5
:103A40009D4F0E94EE158430E9F1F601E480F58087
:103A500083E0EE0CFF1C8A95E1F780899189E80EDE
:103A6000F91EF70126813781848195819A838983A4
:103A7000820F931F9C838B8342815381608171816C
:103A80009E012F5F3F4FC8010E945718F801108A0E
:103A9000F70180819181F80195878487E551FD4F79
:103AA0006081C80187579D4F0E94691480E491E0AE
:103AB0009A838983BE016F5F7F4FC801845A9D4FEF
:103AC0000E94B11CBFBE0F900F900F900F90DF911E
:103AD000CF911F910F91FF90EF90DF90CF90BF900B
:103AE0000895FC01EE5CFB4F21E020830C94F91C4F
:103AF000EF92FF920F931F93CF93DF9300D0CDB738
:103B0000DEB78C01FB01E280F3808F599D4F0E944C
:103B1000EE15843001F5F80184859585E816F906DF
:103B2000D1F4E551FD4F6081C80187579D4F0E9438
:103B3000C514C8010E9445178AE491E09A838983DD
:103B4000BE016F5F7F4FC801845A9D4F0E94B11C18
:103B5000C8010E94F91C0F900F90DF91CF911F9127
:103B60000F91FF90EF9008952F923F924F925F92A6
:103B70006F927F928F929F92AF92BF92CF92DF927D
:103B8000EF92FF920F931F93CF93DF9300D000D05B
:103B9000CDB7DEB7FC01EE5CFB4F1081112309F4B9
:103BA0009FC039012A015B016C01CB010E941A13ED
:103BB000382E882309F436C12FB6F894760183EAAB
:103BC000E81A8AEFF80AD70118964D915D916D9128
:103BD0007C911B971C968D919D910D90BC91A02D71
:103BE000481759076A077B0709F478C08601075B05
:103BF0001B4FF80184859585A685B785803491058E
:103C0000A105B10560F485E694E09A83898380E498
:103C100091E09C838B83CE0101960E940A15F801E6
:103C200080899189A289B389448155816681778190
:103C3000481759076A077B0708F06DC04085518512
:103C400062857385481759076A077B07F0F48485F6
:103C50009585849F9001859F300D949F300D112490
:103C60000190F081E02DE20FF31F8E0F9F1F9183D3
:103C70008083F80180859185A285B3850196A11D79
:103C8000B11D80879187A287B387D80112968D9046
:103C90009C90139714968D919D910D90BC91A02DA1
:103CA0000196A11DB11DF80184839583A683B78376
:103CB000408951896289738984179507A607B707D8
:103CC00038F5D4018D919C919383828381E090E0BB
:103CD000D4018D939C938114910451F52FBE10E073
:103CE000812F0F900F900F900F90DF91CF911F9128
:103CF0000F91FF90EF90DF90CF90BF90AF909F908B
:103D00008F907F906F905F904F903F902F9008958D
:103D100013821282DBCF81E594E09A8389838BE45E
:103D200092E09C838B83CE0101960E940A15D6CF28
:103D3000F3018081918162817381681B790BA401F9
:103D40000E946D11D70118964D915D916D917C91F6
:103D50001B971C968D919D910D90BC91A02D48179D
:103D600059076A077B07C9F489E694E09A83898337
:103D700085E491E09C838B83CE0101960E940A1515
:103D80002FBEC6018F599D4F0E94EE15843019F049
:103D9000C6010E94F91C132DA3CFF30182819381E8
:103DA00020813181D7014D915C91119763E0440FDF
:103DB000551F6A95E1F75096ED91FC915197E40FEC
:103DC000F51FB182A0825382428295828482821B37
:103DD000930B978386838D919D910D90BC91A02D1F
:103DE0000196A11DB11DF70180839183A283B38346
:103DF000448555856685778584179507A607B70797
:103E000021F41082118212821382F701808591853C
:103E1000A285B3850196A11DB11D80879187A287D8
:103E2000B387AECFD3018D919C9111979A838983EB
:103E300012968D919C919C838B839E012F5F3F4FA7
:103E4000A201B501C6010E9457184ACFCF93DF9354
:103E500000D000D0CDB7DEB7D901ED91FC9111971C
:103E6000FA83E98312962D913C913C832B839E012A
:103E70002F5F3F4F0E94B41D0F900F900F900F9037
:103E8000DF91CF9108952F923F924F925F926F9260
:103E90007F928F929F92AF92BF92CF92DF92EF92DA
:103EA000FF920F931F93CF93DF93CDB7DEB7689741
:103EB0000FB6F894DEBF0FBECDBF7C01DC011496B7
:103EC000CD90DC90F60140805180D201ED91FC91C3
:103ED0000084F185E02DC20109955C0118161906D0
:103EE0000CF03AC18601015E1D4FC8010E94F71413
:103EF000F80180809180F1E08F1A9108881A990A60
:103F0000A814B9040CF44501312C212C360129EDFB
:103F1000621A2DEF720AB601635D7D4F7C8B6B8B4D
:103F2000C8010C969E8B8D8BD601AF5CBD4FBF87B1
:103F3000AE87F601E15DFD4FF98BE88B281439045B
:103F40000CF00AC1D201ED91FC910284F385E02DC1
:103F5000C201099597FD00C18B878111F6C0C80188
:103F60000E94F714009709F4C5C0F301A081B18144
:103F7000F80142815381248135812417350799F056
:103F8000F80166817781FB01E20FF31F60816D9379
:103F90002F5F3F4FF801608171812617370769F75E
:103FA00030E020E0EACFD80113961C921E921297BF
:103FB00015961C921E921497F30140815181A280A4
:103FC000B380840F951F4817590749F481E090E0AA
:103FD0009E838D831A8219828AED90E14FC09A01E7
:103FE000588F4F8B28C0E20FF31FAE16BF06D0F0DC
:103FF0002A8BB901262FAA892A1BBD852B1738F4D5
:10400000D6012D916D01DB012D93BD01F3CFBC8550
:10401000BF3F81F02F89388D2817390758F4AE1625
:10402000BF0631F482E090E09E838D8381E023C05F
:10403000108231969F016F89788D6817790708F093
:104040005DC06B017FEFC71AD70AAF89B88DBC91ED
:10405000BC87B150BD87EB2FF0E0B6016E0F7F1F1C
:10406000788F6F8B8617970708F0BDCF82E090E0BE
:104070009E838D8383E0898383EE90E19C838B8391
:104080008D819E818130910509F441C0AE85BF8547
:104090002D913C91232B51F1029761F0E9E4F4E07A
:1040A000F887EF838CEE94E09A878987CE01079694
:1040B0000E940A15AE85BF858D919C91892B61F474
:1040C000E5E3F4E0F887EF832EE731E03A872987CC
:1040D000CE0107960E940A15A889B9891296ED911A
:1040E000FC91139769818D919C910995CE01019660
:1040F0000E947E0AFFEF2F1A3F0A20CF81E090E056
:104100009E838D83241B350B3A83298365CFCE0193
:1041100001960E942117EB89FC8920813181232B94
:1041200029F3DC012D913C91F301808191819887E5
:104130008F83820F931F9A878987BE01695F7F4FA4
:104140008D899E890E942615D1CFBE01655F7F4F64
:10415000C8010E944310CECFD7011496ED91FC9177
:1041600080819181DC01ED91FC910084F185E02D4D
:104170000995F701268121112EC0C1979CF08481F9
:1041800095811A8219821C821B829E012F5F3F4FEC
:1041900050E040E06EE470E00E94261F81E0D7010D
:1041A00016968C9368960FB6F894DEBF0FBECDBFFF
:1041B000DF91CF911F910F91FF90EF90DF90CF9003
:1041C000BF90AF909F908F907F906F905F904F9037
:1041D0003F902F90089540972CF7848195811A8203
:1041E00019821C821B829E012F5F3F4F50E040E0EE
:1041F0006FE470E00E94261FD70116961C92D2CF62
:10420000CF93DF9300D000D0CDB7DEB7D901ED91C9
:10421000FC911197FA83E98312962D913C913C838E
:104220002B8370E09E012F5F3F4F0E94B41D0F90C3
:104230000F900F900F90DF91CF910895FF920F9301
:104240001F93CF93DF9300D000D0CDB7DEB78C01A2
:10425000F62EDC011A96ED91FC911B97309759F0E0
:104260001A8219821C821B82AE014F5F5F4F189623
:104270008D919C9109951A8219821C821B829E0144
:104280002F5F3F4F50E040E06F2DC8010E9400219A
:104290000F900F900F900F90DF91CF911F910F9182
:1042A000FF900895AF92BF92CF92DF92EF92FF926C
:1042B0000F931F93CF93DF9300D000D0CDB7DEB71D
:1042C0008C01FFB6F89485EE92E09A838983BE0153
:1042D0006F5F7F4FC801845A9D4F0E94B11CFFBE83
:1042E000580180E1A81A8DEFB80A7801A5E1EA1A11
:1042F000ADEFFA0A6801B7E7CB1ABDEFDB0AAE14DF
:10430000BF0439F0F70161917F01C6010E94C51415
:10431000F6CFD80158961D921D921D921C925B9764
:1043200050961C92C8010E944517F801E157FA4FB8
:104330001382128215821482ED55F14081E0808350
:104340007801BAECEB1ABDEFFB0AF7018481958185
:10435000228133813A8329839C838B83CE0101960A
:104360000E940012D70112968D919C911397159679
:104370009C938E9314978BE790E10E94220A0E94EF
:10438000A60BF801E95CFB4FE080F18032970081D9
:10439000118186E3C82E81E0D82EE016F10699F04F
:1043A000F801819191918F01DC011296ED91FC91C0
:1043B0000480F581E02DDA82C982BE016F5F7F4FF4
:1043C00002960995EACF0F900F900F900F90DF9112
:1043D000CF911F910F91FF90EF90DF90CF90BF9002
:1043E000AF9008950C945221CF92DF92EF92FF92FA
:1043F0000F931F93CF93DF9300D0CDB7DEB70E940A
:104400000C046B017C0110E000E080917806909133
:104410007906DC01ED91FC910084F185E02D099590
:1044200018161906E4F40E940C040F5F1F4F6C1954
:104430007D098E099F09683E73408105910578F4D6
:104440008091780690917906DC01ED91FC910284CF
:10445000F385E02D09950115B1E01B07B1F61FB7F3
:10446000F8948CE291E09A838983BE016F5F7F4F5D
:1044700084ED98E00E94B11C1FBF0F900F90DF9158
:10448000CF911F910F91FF90EF90DF90CF90089503
:10449000CF93DF9300D0CDB7DEB789ED98E00E94CF
:1044A000EE158430D1F4809188068F5F8093880662
:1044B000909189068917B0F06091630981E099E0D5
:1044C0000E94C51482E291E09A838983BE016F5FE6
:1044D0007F4F84ED98E00E94B11C0F900F90DF9108
:1044E000CF91089588E796E00E94741AF6CF9F92C4
:1044F000AF92BF92CF92DF92EF92FF920F931F93F2
:10450000CF93DF9300D000D000D0CDB7DEB78C01C1
:10451000F62EBC01665F7F4FCE0105960E94591CA6
:10452000D80115968D919C911697892B09F056C04C
:104530001796ED91FC9118978081918116969C9326
:104540008E931597892B61F481E494E09A83898393
:1045500083E192E09C838B83CE0101960E940A1531
:10456000FF20E1F139E5C32E34E0D32E40E2A42E42
:1045700042E0B42EF801E580F680D701ED91FC9180
:104580000680F781E02DC7010995982EBFEF8B17A4
:10459000F1F0F8018185981640F0DA82C982BC8278
:1045A000AB82CE0101960E940A15892D90E0880FFA
:1045B000991FD80117962D913C911897820F931F40
:1045C000FC018081918116969C938E931597D8015A
:1045D00015968D919C918E159F0561F6ED81FE815A
:1045E000108226960FB6F894DEBF0FBECDBFDF91C6
:1045F000CF911F910F91FF90EF90DF90CF90BF90E0
:10460000AF909F900895AF92BF92CF92DF92EF92BA
:10461000FF920F931F93CF93DF93CDB7DEB7EB9746
:104620000FB6F894DEBF0FBECDBFFC0142815381AF
:10463000208131814217530799F490E080E0EB9696
:104640000FB6F894DEBF0FBECDBFDF91CF911F91A3
:104650000F91FF90EF90DF90CF90BF90AF900895B3
:10466000FB0140815181228133812417350729F3D1
:104670007B018C011C821B821D821F821E82198677
:1046800018861A861B8686EB91E09A8389835D875C
:104690004C873F872E87188A198A1C8A1E8A1D8A92
:1046A000188E1F8A1A8E198E1C8E1B8E8CE891E034
:1046B0009B8B8A8B81E08F8F19A218A21BA21AA252
:1046C0001DA21CA21FA21EA28AE991E09E8F8D8FBF
:1046D00082E08AA71CA61BA61EA61DA618AA1FA6B6
:1046E0001AAA19AA88EA91E099A788A7CE0142964A
:1046F0009CAB8BAB0B969EAB8DAB0B9698AF8FABF9
:1047000043E050E0BE016D5C7F4F87970E94151615
:1047100061E0CE0101960E947722F801C280D38029
:104720000081118184EDA82E81E0B82E8989C01600
:10473000D10689F081110CC0F8018081BAAEA9AE12
:104740008BAFBE01675C7F4FCE0101960E94B11C0A
:104750000F5F1F4FEBCF811170CFCE0106960E94E5
:10476000EE1581116ACF8C859D85F70120813181FD
:10477000821B930B64CF3F924F925F926F927F9216
:104780008F929F92AF92BF92CF92DF92EF92FF9261
:104790000F931F93CF93DF93CDB7DEB7E7970FB695
:1047A000F894DEBF0FBECDBF8C01DB01ED90FC9015
:1047B00011971296AD90BC9045018E189F08C401C8
:1047C0000B978134910548F082E090E09B8B8A8BB7
:1047D0009A8389838FEC90E1C4C0FD8AEC8AFF8ABA
:1047E000EE8A998E888E81EE90E19B8F8A8F1FA230
:1047F0008FEF9FEFDC018BA39CA3ADA3BEA3A4010D
:10480000445051094E0D5F1DB701CE0183960E94A1
:10481000BE0EEE89FF898C899D899F01281B390B6B
:10482000888D998DC12CD12C2817390739F0CF01EB
:1048300001969F8B8E8BD080CC24C394BE016C5E7E
:104840007F4FCE01C5960E942E12BE016C5E7F4F37
:10485000CE01C1960E942E12BE016C5E7F4FCE012A
:104860008B960E942E12CC2009F4AECF8FA98823FC
:1048700009F4AACF8BA9882309F4A6CF8DA5882394
:1048800009F4A2CFB2E0DB129FCFCDA8DEA8C6010B
:104890000B968816990609F097CFEFEFCE16DE0635
:1048A00031F05601F7E0AF0EB11CAE0CBF1C89A869
:1048B0009AA86BA47CA42E893F894C895D89888D38
:1048C000998DB901641B750BDC01A61BB70BAC15E8
:1048D000BD0520F02C0D3D1D3F8B2E8B6E897F89F1
:1048E0009B01241B350B821B930B049708F475C0A6
:1048F00024E030E0AE014F5F5F4FCE0144960E944E
:1049000012128E899F8904969F8B8E8B49815A81C2
:104910006B817C818BA19CA1ADA1BEA1809590955E
:10492000A095B09584179507A607B70709F055C05D
:1049300021E030E03B8B2A8B22E02983DB82CA8294
:104940009D828C827F826E82E7E0EE0EF11CF986FA
:10495000E886BB86AA868C879D87AE87BF878CEA50
:1049600090E1998B888B8A899B8981309105E1F14F
:10497000029761F089E494E09D8B8C8B8CEE94E03F
:104980009F8B8E8BCE0144960E940A1589819A8155
:10499000D8015E969C938E935D9763E3C8010E9455
:1049A0001E21CE0101960E94FC10E7960FB6F894E6
:1049B000DEBF0FBECDBFDF91CF911F910F91FF9052
:1049C000EF90DF90CF90BF90AF909F908F907F90AF
:1049D0006F905F904F903F90089582E090E09B8BA6
:1049E0008A8B81E090E0F4CE1C8E1B8E1E8E1D8E75
:1049F00087E0FE013196DE01549601900D928A9572
:104A0000E1F7288539858A859B854C815D8157FD35
:104A10000BC03C8F2B8F9E8F8D8F80E390E19EA7E4
:104A20008DA718AA1FA632C07801B0EDEB1ABCEF13
:104A3000FB0AF701A801405D5B4FE417F50711F091
:104A40001192FBCFFCA2EBA2FEA3EDA33CA72BA7E8
:104A50009EA78DA7BE016D5D7F4FCE018B960E94F4
:104A60000323009761F5488559852A853B854217C0
:104A7000530729F18FEC90E19EA78DA781E090E08C
:104A800098AB8FA782E090E09CA78BA78FA598A9F1
:104A90000197F1F4CE018B960E942117FC018081D1
:104AA0009181D8015E969C938E935D9763E3C801D4
:104AB0000E941E21CE018B960E947E0A72CFFC8E30
:104AC000EB8EE80EF91EFE8EED8E9E8B8D8BA5CFA4
:104AD0008F88988CE89497F87801B1E7EB1ABAEFD1
:104AE000FB0AF701A280B38044805580698C7A8CE0
:104AF000C2019C01220F331F6C01AC14BD04C9F02C
:104B0000D7011696ED91FC91E20FF31F8081918100
:104B10008615970579F0BFEFCB1ADB0A2E5F3F4F62
:104B200090E080E0F70140815181C416D50629F755
:104B3000E0CF650133243394CA14DB0409F4312C2B
:104B4000C4010E941A139E012C5E3F4F3CA32BA36D
:104B50009EA28DA278A66FA239A68AA7CA14DB04EA
:104B600009F041C0FFEFCF1ADF0AD7018D919C9168
:104B7000C816D90611F4D12CC12C4C145D0419F4BB
:104B8000C7010E948715298D3A8DF7018281938193
:104B9000880F991F0680F781E02DE80FF91F3183F8
:104BA0002083D70112968D919C91139701961396AD
:104BB0009C938E9312972D913C9111978217930796
:104BC00021F413961C921E921297F7018281938111
:104BD000448155818417950731F4019628173907C8
:104BE00069F195838483F801EA5CFD4F2481358166
:104BF000828193812817390721F18DA19EA18634E6
:104C00009105F9F08B7F80349105D9F0C8018F5957
:104C10009D4F0E94EE158350823098F01AAA19AA6F
:104C20001CAA1BAA4FA158A59E012F5C3F4F61E310
:104C3000C8010E940021CE018B963ECF15821482BE
:104C4000D2CF8DA19EA18F3F910509F0B8F4880FB6
:104C5000991F880F991FD801A755BA4FA80FB91FE0
:104C6000ED91FC91119712968D919C919C01217070
:104C700033273097B1F42115310599F4D8011696F0
:104C8000ED91FC911797309739F06BA17CA11496A8
:104C90008D919C910995CFCF61E3C8010E941E219F
:104CA000CACF95958795800F911F232B41F0DC018A
:104CB0002D913C91E20FF31F0190F081E02DBE0198
:104CC0006D5D7F4FE7CF8F929F92AF92BF920F9310
:104CD0001F93CF93DF93CDB7DEB7A1970FB6F894AC
:104CE000DEBF0FBECDBF19A2423008F44AE08E01EC
:104CF0000F5D1F4F842E912CB12CA12CA501940186
:104D00000E945655E62FB901CA01EA3044F5E05D2C
:104D1000D801EE938D01232B242B252B79F790E0DE
:104D200080E0109769F0FD0101900020E9F73197CC
:104D3000AF014A1B5B0BBD018AEE94E00E94A20A00
:104D4000A1960FB6F894DEBF0FBECDBFDF91CF9115
:104D50001F910F91BF90AF909F908F900895E95C45
:104D6000D7CF42E050E061E774E08AEE94E00C9423
:104D7000A20A4F925F926F927F928F929F92AF9210
:104D8000BF92CF92DF92EF92FF920F931F93CF9338
:104D9000DF935C018B0169017A01009709F4C6C0B9
:104DA000672B41F4CD28CE28CF2809F0BFC090E072
:104DB00080E0ABC04C0180E6880E911CF40180813C
:104DC0009181A281B38180349105A105B10508F0DC
:104DD000B0C034964080518062807380BA01A901CE
:104DE000440D551D661D771D408351836283738377
:104DF000441555056605770568F434964081518160
:104E0000628173814F5F5F4F6F4F7F4F408351834C
:104E100062837383E501A0960097A105B10509F4AB
:104E200041C020E4422E512C612C712C481A590AA1
:104E30006A0A7B0AC414D504E604F70410F42601B8
:104E400037018C0F9D1FA201B8010E94B255F401D9
:104E500080819181A281B381840D951DA61DB71D0E
:104E600080839183A283B383040D151DC418D508D4
:104E7000E608F70880349105A105B10599F420E40E
:104E800030E040E050E0BE01CE010E94DC08BE01EF
:104E9000C5010E94BA050097C1F5F4011082118284
:104EA0001282138280E4C816D104E104F10488F46C
:104EB000C114D104E104F10409F479CFA601B801C9
:104EC000CE010E94B255F401C082D182E282F38207
:104ED0006ECF80E4F801DE0101900D928A95E1F732
:104EE000005C1F4FF0E4CF1AD108E108F10820E47C
:104EF00030E040E050E0BE01CE010E94DC08BE017F
:104F0000C5010E94BA05009769F2DF91CF911F9108
:104F10000F91FF90EF90DF90CF90BF90AF909F9058
:104F20008F907F906F905F904F90089583E59FEFF3
:104F3000ECCF8CE79FEFE9CF8F929F92AF92BF9219
:104F4000CF92DF92EF92FF920F931F93CF93DF9355
:104F500061157105A9F483E59FEF232B242B252BE5
:104F600011F490E080E0DF91CF911F910F91FF90BD
:104F7000EF90DF90CF90BF90AF909F908F9008956B
:104F8000211531054105510561F349015A018B0194
:104F9000EC016C012FEEC21A2EEFD20AF6018081CD
:104FA0009E01205F3E4F7901811113C0F90180817C
:104FB000863061F420E430E040E050E0BE01625908
:104FC0007F4FCE010E94B926009769F681E0F60175
:104FD0008083F7018081863021F6A5019401B80114
:104FE000CE01DF91CF911F910F91FF90EF90DF9055
:104FF000CF90BF90AF909F908F900C94B9262F9236
:105000003F924F925F926F927F928F929F92AF9258
:10501000BF92CF92DF92EF92FF920F931F93CF93A5
:10502000DF933B017C0120E6E20EF11CF701408199
:10503000518162817381403451056105710508F029
:1050400017C1EC018C01005E1F4FDB01CA01019604
:10505000A11DB11D80839183A283B383400F511F93
:1050600080E8FA018083F70180819181A281B38178
:1050700089339105A105B10520F180349105A10581
:10508000B10550F440E450E0481B590B800F911FCC
:1050900070E060E00E94CD5520E430E040E050E058
:1050A000B801C8010E94DC08B801CE010E94BA050F
:1050B0006C01892B09F0C8C0F7011082118212829D
:1050C0001382F7018081918148E350E0481B590B1E
:1050D00070E060E0800F911F0E94CD554E01F4E614
:1050E0008F0E911CF40140815181628173815E01B8
:1050F000F8E6AF0EB11CF50180819181A281B381E8
:1051000023E0880F991FAA1FBB1F2A95D1F71A0108
:105110002B013DE156944794379427943A95D1F763
:10512000820D931DA41DB51D80839183A283B3833B
:10513000E3E0440F551F661F771FEA95D1F7F4018E
:10514000408351836283738328E330E040E050E082
:10515000B801C8010E94DC0884E0F501DE01A85A0C
:10516000BF4F01900D928A95E1F784E0F401DE01D2
:10517000A45ABF4F01900D928A95E1F7B801CE0174
:105180000E94BA056C01892B09F05EC020E230E074
:1051900040E050E0BE01CE010E94DC0880E2FE014A
:1051A000D30101900D928A95E1F787E696EEA9E08A
:1051B000BAE688839983AA83BB8385E89EEAA7E63B
:1051C000BBEB8C839D83AE83BF8382E793EFAEE618
:1051D000BCE388879987AA87BB878AE395EFAFE40A
:1051E000B5EA8C879D87AE87BF878FE792E5AEE0F3
:1051F000B1E5888B998BAA8BBB8B8CE898E6A5E0F0
:10520000BBE98C8B9D8BAE8BBF8B8BEA99EDA3E8B2
:10521000BFE1888F998FAA8FBB8F89E19DECA0EEAB
:10522000BBE58C8F9D8FAE8FBF8FF70110821182EF
:1052300012821382F4011082118212821382F5010C
:105240001082118212821382C601DF91CF911F91C9
:105250000F91FF90EF90DF90CF90BF90AF909F9015
:105260008F907F906F905F904F903F902F90089518
:1052700080E4C82EDD24DA94E7CFCF92DF92EF925C
:10528000FF920F931F93CF93DF93EC017B018C016F
:105290000F5E1E4FF80180819E01205F3E4F690125
:1052A000811113C0F9018081863061F420E430E07F
:1052B00040E050E0BE0162597F4FCE010E94B92606
:1052C000009779F581E0F8018083F60180818630CE
:1052D00089F56E01FEEECF0ED11CB601CE010E9403
:1052E000FF270097F1F420E430E040E050E0BE01F9
:1052F00062557F4FCE010E94B926009791F420E2BB
:1053000030E040E050E0B601CE010E94B92600979F
:1053100041F4B701CE010E94FF27009711F4F80174
:105320001082DF91CF911F910F91FF90EF90DF904E
:10533000CF90089583E59FEFF4CFFC011182108296
:10534000138212821582148217821682178616869D
:10535000158A148A178A168A118E108E138E128E51
:10536000158E148E178E168E11A210A2718760876B
:1053700073876287605C7F4F758764870895AF92FB
:10538000BF92CF92DF92EF92FF920F931F93CF9332
:10539000DF938C016B017A015901D0E0C0E0D801A4
:1053A0001296ED91FC91A5014C1B5D0BB6016C0FA3
:1053B0007D1FC8010995F80122893389232B59F4EF
:1053C0009C01215031092E3F3F4F40F062E070E0D8
:1053D000C8010E943F09D0E0C0E005C0C80FD91F36
:1053E000CE15DF05E0F2CE01DF91CF911F910F9135
:1053F000FF90EF90DF90CF90BF90AF900895FC01A9
:1054000084E1DF011D928A95E9F777876687640F4B
:10541000751F718B608B0895FC01CF019F01237074
:105420003327232BF1F49B012430310508F59B0130
:105430003695279536952795F901EE0FFF1FEE0F4C
:10544000FF1FE80FF91F4CEF4203C001439F900D6F
:105450001124680F791F6E0F7F1FE617F70779F485
:10546000089561157105E1F3119261507109D5CF6D
:10547000119211921192119224503109D5CF1192AB
:10548000ECCFCF93DF93EC01FC01E05FFE4F808116
:10549000863029F46EE670E0CE010E940C2A62E1AB
:1054A00071E0CE01DF91CF910C940C2A4F925F9264
:1054B0006F927F92AF92BF92CF92DF92EF92FF9264
:1054C0000F931F93CF93DF93EC018B0129013A01D6
:1054D000672B41F483E59FEF41145104610471048B
:1054E00009F09DC07E0182EFE81A8EEFF80AF701FD
:1054F000C080D1805E01F0EFAF1AFEEFBF0AF50168
:105500008081882319F0CE010E94412AFE01EF5EBE
:10551000FE4F108286E0F501808387E696EEA9E0D3
:10552000BAE688839983AA83BB8385E89EEAA7E6C7
:10553000BBEB8C839D83AE83BF8382E793EFAEE6A4
:10554000BCE388879987AA87BB878AE395EFAFE496
:10555000B5EA8C879D87AE87BF878FE792E5AEE07F
:10556000B1E5888B998BAA8BBB8B8CE898E6A5E07C
:10557000BBE98C8B9D8BAE8BBF8B8BEA99EDA3E83F
:10558000BFE1888F998FAA8FBB8F89E19DECA0EE38
:10559000BBE58C8F9D8FAE8FBF8FFE01E05AFF4F12
:1055A000108211821282138234961082118212822A
:1055B0001382349610821182128213823496D18221
:1055C000C082F701D182C0827E01FEE6EF0EF11C9F
:1055D00081E4481651046104710480F50115110538
:1055E00029F0A201B801C7010E94B255E0E44E16AD
:1055F000510461047104A9F5F701DE01A255BF4F02
:10560000C251DF4F2CE596E3808182278D93808104
:1056100089278193CA17DB07B9F790E080E0DF9113
:10562000CF911F910F91FF90EF90DF90CF90BF909F
:10563000AF907F906F905F904F900895A30192017B
:10564000B801CE010E94B926009749F7B701CE01F3
:105650000E94FF27009719F780E2482E512C612CF9
:10566000712C40E450E044195509C701840D951D83
:1056700070E060E00E94CD55BFCF2F923F924F92D5
:105680005F926F927F928F929F92AF92BF92CF92D2
:10569000DF92EF92FF920F931F93CF93DF93CDB7DB
:1056A000DEB7CD55D1400FB6F894DEBF0FBECDBFEB
:1056B000FB01DC011296ED90FC9013972D903C902D
:1056C000D90112966D907C9013978D919C91C85A38
:1056D000DE4F99838883C855D140DA016D917C9162
:1056E000119712962D913C91261B370B50E040E00C
:1056F000A280B380808091806115710561F4BE0144
:105700006D5E7E4F80E2FB0111928A95E9F720E2FF
:1057100030E040E050E08E010F5F1F4F82E191E0EA
:10572000D801FC011D923197E9F7C8010E94562A61
:105730006C01892B99F4A818B908950150E040E054
:10574000B401C8010E949C276C01892B39F4BE0169
:105750006D5C7E4FC8010E943D296C01C8010E940A
:10576000412ACD2809F09CC081E0CD5ADE4F8883C4
:10577000C355D1402114310409F492C0E218F30852
:10578000C701B0E0A0E0CC5ADE4F88839983AA839A
:10579000BB83C455D1409FE1E922FF2481E090E022
:1057A000A0E0B0E0EF2819F480E090E0DC01CC5AF2
:1057B000DE4F488159816A817B81C455D14025E003
:1057C00076956795579547952A95D1F7840F951F3C
:1057D000A61FB71F8F3F9105A105B10511F008F075
:1057E0005FC082E191E0D801FC011D923197E9F799
:1057F000FE01ED5EFE4F80E2DF011D928A95E9F722
:10580000812C912C54018F01C85ADE4FE881F98117
:10581000C855D1406E1A7F0AC301B0E0A0E0C65A55
:10582000DE4F88839983AA83BB83CA55D140CC5A63
:10583000DE4F88819981AA81BB81C455D1408816E9
:105840009906AA06BB0640F5CD5ADE4F8881C3559E
:10585000D140412C512C3201813029F090E2492E67
:10586000512C612C712CCC5ADE4FC880D980EA8033
:10587000FB80C455D140C818D908EA08FB0820E2CB
:1058800030E040E050E0BE016D5C7E4FCE010196FD
:105890000E94562A892BF1F0CE0101960E94412ADE
:1058A000C35ADE4F0FB6F894DEBF0FBECDBFDF91F7
:1058B000CF911F910F91FF90EF90DF90CF90BF900D
:1058C000AF909F908F907F906F905F904F903F90A0
:1058D0002F900895A3019201B801CE0101960E9474
:1058E0009C27892BC9F6C65ADE4F288139814A8107
:1058F0005B81CA55D140C85ADE4F68817981C8554D
:10590000D140CE0101960E949C27892B29F621E0E7
:1059100030E040E050E0BE016D5A7E4FCE0101966E
:105920000E949C27892B09F0B7CFB801CE010196C0
:105930000E943D29892B09F0AFCF91E2C916D1040D
:10594000E104F10428F080E2C82ED12CE12CF12CE6
:10595000C101880D991DA601B8010E94B2558C0C99
:105960009D1CAE1CBF1CCD5ADE4F8881C355D14053
:105970008F5FCD5ADE4F8883C355D14058CFCF9328
:10598000DF93EC018A859B8528853985821B930BE3
:10599000E88DF98D22813381280F391F33832283CB
:1059A000EE89FF8922813381820F931F9383828343
:1059B00080E090E10E9428540097E9F467E070E0ED
:1059C000CE010E942D098E859F85892B89F4E88D53
:1059D000F98D828193818E0F9F1F9987888782819D
:1059E00093818E0F9F1F9B878A87F05FFD87EC87CF
:1059F000DF91CF910895FC011182108224E030E004
:105A000033832283E88DF98D91838083998F888FEA
:105A1000DACFCF92DF92EF92FF920F931F93CF9343
:105A2000DF93EC017B018A018E859F85892B39F5F7
:105A30004A855B858C899D89892B51F18A859B8557
:105A40002C853D85281B390B68012017310708F488
:105A50006901A601B7010E94B2558A859B858C0D0C
:105A60009D1D9B878A87EC0CFD1C0C191D0939F0C4
:105A7000CE010E94BF2C8E859F85892BF9F2DF9184
:105A8000CF911F910F91FF90EF90DF90CF900895ED
:105A9000E881F981309769F466E070E0CE01DF912A
:105AA000CF911F910F91FF90EF90DF90CF900C94CA
:105AB0002D09688579857B876A87461B570BCE0140
:105AC00009958E859F85892BD1F68A859B852C85A6
:105AD0003D85281B390B2017310770F4E881F981C7
