:100000000C94D2000C94FA000C94FA000C94FA00B0
:100010000C94FA000C94FA000C94FA000C94FA0078
:100020000C94FA000C94FA000C94FA000C94FA0068
:100030000C94FA000C94FA000C94FA000C94FA0058
:100040000C949A470C94FA000C940A480C94E447D8
:100050000C94FA000C94FA000C94FA000C94FA0038
:100060000C94FA000C94FA00436F6D616E646F207B
:10007000525043206E6F206D616E656A61646F3A05
:100080002049443D3078004572726F7220646520CB
:1000900045737461646F3A203078006D63756272E5
:1000A000696467652D763268616E647368616B653B
:1000B0002D61757468F7BC83F430538424B1329891
:1000C000E6AA6FB143EF4D59A14946175997479D8D
:1000D000BC2D1A3CD854686520717569636B206229
:1000E000726F776E20666F78206A756D7073206FFF
:1000F00076657220746865206C617A7920646F6718
:100100006B6579BA7816BF8F01CFEA414140DE5D59
:10011000AE2223B00361A396177A9CB410FF61F25C
:100120000015AD6162634272696467652073696E30
:1001300063726F6E697A61646F2079206F70657287
:10014000616E646F2E0000000000240027002A006A
:1001500000000000250028002B0000000000230004
:100160002600290004040404040404040202020218
:10017000020203030303030301020408102040806A
:1001800001020408102001020408102000000008E9
:10019000000201000003040700000000000000004E
:1001A0006C48604F11241FBECFEFD8E0DEBFCDBF3B
:1001B00014E0A0E0B1E0EAE4F2EA02C005900D929A
:1001C000A23AB107D9F720E1A2EAB4E001C01D923A
:1001D000A43CB207E1F710E0C1EDD0E004C02197E4
:1001E000FE010E94D050C03DD107C9F70E94A24D28
:1001F0000C9418510C9400008E5C9B4FFC011082F3
:1002000008950895FF920F931F93CF93DF93D0E04B
:10021000C0E0FF24F3942091190930911A098091CC
:100220001B0990911C09821B930B95958795C81704
:10023000D907F8F4CE01880F991F280F391FD9016B
:100240000D911C91D801ED91FC910480F581E02D78
:10025000C8010995672B682B692B49F0D801ED91EE
:10026000FC910680F781E02DC8010995F12C2196BB
:10027000D2CF8F2DDF91CF911F910F91FF900895D5
:10028000EF92FF92CF93DF93DC013091350980919B
:100290002C09831778F5E0902409F090250980E077
:1002A000381741F1F70190E1E90EF11CE7012697BB
:1002B00098819F3FE9F4B183A08342835383648391
:1002C00075834FEF5FEFBA0146835783608771876D
:1002D00082879387948725871786168690912C09A5
:1002E0009F5F90932C09DF91CF91FF90EF9008953D
:1002F0008F5FD6CF8FEFF7CFCF92DF92EF92FF9243
:10030000CF93DF93EC016A017B01E889F98982E0F0
:100310008083C11481EED806E104F104A1F060E00D
:1003200079E08DE390E0A70196010E949A50215058
:10033000310941095109569547953795279521155A
:1003400080E1380798F0E889F989108260E874E85C
:100350008EE190E0A70196010E949A502150310948
:10036000410951095695479537952795EC85FD85A7
:100370003083EE85FF852083188EEC89FD8986E029
:100380008083EA89FB89808180618083EA89FB8997
:10039000808188608083EA89FB898081806880838E
:1003A000EA89FB8980818F7D8083DF91CF91FF90E7
:1003B000EF90DF90CF90089522E030E0FC0136838B
:1003C000258326E030E0318320832EE03FE0348334
:1003D000238308952EE03FE0FC013383228321E054
:1003E00030E03583248326E030E031832083089594
:1003F0002EE03FE0FC013383228321E030E03583AF
:10040000248326E030E0318320830895833081F017
:1004100028F4813099F08230A9F008958730A9F04E
:100420008830C9F08430B1F4809180008F7D03C0A2
:10043000809180008F7780938000089584B58F77B6
:1004400084BD089584B58F7DFBCF8091B0008F77F8
:100450008093B00008958091B0008F7DF9CFCF9345
:10046000DF93282F30E0F901E457FE4F8491F90122
:10047000E858FE4FD491F901EC59FE4FC491CC23BA
:10048000A1F081110E940602EC2FF0E0EE0FFF1F99
:10049000E65AFE4FA591B491EC91ED2381E090E0F6
:1004A00009F480E0DF91CF91089580E090E0FACFE9
:1004B0001F93CF93DF93282F30E0F901E457FE4FCD
:1004C0008491F901E858FE4FD491F901EC59FE4F9F
:1004D000C491CC23A9F0162F81110E940602EC2FA3
:1004E000F0E0EE0FFF1FE05BFE4FA591B4918FB7D8
:1004F000F894EC91111108C0D095DE23DC938FBFE6
:10050000DF91CF911F910895DE2BF8CFCF93DF932A
:1005100090E0FC01E858FE4F24918C599E4FFC015D
:1005200084918823C9F090E0880F991FFC01EA5B51
:10053000FE4FA591B491FC01E05BFE4FC591D491B3
:1005400061110DC09FB7F8948C91209582238C93F4
:100550008881282328839FBFDF91CF91089562303F
:1005600051F49FB7F8943C91822F809583238C930C
:10057000E8812E2BEFCF8FB7F894EC912E2B2C9394
:100580008FBFEACF8E3008F08E50877080648093E2
:100590007C0080917A00806480937A0080917A0058
:1005A00086FDFCCF809178009091790008952FB757
:1005B000F8946091BA047091BB048091BC0490914E
:1005C000BD042FBF0895AF92BF92CF92DF92EF92FA
:1005D000FF920F931F93CF93DF936C017B018B01ED
:1005E000040F151FEB015E01AE18BF08C017D1073D
:1005F00059F06991D601ED91FC910190F081E02DC7
:10060000C6010995892B79F7C501DF91CF911F911B
:100610000F91FF90EF90DF90CF90BF90AF90089533
:10062000FC01538D448D252F30E0842F90E0821BF8
:10063000930B541710F0CF96089501970895FC017D
:10064000918D828D981761F0A28DAE0FBF2FB11DD5
:100650005D968C91928D9F5F9F73928F90E008952D
:100660008FEF9FEF0895FC01918D828D981731F0E7
:10067000828DE80FF11D858D90E008958FEF9FEF3B
:100680000895FC01918D228D892F90E0805C9F4F11
:10069000821B91098F73992708958EEF95E00E9430
:1006A000410321E0892B09F420E0822F089580E0A6
:1006B00090E0892B29F00E944D0381110C940000D9
:1006C0000895FC01A48DA80FB92FB11DA35ABF4FE7
:1006D0002C91848D90E001968F739927848FA68941
:1006E000B7892C93A089B1898C91837080648C9395
:1006F000938D848D981306C00288F389E02D808144
:100700008F7D80830895EF92FF920F931F93CF9375
:10071000DF93EC0181E0888F9B8D8C8D98131AC03C
:10072000E889F989808185FF15C09FB7F894EE8923
:10073000FF896083E889F989808183708064808380
:100740009FBF81E090E0DF91CF911F910F91FF90CB
:10075000EF900895F62E0B8D10E00F5F1F4F0F7373
:100760001127E02E8C8D8E110CC00FB607FCFACF2E
:10077000E889F989808185FFF5CFCE010E94610368
:10078000F1CFEB8DEC0FFD2FF11DE35AFF4FF082FF
:100790009FB7F8940B8FEA89FB8980818062CFCF65
:1007A000CF93DF93EC01888D8823B9F0AA89BB89A8
:1007B000E889F9898C9185FD03C0808186FD0DC093
:1007C0000FB607FCF7CF8C9185FFF2CF808185FFB4
:1007D000EDCFCE010E946103E9CFDF91CF91089563
:1007E0002F923F924F925F926F927F928F929F9241
:1007F000AF92BF92CF92DF92EF92FF920F931F932F
:10080000CF93DF93CDB7DEB7C253D1400FB6F89484
:10081000DEBF0FBECDBF1C019E012F5F3E4FC75DE7
:10082000DE4F39832883C952D1408096F901CF5DCC
:10083000DE4F39822882C152D140CF5DDE4FA88180
:10084000B981C152D1400D911D912D913D91CF5D46
:10085000DE4FB983A883C152D140019311932193F4
:1008600031938A179B0749F7FB01CB01805C9F4FAF
:10087000DE01119641915191619171914D935D937A
:100880006D937D938E179F07A9F701E010E00C0F81
:100890001D1F00541F4FFE0131969F0180AD91AD89
:1008A000A2ADB3AD448155816681778134964C0108
:1008B0005D01072E7FE0880C991CAA1CBB1C7A9551
:1008C000D1F7702D6C017D010B2EB1E1F694E79408
:1008D000D794C794BA95D1F7B02D8C289D28AE280F
:1008E000BF286C017D010B2EBDE0CC0CDD1CEE1C85
:1008F000FF1CBA95D1F7B02D2C013D01032E33E139
:1009000076946794579447943A95D1F7302DC4283C
:10091000D528E628F728C824D924EA24FB24072E62
:100920007AE0B695A795979587957A95D1F7702D2A
:10093000C826D926EA26FB26D90194968D909D904B
:10094000AD90BC9097974D905D906D907C90840C8D
:10095000951CA61CB71CD701C601880D991DAA1DA0
:10096000BB1D2A013B0127E0769467945794479476
:100970002A95D1F76A017B0139E1CC0CDD1CEE1C14
:10098000FF1C3A95D1F74C285D286E287F284A0134
:100990005B012EE0880C991CAA1CBB1C2A95D1F780
:1009A0006A017B0132E1F694E794D794C7943A95B3
:1009B000D1F78C289D28AE28BF28482459246A24C2
:1009C0007B2423E076956795579547952A95D1F72F
:1009D0004425552566257725840F951FA61FB71F2B
:1009E00084AF95AFA6AFB7AF0E171F0709F055CF6D
:1009F000F0E0E0E041E051E04C0F5D1F405E5F4FF2
:100A0000C95DDE4F59834883C752D140CF0182531D
:100A10009E4FC35DDE4F99838883CD52D140A1E0C4
:100A2000B0E0AC0FBD1FAE0FBF1FC55DDE4FB98379
:100A3000A883CB52D14090E080E0DC011496A770EF
:100A4000BB27AA0FBB1FAA0FBB1F88248394982C17
:100A50008C0E9D1EA80DB91DCD90DD90ED90FC90E3
:100A6000DC011696A770BB27AA0FBB1FAA0FBB1FDE
:100A7000A80DB91D2D913D914D915C91CD5DDE4F3D
:100A8000288339834A835B83C352D140C35DDE4FE1
:100A9000A881B981CD52D1400D911D912D913D91EB
:100AA000C35DDE4FB983A883CD52D140C55DDE4F13
:100AB000A881B981CB52D1404D915D916D917D91CD
:100AC000C55DDE4FB983A883CB52D140040F151FFB
:100AD000261F371F2601370156E0769467945794F6
:100AE00047945A95D1F7B701A601AAE1440F551FC3
:100AF000661F771FAA95D1F74429552966297729BA
:100B000046015701BBE0B694A79497948794BA9591
:100B1000D1F726013701A5E1440C551C661C771C52
:100B2000AA95D1F7482859286A287B2844265526B3
:100B30006626772646015701B7E0880C991CAA1C47
:100B4000BB1CBA95D1F7B701A601A9E176956795C7
:100B500057954795AA95D1F7482959296A297B299C
:100B60004426552666267726C95DDE4FA881B981C1
:100B7000C752D1407E916E915E914E91C95DDE4F1C
:100B8000B983A883C752D140040F151F261F371FF2
:100B9000040D151D261D371DDC011596A770BB27FA
:100BA000AA0FBB1FAA0FBB1F88248394982C8C0EFE
:100BB0009D1EA80DB91D4D915D916D917C91CD5DEE
:100BC000DE4F88809980AA80BB80C352D1404825DF
:100BD00059256A257B254C215D216E217F214825E1
:100BE00059256A257B25400F511F621F731FDC01A9
:100BF000A770BB27AA0FBB1FAA0FBB1FAA24A394D1
:100C0000BA2CAC0EBD1EAA0DBB1D0D911D912D91D0
:100C10003C91DC011196A770BB27AA0FBB1FAA0F3E
:100C2000BB1FAA0DBB1D4D905D906D907C90DC01AB
:100C30001296A770BB27AA0FBB1FAA0FBB1FAA0D36
:100C4000BB1D4801590184289528A628B728CD90B6
:100C5000DD90ED90FC908C209D20AE20BF204022A6
:100C600051226222732275016401C428D528E62826
:100C7000F728C15DDE4FC882D982EA82FB82CF525B
:100C8000D14028013901ADE0769467945794479498
:100C9000AA95D1F768017901B3E1CC0CDD1CEE1CFB
:100CA000FF1CBA95D1F74C285D286E287F28680173
:100CB0007901A2E0F694E794D794C794AA95D1F766
:100CC00048015901BEE1880C991CAA1CBB1CBA95AD
:100CD000D1F7C828D928EA28FB284C245D246E24A3
:100CE0007F2468017901AAE0CC0CDD1CEE1CFF1CFE
:100CF000AA95D1F7B6E13695279517950795BA9538
:100D0000D1F70C291D292E293F294026512662267C
:100D10007326C15DDE4F88809980AA80BB80CF5248
:100D2000D140840C951CA61CB71CDC011396A7703F
:100D3000BB27AA0FBB1FAA0FBB1FCC24C394DC2C5C
:100D4000CC0EDD1EAC0DBD1D0D911D912D913C9164
:100D50001397040F151F261F371F0D931D932D93F7
:100D60003C931397840E951EA61EB71EC95DDE4FD9
:100D7000A881B981C752D1408D929D92AD92BC920B
:100D800013970197883FBFEF9B0709F056CEB096A7
:100D9000E11521E0F20709F02DCEF1018191919149
:100DA000A191B1911F01C75DDE4FE881F981C95260
:100DB000D1404191519161917191C75DDE4FF983AD
:100DC000E883C952D140F1013497840F951FA61FC3
:100DD000B71F80839183A283B383CF5DDE4F88806A
:100DE0009980C152D14082149304B9F690E080E01A
:100DF000CE5CDE4F0FB6F894DEBF0FBECDBFDF91E5
:100E0000CF911F910F91FF90EF90DF90CF90BF9007
:100E1000AF909F908F907F906F905F904F903F909A
:100E20002F900895CF92DF92EF92FF920F931F932E
:100E300069017A0122E0F694E794D794C7942A9541
:100E4000D1F7FB01DC0100E010E0980161917191A4
:100E5000819191910E94D6506D937D938D939D9336
:100E60000F5F1F4F2F4F3F4FC016D106E206F3060C
:100E700069F71F910F91FF90EF90DF90CF90089549
:100E8000FC01892BF9F082859385A485B585892B92
:100E90008A2B8B2BB9F4808591850A9761F0848128
:100EA0009581A681B7810196A11DB11D848395838B
:100EB000A683B78308958685882311F01686EFCF21
:100EC00081E086870895DC011E962D913C911F9745
:100ED000232B51F41F967C936E931E971296ED91DF
:100EE000FC91309709F009940895DC0152968D9198
:100EF0009C915397892BA1F453967C936E935297B0
:100F00001E968D919C911F9751969C938E9350970E
:100F10001496ED91FC911597309711F0CD0109943D
:100F20000895FC0160817181828193810E94D65075
:100F30000895FC011682178210861186428353831E
:100F40006483758388E090E091838083CF01089566
:100F5000FC011682178210861186428353836483B4
:100F6000758387E090E091838083CF010895FC0131
:100F70001682178210861186428353836483758399
:100F80008AE090E091838083CF010895FC0116826E
:100F9000178210861186428353836483758389E0A8
:100FA00090E091838083CF01089508950895809102
:100FB000BF04882361F09FB7F8942091BF0480910B
:100FC000BE04213019F48DBB9FBF08958FBF0895D3
:100FD000AF92BF92CF92DF92EF92FF920F931F9347
:100FE000CF93DF93EC018091A605882309F44AC0D2
:100FF000288139818A819B812817390709F442C0E9
:101000002091A7059091A8058091BF04882361F0E5
:101010008FB7F8943091BF04313051F53DB3309320
:10102000BE043DB33DBB8FBF2CBD9DBD0E94D7020A
:101030006B017C01AA80BB8008811981A016B106D2
:10104000D1F00E94D7026C197D098E099F09633384
:1010500071058105910578F4F80180818EBD00004D
:101060000DB407FEFDCF8EB5F80181938F01E6CF59
:101070008093BE04D9CF8A819B818017910729F084
:101080000E94D70790E080E008C00E94D7078A81BD
:101090009B8128813981821B930BDF91CF911F9116
:1010A0000F91FF90EF90DF90CF90BF90AF90089599
:1010B0000F931F93FC0180859185A285B3850097CE
:1010C000A105B10509F144815581668177814F5FA2
:1010D0005F4F6F4F7F4F44835583668377830485CB
:1010E000158526853785401751076207730721F458
:1010F00014821582168217820197A109B10980878F
:101100009187A287B387D7CF108211821282138270
:1011100014821582168217821F910F91089524E080
:1011200033E0FC013183208320E133E033832283E9
:1011300004960C94580802970C948F08089508950B
:1011400008950895DC0115962D913C912F3F3F4F56
:1011500051F0DC011396ED91FC9150E040E0BC01B0
:1011600082E090E009940895DC0114962D913C9161
:101170002F3F3F4F51F0DC011296ED91FC9150E072
:1011800040E0BC0182E090E00994089526E433E059
:10119000FC013183208322E533E0338322830496EC
:1011A0000C94580802970C94C60808950895089561
:1011B000CF92DF92EF92FF920F931F93CF93DF9323
:1011C0007C018B01EA0161157105C1F02097C1F026
:1011D0006B01C40ED51ED0E0C0E0C016D10681F070
:1011E000D701ED91FC910190F081E02DD8016D9136
:1011F0008D01C7010995C80FD91FEFCFD0E0C0E01E
:10120000CE01DF91CF911F910F91FF90EF90DF9072
:10121000CF90089590E080E008950F931F93CF93AF
:10122000DF938C01EB01E881F9810480F581E02DE9
:10123000CB010995813049F0D80115968D919C918B
:101240000097F9F4F801828110C09A819F3F29F13B
:10125000D8011396ED91FC91A385B485258536853B
:10126000A217B30739F4808B80E0DF91CF911F91F3
:101270000F9108959D012F5F3F4F348723879C93E3
:10128000F3CFDC01ED91FC910480F581E02DBE01EE
:10129000DF91CF911F910F91099481E0E6CF0F93D9
:1012A0001F93CF93DF938C01EB01E881F9810480D8
:1012B000F581E02DCB010995D801813041F01596DB
:1012C0008D919C91009771F4F801828106C013966C
:1012D000ED91FC918A81878782E0DF91CF911F9108
:1012E0000F910895DC01ED91FC910480F581E02DD2
:1012F000BE01DF91CF911F910F9109940F931F931E
:10130000CF93DF938C01EB01E881F9810480F581B3
:10131000E02DCB010995813049F0D80115968D91CA
:101320009C910097C9F5F80182811BC0F801A38147
:10133000B4811F968C911F978F3FC1F090E0029669
:101340001B96ED91FC911C971D962D913C911E973B
:101350002E1B3F0B2817390760F481E050968C93C1
:1013600080E0DF91CF911F910F91089581E090E08F
:10137000E7CF9F01280F391F4A8141932E173F075E
:10138000D9F71B962D913C911C97820F931F1C96A9
:101390009C938E931B97E4CFDC01ED91FC9104802C
:1013A000F581E02DBE01DF91CF911F910F9109943E
:1013B000089508950895089561E080E00E948602EE
:1013C00060E080E00E94580261E081E00E948602B5
:1013D00060E081E00E94580261E082E00E948602A3
:1013E00060E082E00E94580261E083E00E94860291
:1013F00060E083E00E94580261E084E00E9486027F
:1014000060E084E00E94580261E085E00E9486026C
:1014100060E085E00E94580261E086E00E9486025A
:1014200060E086E00E94580261E087E00E94860248
:1014300060E087E00E94580261E088E00E94860236
:1014400060E088E00E94580261E089E00E94860224
:1014500060E089E00E94580261E08AE00E94860212
:1014600060E08AE00E94580261E08BE00E94860200
:1014700060E08BE00E94580261E08CE00E948602EE
:1014800060E08CE00E94580261E08DE00E948602DC
:1014900060E08DE00E94580261E08EE00E948602CA
:1014A00060E08EE00E94580261E08FE00E948602B8
:1014B00060E08FE00E94580261E080E10E948602B5
:1014C00060E080E10E94580261E081E10E948602B2
:1014D00060E081E10E94580261E082E10E948602A0
:1014E00060E082E10E94580261E083E10E9486028E
:1014F00060E083E10C94580291E0843108F090E0C0
:10150000892F0895CF93DF93EB01DC01ED91FC91DE
:101510000480F581E02D0995863031F485E08883DB
:1015200081E0DF91CF91089580E0FBCFCF93DF93EF
:10153000EB01DC01ED91FC910480F581E02D099532
:10154000833029F4188281E0DF91CF91089580E003
:10155000FBCFCF93DF93EB01DC01ED91FC91048095
:10156000F581E02D0995873029F4188281E0DF911B
:10157000CF91089580E0FBCFEF92FF920F931F93DE
:10158000CF93DF931F92CDB7DEB77C018B01DB01D8
:10159000ED91FC910480F581E02DCB010995882324
:1015A000F9F0BE016F5F7F4FC8010E94A90A811147
:1015B00019C0BE016F5F7F4FC8010E94960A81115A
:1015C00011C0BE016F5F7F4FC8010E94820A811166
:1015D00009C0F70185819681009781F4828116C048
:1015E00081E0898389818E3FA1F389810F90DF910A
:1015F000CF911F910F91FF90EF900895DC01ED9135
:10160000FC910480F581E02DB80109958983EDCF27
:10161000EF92FF920F931F93CF93DF931F92CDB75B
:10162000DEB77C018B01DB01ED91FC910480F5813B
:10163000E02DCB0109958130F9F0BE016F5F7F4F3E
:10164000C8010E94A90A811119C0BE016F5F7F4FB6
:10165000C8010E94960A811111C0BE016F5F7F4FC1
:10166000C8010E94820A811109C0F7018581968113
:10167000009781F4828116C082E0898389818E3F40
:10168000A1F389810F90DF91CF911F910F91FF906E
:10169000EF900895DC01ED91FC910480F581E02D3F
:1016A000B80109958983EDCFEF92FF920F931F93B5
:1016B000CF93DF931F92CDB7DEB77C018B01DB01A7
:1016C000ED91FC910480F581E02DCB0109958230EC
:1016D000F9F0BE016F5F7F4FC8010E94960A811129
:1016E00019C0BE016F5F7F4FC8010E94A90A811116
:1016F00011C0BE016F5F7F4FC8010E94820A811135
:1017000009C0F70185819681009781F4828116C016
:1017100083E0898389818E3FA1F389810F90DF91D6
:10172000CF911F910F91FF90EF900895DC01ED9103
:10173000FC910480F581E02DB80109958983EDCFF6
:10174000EF92FF920F931F93CF93DF931F92CDB72A
:10175000DEB77C018B01DB01ED91FC910480F5810A
:10176000E02DCB0109958430F9F0BE016F5F7F4F0A
:10177000C8010E94A90A811118C0BE016F5F7F4F86
:10178000C8010E94960A811110C0BE016F5F7F4F91
:10179000C8010E94820A811108C0F70185819681E3
:1017A000009779F4828115C0898389818E3FA9F3DE
:1017B00089810F90DF91CF911F910F91FF90EF9052
:1017C0000895DC01ED91FC910480F581E02DB801D4
:1017D00009958983EDCFEF92FF920F931F93CF93DB
:1017E000DF931F92CDB7DEB77C018B01DB01ED915A
:1017F000FC910480F581E02DCB0109958530F9F04D
:10180000BE016F5F7F4FC8010E94820A811119C01B
:10181000BE016F5F7F4FC8010E94A90A811111C0EC
:10182000BE016F5F7F4FC8010E94960A811109C0F7
:10183000F70185819681009781F4828116C083E04B
:10184000898389818E3FA1F389810F90DF91CF91A8
:101850001F910F91FF90EF900895DC01ED91FC91A5
:101860000480F581E02DB80109958983EDCFEF92D1
:10187000FF920F931F93CF93DF931F92CDB7DEB7E5
:101880008C017B01BE016F5F7F4FC7010E94A90AD7
:10189000882319F089818E3F79F4D80115968D91AE
:1018A0009C91009791F0DC01ED91FC910480F58111
:1018B000E02DB7010995898389810F90DF91CF9140
:1018C0001F910F91FF90EF900895F8018281F3CF5F
:1018D0000895089581E0089580E0089581E00895D5
:1018E000EF92FF920F931F93CF93DF9300D0CDB76A
:1018F000DEB7DC0114962C91621719F06D3F09F0E8
:101900003FC08C01FC01A081B1815096ED90FC900C
:10191000DA018D919C919A838983DC01ED91FC9190
:101920000084F185E02D0995DC01ED91FC910680A4
:10193000F781E02D0995BE016F5F7F4FC801F70168
:10194000099589819A810097D9F0DC01ED91FC918C
:101950000084F185E02D0995DC01ED91FC91008476
:10196000F185E02D0995672B682B692B49F4898156
:101970009A81DC01ED91FC910484F585E02D0995B7
:101980000F900F90DF91CF911F910F91FF90EF90EB
:1019900008950F931F93CF93DF93EC01E881F981B2
:1019A00004811581DB018D919C91DC01ED91FC910D
:1019B0000480F581E02D0995BC01CE01F801DF918D
:1019C000CF911F910F910994DC0114963C916317FC
:1019D00011F06D3F41F4DC01ED91FC910480F58143
:1019E000E02DBA01099408958F929F92AF92BF9211
:1019F000CF92DF92EF92FF920F931F93CF93DF93DB
:101A00006417750709F485C0FB01A191BF01FC01B2
:101A100000811181228133816801790122E0F694ED
:101A2000E794D794C7942A95D1F70A27037024E046
:101A3000029FF0011124E459FE4F0081118122819F
:101A40003381C026D126E226F3262A2F30E0460134
:101A50005701E2E0B694A79497948794EA95D1F75A
:101A6000E901D595C795D595C795CC25C370A4E058
:101A7000CA9FF0011124E459FE4FC080D180E2805A
:101A8000F3808C249D24AE24BF2475016401A2E060
:101A9000F694E794D794C794AA95D1F7D901C4E0F6
:101AA000B595A795CA95E1F7A825A370E4E0AE9F88
:101AB000D0011124A459BE4F8D909D90AD90BC9043
:101AC000C824D924EA24FB2446015701D2E0B69465
:101AD000A79497948794DA95D1F716E035952795D2
:101AE0001A95E1F7E22FEC25E37024E0E29FF00184
:101AF0001124E459FE4F0081118122813381082590
:101B000019252A253B25FC01008311832283338379
:101B100077CFDF91CF911F910F91FF90EF90DF90E2
:101B2000CF90BF90AF909F908F90089580E00895E0
:101B300081E0089582E0089583E0089584E00895A7
:101B400085E0089586E0089587E008950895089552
:101B500008950895029738F485E0FA01DB010190B9
:101B60000D928A95E1F70895029738F48CE0FA0116
:101B7000DB0101900D928A95E1F70895FB01DA01EE
:101B8000009719F0019709F008958C9180831196C0
:101B90008D919C9112979283818313968D919C9144
:101BA00014979483838315968D919C9116979683B1
:101BB000858317968D919C911897908787831996A6
:101BC0008D919C91928781870895FB01DA0100979E
:101BD00019F0019709F008958D919C9111979183C7
:101BE000808312968D919C91139793838283149690
:101BF0008D919C9115979583848316968D919C91D8
:101C0000978386830895029730F4FA018081918149
:101C1000FB01918380830895029720F4FA0180816B
:101C2000FB0180830895029740F4FA01808191813D
:101C3000A281FB0180839183A2830895029730F4EF
:101C4000FA0180819181FB019183808308950C9436
:101C50001E0EFB01DA01009719F0019709F00895B3
:101C60008D919C9111979183808312968D919C9177
:101C70009383828308950C94290E0C94290E0C945E
:101C8000290E0C94290E0C94290E0C94290E0C94F8
:101C9000290E029738F480E2FA01DB0101900D92DF
:101CA0008A95E1F70895029750F4FA0180819181B5
:101CB000A281B381FB0180839183A283B3830895C2
:101CC0000C94530E0C94530E0C94530E0895DC0197
:101CD00016962D913C912F3F3F4F51F0DC01149609
:101CE000ED91FC9150E040E0BC0182E090E009946D
:101CF0000895FC01DB018C91A681B781228133819B
:101D0000A20FB31F8C938281938101969383828368
:101D1000208131818217930711F41382128282810C
:101D20009381448155818417950749F401962817BA
:101D3000390719F0958384830895158214820895D4
:101D4000EF92FF920F931F93CF93DF931F92CDB724
:101D5000DEB71092B8051092B7051092BA0510922E
:101D6000B905FC0100811181E280F3800E151F0589
:101D700009F1F80181918F0189838091B7059091D4
:101D8000B80501962091B5053091B60582179307E5
:101D900011F490E080E02091B9053091BA05281740
:101DA000390721F3BE016F5F7F4F85EB95E00E94FD
:101DB000790EDCCF0F90DF91CF911F910F91FF90A3
:101DC000EF900895CF93DF93EB01009729F00197EF
:101DD00019F0DF91CF91089587E0FA01DE010190BB
:101DE0000D928A95E1F7FA018781908598878F8314
:101DF000818592859A87898783859485A585B6850F
:101E00008B879C87AD87BE87E4CF029730F4FA01B9
:101E100080819181FB019183808308950C94050F4B
:101E2000029730F4FA0180819181FB0191838083D4
:101E30000895029720F4FA018081FB0180830895C0
:101E4000DC0192962D913C912F3F3F4F51F0DC01E8
:101E50009096ED91FC9150E040E0BC0182E090E072
:101E600009940895DC0151962D913C912F3F3F4FED
:101E700051F0DC011F96ED91FC9150E040E0BC0177
:101E800082E090E009940895DC011296ED91FC91B6
:101E9000309741F0DB016C91DC018D919C910995AB
:101EA00081E0089580E008959FB7F8948091B00490
:101EB000882319F081508093B0048091B00481117F
:101EC00005C08CB58F7B8CBD1092BF049FBF109254
:101ED000A6050895CF93CFB7F8948091B0048111EF
:101EE00027C0EEE6F1E08491E2E8F1E09491E82F7A
:101EF000F0E0EE0FFF1FEA5BFE4FA591B491EC916D
:101F0000E92321F461E08AE00E94580261E08AE05E
:101F10000E9486028CB580618CBD8CB580648CBDBE
:101F200061E08DE00E94860261E08BE00E94860203
:101F30008091B0048F5F8093B004CFBF81E0809325
:101F4000A605CF910895640F751F4617570739F0FE
:101F5000FC012191CF01FA012193AF01F6CFCA0113
:101F60000895A89508950E94DC0987E797E7909364
:101F700001088093000888E198E00FB6F894A895CE
:101F8000809360000FBE90936000F7CF4091B3063E
:101F90005091B4066091B5067091B6064115510591
:101FA0006105710581F080919D0690919E060097D4
:101FB00011F00E947C011092B3061092B4061092A8
:101FC000B5061092B606089510922D0C10922C0CA6
:101FD00010922F0C10922E0C0895089508950296D9
:101FE0000C94580804960C945808FC01158214822D
:101FF000178216820895FC011782168211861086B8
:102000000895089502960C94580804960C94580864
:102010000895FC0192819E7F92830895FC0190892E
:102020009E7F908B0895FC0184818160848310865B
:10203000178212861186E25BFF4F8281938195831E
:1020400084830895FC0180898160808B148A138ABF
:10205000168A158AE65AFF4F82819381958384837D
:10206000089561E070E080E090E00895DC01ED917A
:10207000FC91119712968D919C9113978E179F0743
:1020800031F011928E179F07E1F78D919C91089581
:10209000CF93DF93EA01DB01A20FB31FFC0186811E
:1020A0009781823D944039F4FB01EA17FB0749F020
:1020B00081918993FACF6A177B0719F08E918993E2
:1020C000FACFDF91CF910895EF92FF920F931F9374
:1020D000CF93DF9300D0CDB7DEB77C018B01FC013D
:1020E000118210821282FB01628173818081918151
:1020F0009B01281B390B84819581821B930B0297CE
:10210000A8F022E030E0AE014F5F5F4FC8010E94AF
:102110004810F8018281938102969383828389819A
:102120009A81F7019183808381E08283C7010F90B8
:102130000F90DF91CF911F910F91FF90EF90089535
:10214000EF92FF920F931F93CF93DF9300D000D0B5
:10215000CDB7DEB78C017B01DC0112968D919C918D
:1021600013979C01260F371F1A96ED91FC911B9730
:10217000309759F09A8389833C832B83BE016F5F2C
:102180007F4F18968D919C910995F801628173811A
:102190006E0D7F1D738362830F900F900F900F90D1
:1021A000DF91CF911F910F91FF90EF900895CF9302
:1021B000FC01A281B381808191819D01281B390B93
:1021C00084819581821B930B96958795C1E000973A
:1021D00009F4C0E0892B69F086819781823D9440A3
:1021E00059F07C9311966C93CF0162E070E00E94ED
:1021F000A0108C2FCF9108956C9311967C93F4CFFF
:102200000F931F93CF93DF93CDB7DEB72C970FB605
:10221000F894DEBF0FBECDBF8C01DB01ED91FC91C8
:10222000119712968D919C918E1B9F0BFA83E983D7
:10223000FC83EB839E838D8321EE30E138872F83EF
:102240001A8619861C861B86892B49F0D8018C9129
:10225000808361E070E0CE0101960E94A010F80139
:1022600061817281CE0101960E94D710D801139628
:102270006D917C91CE0101960E94D710F801658185
:102280007681CE0101960E94D7102C960FB6F89455
:10229000DEBF0FBECDBFDF91CF911F910F9108958B
:1022A000CF93DF93CDB7DEB7A0970FB6F894DEBF1C
:1022B0000FBECDBFFE01319620E2DF011D922A95AF
:1022C000E9F740E050E167E070E049875A876B87A3
:1022D0007C8741E050E0BA014D875E876F87788B3D
:1022E00048E050E061E070E0498B5A8B6B8B7C8B4F
:1022F00040E050E069E170E04D8B5E8B6F8B788F32
:102300008F3F910509F020F59C0145E03695279512
:102310004A95E1F7220F331F220F331FE20FF31FFD
:102320009C012F71332780819181A281B38104C0E8
:10233000B695A795979587952A95D2F78170A0961F
:102340000FB6F894DEBF0FBECDBFDF91CF910895D9
:1023500080E0F5CF8FEF08950F931F93CF93DF9316
:10236000DC0113968D919C91149720E1629FF001FE
:102370001124E80FF91F54852C9126133CC05C935F
:10238000238511968C91119786133FC011962C933B
:102390001197411121C084858F3FF1F020E1829F88
:1023A000C001112413960D90BC91A02DA80FB91F48
:1023B00016964D915D916D917C91199706811781CB
:1023C00020853185400F511F621F731F16964D9354
:1023D0005D936D937C9319978FEF838784878FEF3D
:1023E0009FEFDC0186839783A087B187DF91CF9130
:1023F0001F910F910895238570E1279F900111246B
:10240000820F931FEC015C87BBCFC485D0E1CD9FC9
:10241000C00111241396CD91DC911497C80FD91FD8
:102420002B87B7CF0F931F93CF93DF93DC0120E16E
:10243000629FC00111241396ED91FC911497E80F4F
:10244000F91F8C918F3F51F46C9311966C93838795
:102450008487DF91CF911F910F91089512968C93ED
:10246000129760E1869FC00111241396CD91DC91F3
:102470001497C80FD91F46815781608571850E81D9
:102480001F8128853985041715072607370760F14E
:102490009A858C91981302C082858C938B85838753
:1024A00082858B878A8584874E815F81688579855F
:1024B0000681178120853185401B510B620B730B00
:1024C0004E835F836887798783858F3F11F24285CA
:1024D000C0E18C9FC001112413962D913C91820F75
:1024E000931FFC014487B5CF401B510B620B730B4C
:1024F000468357836087718713962D913C9114977B
:10250000820F931FEC018C8512968C9312978F3F4C
:1025100009F0A7CF928511964C911197D0E14D9F6C
:10252000A0011124240F351FE9019C8711969C916D
:10253000119793878487828511968C938ACFCF9247
:10254000DF92EF92FF920F931F93CF93DF936F3F32
:1025500009F44FC020E1629FB0011124FC01C08149
:10256000D181C60FD71F2A852F3F09F442C04A8167
:102570005B816C817D814F3F5F4F6F4F7F4FC9F112
:102580008C01F8946C0122E0C20ED11C7E018AE01D
:10259000E80EF11C8E819F81A885B9858F3F9F4FE2
:1025A000AF4FBF4F51F040E06A85C6010E94AC11A9
:1025B000B701C8010D960E94440F8A819B81AC81AE
:1025C000BD818E839F83A887B9876A85C6010E94D3
:1025D0001212B701C80109960E94440F789481E055
:1025E000DF91CF911F910F91FF90EF90DF90CF90EF
:1025F000089580E0F5CF0F931F93CF93DF936F3F44
:1026000031F120E1629FB0011124FC01C081D18130
:10261000C60FD71F2A852F3FD1F04E815F81688575
:1026200079854F3F5F4F6F4F7F4F79F08C01F89462
:1026300040E06A8502960E94AC11BE01665F7F4F42
:10264000C8010D960E94440F789481E001C080E09B
:10265000DF91CF911F910F910895FC012281338169
:1026600044815581C9012417350720F48081918167
:10267000820F931F841B950B089541960C942D1384
:102680002091A80421110BC01092A5041092A4045B
:102690001092A7041092A60421E02093A804E091D0
:1026A000A604F091A704309731F0BC018091A404F6
:1026B0009091A50409940895EF92FF920F931F93B0
:1026C000CF93DF9300D000D0CDB7DEB78C017B0174
:1026D000DC0112968D919C91892B61F482E294E049
:1026E0009A8389838EE791E09C838B83CE01019648
:1026F0000E944013D8011296ED91FC91D7018D9163
:102700009C9111979A83898312968D919C919C83B9
:102710008B83BE016F5F7F4FD8018D919C9109958E
:102720000F900F900F900F90DF91CF911F910F910D
:10273000FF90EF900895CF93DF9300D000D0CDB7F6
:10274000DEB7FC01858196810197A9F086E294E0CD
:102750009A83898386EA92E09C838B83CE010196DB
:102760000E94401380E090E00F900F900F900F9028
:10277000DF91CF910895CF01F7CF0F931F93CF93A0
:10278000DF9300D000D0CDB7DEB78C01FC012281F1
:102790003381848195812817390761F48AE294E0B6
:1027A0009A83898389EC93E09C838B83CE01019685
:1027B0000E944013F801848195810196958384835A
:1027C000208131818217930711F4158214820F90B2
:1027D0000F900F900F90DF91CF911F910F9108955F
:1027E000CF93DC0155962D913C91569753964D9180
:1027F0005C9154974217530769F05796ED91FC91FD
:10280000E20FF31FC08141960E94BD138C2F90E010
:10281000CF9108958FEF9FEFFBCFDC0155968D91FF
:102820009C91569753962D913C91549728173907B0
:1028300041F05796ED91FC91E80FF91F808190E0EF
:1028400008958FEF9FEF08950F931F93CF93DF931A
:1028500000D000D0CDB7DEB78C01DC018D919C910A
:10286000892B61F48EE294E09A8389838CE592E06F
:102870009C838B83CE0101960E944013D801ED9179
:10288000FC9182810F900F900F900F90DF91CF916C
:102890001F910F9108953F924F925F926F927F9296
:1028A0008F929F92AF92BF92CF92DF92EF92FF9260
:1028B0000F931F93CF93DF9300D000D0CDB7DEB737
:1028C0008C016A01DC0118967C936E931797199618
:1028D0004C93312C9EE2492E94E0592E2DEE622E1F
:1028E0007724739432E3A32E34E0B32E4EEE842E7D
:1028F00099249394E32CF12CEC14FD04A0F5EE0C38
:10290000FF1CD8011796ED91FC91EE0DFF1D808103
:102910009181892B41F45A8249827C826B82CE015B
:1029200001960E944013D8011796ED91FC91EE0D8F
:10293000FF1D0190F081E02D8281381641F0BA82AE
:10294000A9829C828B82CE0101960E944013F801DD
:1029500087819085E80EF91ED701ED91FC911483D3
:1029600003833394C7CF0F900F900F900F90DF9198
:10297000CF911F910F91FF90EF90DF90CF90BF907C
:10298000AF909F908F907F906F905F904F903F900F
:1029900008950F931F93CF93DF9300D000D0CDB74E
:1029A000DEB78C01FC0186819781019761F086E397
:1029B00094E09A8389838CEE94E09C838B83CE0190
:1029C00001960E944013C8010F900F900F900F9036
:1029D000DF91CF911F910F910895CF93DF9300D096
:1029E00000D0CDB7DEB7FC01848195810197A9F0B5
:1029F00086E294E09A83898386EA92E09C838B83C3
:102A0000CE0101960E94401380E090E00F900F905D
:102A10000F900F90DF91CF910895CF01F7CFCF9313
:102A2000DF9300D000D0CDB7DEB7FC01268137811F
:102A300021303105A9F086E294E09A83898386EA01
:102A400092E09C838B83CE0101960E94401390E01C
:102A500080E00F900F900F900F90DF91CF9108952D
:102A60000E94C914F6CF0F931F93CF93DF9300D02A
:102A700000D0CDB7DEB78C01FC018681978101972C
:102A800061F086E394E09A8389838CEE94E09C83E2
:102A90008B83CE0101960E944013C8010F900F90C6
:102AA0000F900F90DF91CF911F910F9108950F9389
:102AB0001F93CF93DF9300D000D0CDB7DEB78C014A
:102AC000FC0184819581019761F086E394E09A830B
:102AD00089838CEE94E09C838B83CE0101960E94C7
:102AE0004013C8010F900F900F900F90DF91CF917E
:102AF0001F910F9108952F923F924F925F926F9284
:102B00007F928F929F92AF92BF92CF92DF92EF927D
:102B1000FF920F931F93CF93DF93CDB7DEB72D971F
:102B20000FB6F894DEBF0FBECDBF4FB64D82F894FE
:102B30007C0123EAE21A2AEFF20AD70118964D9097
:102B40005D906D907C901B974A865B866C867D8637
:102B5000812C912C540162E4262E64E0362E8C01E7
:102B6000075B1B4F4A845B846C847D844814590442
:102B70006A047B0409F4B6C0F70180859185A285BB
:102B8000B385892B8A2B8B2B09F473C084819581A3
:102B900053E0880F991F5A95E1F70088F189E02DDD
:102BA000E80FF91FC480D580C114D10409F44CC0CA
:102BB000D8018D919C911197F601E81BF90BCF017B
:102BC000F7FD17C050964D915D916D917C91539793
:102BD00041505109610971091C96ED91FC91E49FE6
:102BE0009001E59F300DF49F300D1124281739070F
:102BF00084F43AE3432E34E0532E5A82498247E567
:102C0000642E42E0742E7C826B82CE0101960E947B
:102C10004013F80184819581A681B781892B8A2B85
:102C20008B2B69F182819381D6018D939C93D38202
:102C3000C28284819581A681B7810197A109B109DA
:102C400084839583A683B783F70180859185A285C8
:102C5000B3850097A105B10519F53A8229828FEC59
:102C6000482E552453945C824B82CE0101960E94DB
:102C70004013FFEF8F1A9F0AAF0ABF0A73CF9EE37C
:102C8000492E94E0592E5A82498224E6622E22E08F
:102C9000722E7C826B82CE0101960E944013D4CFAB
:102CA00044815581668177814F5F5F4F6F4F7F4FC2
:102CB000448355836683778344845584668477840C
:102CC000441555056605770521F414821582168290
:102CD00017820197A109B109F70180879187A2871F
:102CE000B387C7CF4D804FBE2D960FB6F894DEBF89
:102CF0000FBECDBFDF91CF911F910F91FF90EF904D
:102D0000DF90CF90BF90AF909F908F907F906F900B
:102D10005F904F903F902F9008958F929F92AF9227
:102D2000BF92CF92DF92EF92FF920F931F93CF93B8
:102D3000DF93CDB7DEB7C057D1090FB6F894DEBF29
:102D40000FBECDBF5C01ECE4F0E0EC0FFD1F3A9646
:102D500085E0DF011D928A95E9F782E02D968FAF1D
:102D60002D97F9018281938120813181FC01E21B41
:102D7000F30B2F96FFAFEEAF2F9761967FAF6EAF3D
:102D8000619763965FAF4EAF639765963FAF2EAF87
:102D9000659767969FAF8EAF6797A0961FAEA09777
:102DA0008FEF9FEFDC016F968CAF9DAFAEAFBFAFE3
:102DB0006F978E010F5F1F4FA9961FAF0EAFA99798
:102DC0007E01F8E0EF0EF11CAB96FFAEEEAEAB97D6
:102DD000BE0169597F4FCE01845B9F4F0E94001155
:102DE000A701B801CE01855A9F4F0E94F40C679647
:102DF0004EAD5FAD679765966EAD7FAD6597CE01C1
:102E0000855A9F4F0E94F40C6F968CAD9DADAEAD70
:102E1000BFAD6F9780959095A095B0956B968CAF50
:102E20009DAFAEAFBFAF6B9767968EAD9FAD679707
:102E300065962EAD3FAD6597821B930B0B968C3438
:102E4000910508F089C06D961FAF0EAF6D976F9614
:102E5000FFAEEEAE6F97BE01655A7F4FCE01845B29
:102E60009F4F0E94001165968EAD9FAD6597679646
:102E70006EAD7FAD6797681B790BA7010E94A30F0A
:102E80006796EEADFFAD679765968EAD9FAD659782
:102E9000E81BF90B3796E00FF11F6D96FFAFEEAF11
:102EA0006D976F96FFAFEEAF6F9784E090E0A196BD
:102EB0009FAF8EAFA19781EE90E1A3969FAF8EAFAB
:102EC000A397A5961FAE1EAEA597A7961FAE1EAEE2
:102ED000A797CE0183599F4F6B964CAD5DAD6EADFC
:102EE0007FAD6B97DC014D935D936D937D932E9138
:102EF0002193A817B907D9F764E070E0CE01855A8D
:102F00009F4F0E94A0106796EEACFFAC6797659646
:102F10008EAD9FAD6597E81AF90A9701255F3F4F7F
:102F2000D9F04801820E931E0815190549F581E074
:102F300090E0AD969FAF8EAFAD97A9961FAE1EAE37
:102F4000A99780E19FE0AB969FAF8EAFAB97CE0184
:102F500089599F4F0E94B408C059DF4F0FB6F894AB
:102F6000DEBF0FBECDBFDF91CF911F910F91FF90BC
:102F7000EF90DF90CF90BF90AF909F908F9008958B
:102F8000C9016EEF70E00E94BC50C7010C96680F3B
:102F9000791F650189EDC81A8DEFD80AF601A08165
:102FA000B181828193818A1B9B0B8617970768F4F6
:102FB00082E090E0AD969FAF8EAFAD9781E0A8968E
:102FC0008FAFA89789E19FE0BECFF501A080B180C7
:102FD000F80181918F018D938E169F06C9F7D60156
:102FE0004D915C911197FA01E20FF31F8F01129638
:102FF0008D919C918E1B9F0B8617970708F043C0FD
:1030000082E090E0A1969FAF8EAFA19781E06C9691
:103010008FAF6C9789E19FE06F969FAF8EAF6F97F0
:10302000A1968EAD9FADA1978130910509F45DC049
:10303000029789F086E394E0A9969FAF8EAFA99797
:103040008CEE94E0AB969FAF8EAFAB97CE018959D3
:103050009F4F0E9440136C968FAD6C9722E030E03A
:10306000AD963FAF2EAFAD97A8968FAFA89789E1E9
:103070009FE0AB969FAF8EAFAB97CE01855A9F4F27
:103080000E94B40864CF4F01BFEF8B1A9B0ABF01A7
:1030900091E064177507C1F0DA018D91AD019401DB
:1030A0002F5F3F4F811105C09083F40191E04901EA
:1030B000F0CFD4018C939F5F9F3FC9F79083F901B4
:1030C00094012E5F3F4FF2CF908381E090E0A19674
:1030D0009FAF8EAFA197D401A01BB10B6D96BFAF70
:1030E000AEAF6D9780E19FE097CFCE01855A9F4F9D
:1030F0000E945715FC0100811181D6018D919C9190
:10310000E80EF91E6701D501ED91FC910190F08167
:10311000E02DC7018C199D098017910748F4D7014C
:103120001B966C91C5010995BFEFEB1AFB0AEBCF1B
:1031300060E0C501099581E090E0AD969FAF8EAF4C
:10314000AD970F5F1F4FA9961FAF0EAFA99780E1F4
:103150009FE08FCFFF920F931F93CF93DF9300D009
:1031600000D0CDB7DEB7FFB6F894DC01A35ABA4F52
:1031700018964D915D916D917C911B97452B462B37
:10318000472B61F18C0114968D919C91159723E04A
:10319000880F991F2A95E1F75096ED91FC91E80F61
:1031A000F91F26813781848195819A838983820FD3
:1031B000931F9C838B8342815381608171819E0127
:1031C0002F5F3F4FC8010E948D16F801E551FD4F5A
:1031D0006081C80187579D4F0E949F12FFBE0F90CC
:1031E0000F900F900F90DF91CF911F910F91FF9053
:1031F00008952F923F924F925F926F927F928F929B
:103200009F92AF92BF92CF92DF92EF92FF920F9375
:103210001F93CF93DF93CDB7DEB72A970FB6F894FD
:10322000DEBF0FBECDBF6C010E94D7022B013C0157
:10323000F60186819781A085B185892B8A2B8B2BFE
:1032400021F44682578260867186F60186819781D5
:10325000A085B18553014201881A990AAA0ABB0ABE
:1032600009F47EC084819581FC01E757FD4F2781D9
:10327000222309F46EC09C0125573D4F3E832D83C8
:10328000D9018C918F3F09F464C01F01B2E02B0E6D
:10329000311C255F3F4F38872F83CF0109969A87CE
:1032A0008987AD81BE810C91B0E10B9FC0011124D3
:1032B000ED81FE8103811481080F191FF8018681B9
:1032C0009781A085B18588169906AA06BB0608F4E1
:1032D00087C0881A990AAA0ABB0A41E06285C1011F
:1032E0000E94AC117801FAE0EF0EF11CB7018F815A
:1032F00098850E94440FD8011D968C911D978823B4
:10330000A1F012968D919D910D90BC91A02DF80188
:1033100086839783A087B1876285C1010E941212BC
:10332000B70189859A850E94440FD801ED90FC90E1
:103330001197E114F10439F01E968D919C9100973C
:1033400041F5F7010995ED81FE8180818F3F09F0FC
:10335000A8CFD60116964D925D926D927C921997E8
:103360002A960FB6F894DEBF0FBECDBFDF91CF9186
:103370001F910F91FF90EF90DF90CF90BF90AF9093
:103380009F908F907F906F905F904F903F902F9085
:1033900008958130910549F4D701ED91FC910480A5
:1033A000F581E02DC7010995CECF029761F6F701AF
:1033B00082819381892B61F422E234E03A8329836C
:1033C0008EE791E09C838B83CE0101960E9440138F
:1033D000D7011296ED91FC9113978D919C91E3CFBB
:1033E00088199909AA09BB0986839783A087B187A1
:1033F000B0CFEF92FF920F931F93CF93DF9300D044
:1034000000D0CDB7DEB78C016D3FB1F4DC0115966D
:103410008D919C91DC01ED91FC910084F185E02D72
:103420000995F80185819681DC01ED91FC9106807A
:10343000F781E02D0995682FD8011596ED91FC9143
:10344000169782816817A1F0862F8D7F8D3F81F0BE
:1034500019968C916817E0F086E494E09A8389834A
:1034600089EB92E09C838B83CE0101960E944013EE
:10347000D8011596ED91FC9182810F900F900F90DD
:103480000F90DF91CF911F910F91FF90EF900895D2
:1034900070E0660F771FF80187819085680F791FAC
:1034A000DB01ED90FC90F80185819681DC01ED91C6
:1034B000FC910084F185E02D0995F801F682E58202
:1034C000D701ED91FC910680F781E02DC7010995A8
:1034D000D8011596ED91FC91169792818917D9F034
:1034E000982F9D7F9D3FB9F019969C911997891748
:1034F00038F086E494E09A83898385EC92E0B2CF39
:1035000090E0880F991F17962D913C91820F931F81
:10351000DC01ED90FC90EE16FF0629F6A9CF0F9383
:103520001F93CF93DF9300D000D0CDB7DEB78C01CF
:10353000DC016D937C93FB018081882361F08AE438
:1035400094E09A83898381EF90E09C838B83CE0102
:1035500001960E944013D801ED91FC9181E0808397
:103560000F900F900F900F90DF91CF911F910F91BF
:103570000895FF920F931F93CF93DF9300D0CDB7A1
:10358000DEB78C01F62EBC01665F7F4FCE0101963F
:103590000E948F1AD80115968D919C91009749F041
:1035A000FF2039F0DC01ED91FC910084F185E02DE4
:1035B0000995F80116821582E981FA8110820F902F
:1035C0000F90DF91CF911F910F91FF900895EF928F
:1035D000FF920F931F93CF93DF9300D000D000D0C2
:1035E000CDB7DEB78C017B01BC01665F7F4FCE019A
:1035F00005960E948F1AD80115968D919C9100977F
:1036000009F1DC01ED91FC910480F581E02DB70119
:103610000995D801ED91FC91008CF18DE02D682F7A
:10362000C8010995ED81FE81108226960FB6F894A7
:10363000DEBF0FBECDBFDF91CF911F910F91FF90E5
:10364000EF9008958EE494E09A83898387E392E073
:103650009C838B83CE0101960E944013E3CFBF92DF
:10366000CF92DF92EF92FF920F931F93CF93DF934E
:1036700000D000D0CDB7DEB7BFB6F894FC01EE5C49
:10368000FB4F2081222309F453C06C0123EAC21AA4
:103690002AEFD20AF6014085518562857385452B54
:1036A000462B472B09F444C08C018F599D4F0E9433
:1036B00024148430E9F1F601E480F58083E0EE0C17
:1036C000FF1C8A95E1F780899189E80EF91EF701C0
:1036D00026813781848195819A838983820F931F04
:1036E0009C838B8342815381608171819E012F5F16
:1036F0003F4FC8010E948D16F801108AF7018081A2
:103700009181F80195878487E551FD4F6081C8015B
:1037100087579D4F0E949F1284E391E09A8389838B
:10372000BE016F5F7F4FC801845A9D4F0E94E71A08
:10373000BFBE0F900F900F900F90DF91CF911F9110
:103740000F91FF90EF90DF90CF90BF900895FC0114
:10375000EE5CFB4F21E020830C942F1BEF92FF9235
:103760000F931F93CF93DF9300D0CDB7DEB78C01BB
:10377000FB01E280F3808F599D4F0E942414843016
:1037800001F5F80184859585E816F906D1F4E5512F
:10379000FD4F6081C80187579D4F0E94FB12C801F1
:1037A0000E947B158EE391E09A838983BE016F5F4F
:1037B0007F4FC801845A9D4F0E94E71AC8010E949A
:1037C0002F1B0F900F90DF91CF911F910F91FF90C2
:1037D000EF9008952F923F924F925F926F927F9257
:1037E0008F929F92AF92BF92CF92DF92EF92FF9211
:1037F0000F931F93CF93DF9300D000D0CDB7DEB7E8
:10380000FC01EE5CFB4F1081112309F49FC03901CC
:103810002A015B016C01CB010E945011382E8823D4
:1038200009F436C12FB6F894760183EAE81A8AEFD4
:10383000F80AD70118964D915D916D917C911B9777
:103840001C968D919D910D90BC91A02D4817590704
:103850006A077B0709F478C08601075B1B4FF801F4
:1038600084859585A685B78580349105A105B10528
:1038700060F482E594E09A83898380E491E09C83FC
:103880008B83CE0101960E944013F80180899189B3
:10389000A289B38944815581668177814817590788
:1038A0006A077B0708F06DC0408551856285738586
:1038B000481759076A077B07F0F484859585849F2C
:1038C0009001859F300D949F300D11240190F0815F
:1038D000E02DE20FF31F8E0F9F1F91838083F8016D
:1038E00080859185A285B3850196A11DB11D808734
:1038F0009187A287B387D80112968D909C901397D9
:1039000014968D919D910D90BC91A02D0196A11DB5
:10391000B11DF80184839583A683B78340895189BB
:103920006289738984179507A607B70738F5D4010C
:103930008D919C919383828381E090E0D4018D935B
:103940009C938114910451F52FBE10E0812F0F90AC
:103950000F900F900F90DF91CF911F910F91FF90DB
:10396000EF90DF90CF90BF90AF909F908F907F901F
:103970006F905F904F903F902F9008951382128226
:10398000DBCF8EE394E09A8389838BE492E09C837F
:103990008B83CE0101960E944013D6CFF301808124
:1039A000918162817381681B790BA4010E94A30F2E
:1039B000D70118964D915D916D917C911B971C9646
:1039C0008D919D910D90BC91A02D481759076A07C4
:1039D0007B07C9F486E594E09A83898385E491E0C6
:1039E0009C838B83CE0101960E9440132FBEC6019B
:1039F0008F599D4F0E942414843019F0C6010E94F3
:103A00002F1B132DA3CFF30182819381208131815C
:103A1000D7014D915C91119763E0440F551F6A9552
:103A2000E1F75096ED91FC915197E40FF51FB182AB
:103A3000A0825382428295828482821B930B978359
:103A400086838D919D910D90BC91A02D0196A11D15
:103A5000B11DF70180839183A283B383448555858B
:103A60006685778584179507A607B70721F4108226
:103A7000118212821382F70180859185A285B38518
:103A80000196A11DB11D80879187A287B387AECF14
:103A9000D3018D919C9111979A83898312968D9170
:103AA0009C919C838B839E012F5F3F4FA201B501A8
:103AB000C6010E948D164ACFCF93DF9300D000D06D
:103AC000CDB7DEB7D901ED91FC911197FA83E98367
:103AD00012962D913C913C832B839E012F5F3F4F8B
:103AE0000E94EA1B0F900F900F900F90DF91CF91E3
:103AF00008952F923F924F925F926F927F928F9292
:103B00009F92AF92BF92CF92DF92EF92FF920F936C
:103B10001F93CF93DF93CDB7DEB768970FB6F894B6
:103B2000DEBF0FBECDBF7C01DC011496CD90DC90D2
:103B3000F60140805180D201ED91FC910084F18525
:103B4000E02DC20109955C01181619060CF03AC166
:103B50008601015E1D4FC8010E942D13F80180806F
:103B60009180F1E08F1A9108881A990AA814B90473
:103B70000CF44501312C212C360129ED621A2DEF70
:103B8000720AB601635D7D4F7C8B6B8BC8010C960E
:103B90009E8B8D8BD601AF5CBD4FBF87AE87F60184
:103BA000E15DFD4FF98BE88B281439040CF00AC154
:103BB000D201ED91FC910284F385E02DC2010995BB
:103BC00097FD00C18B878111F6C0C8010E942D139B
:103BD000009709F4C5C0F301A081B181F8014281C9
:103BE0005381248135812417350799F0F8016681C6
:103BF0007781FB01E20FF31F60816D932F5F3F4FD1
:103C0000F801608171812617370769F730E020E0FD
:103C1000EACFD80113961C921E92129715961C9209
:103C20001E921497F30140815181A280B380840FCA
:103C3000951F4817590749F481E090E09E838D83D2
:103C40001A82198280E19FE04FC09A01588F4F8BF2
:103C500028C0E20FF31FAE16BF06D0F02A8BB901C1
:103C6000262FAA892A1BBD852B1738F4D6012D9142
:103C70006D01DB012D93BD01F3CFBC85BF3F81F00A
:103C80002F89388D2817390758F4AE16BF0631F43E
:103C900082E090E09E838D8381E023C01082319684
:103CA0009F016F89788D6817790708F05DC06B01F7
:103CB0007FEFC71AD70AAF89B88DBC91BC87B150C6
:103CC000BD87EB2FF0E0B6016E0F7F1F788F6F8BF3
:103CD0008617970708F0BDCF82E090E09E838D8322
:103CE00083E0898389E19FE09C838B838D819E8122
:103CF0008130910509F441C0AE85BF852D913C917D
:103D0000232B51F1029761F0E6E3F4E0F887EF83AB
:103D10008CEE94E09A878987CE0107960E94401323
:103D2000AE85BF858D919C91892B61F4E2E2F4E030
:103D3000F887EF832EE731E03A872987CE0107968F
:103D40000E944013A889B9891296ED91FC911397AE
:103D500069818D919C910995CE0101960E94B408CC
:103D6000FFEF2F1A3F0A20CF81E090E09E838D83E2
:103D7000241B350B3A83298365CFCE0101960E941F
:103D80005715EB89FC8920813181232B29F3DC0134
:103D90002D913C91F3018081918198878F83820FCF
:103DA000931F9A878987BE01695F7F4F8D899E899E
:103DB0000E945C13D1CFBE01655F7F4FC8010E9496
:103DC000790ECECFD7011496ED91FC91808191812F
:103DD000DC01ED91FC910084F185E02D0995F7015E
:103DE000268121112EC0C1979CF0848195811A8271
:103DF00019821C821B829E012F5F3F4F50E040E0E2
:103E00006EE470E00E945C1D81E0D70116968C93F1
:103E100068960FB6F894DEBF0FBECDBFDF91CF918D
:103E20001F910F91FF90EF90DF90CF90BF90AF90D8
:103E30009F908F907F906F905F904F903F902F90CA
:103E4000089540972CF7848195811A8219821C82EB
:103E50001B829E012F5F3F4F50E040E06FE470E017
:103E60000E945C1DD70116961C92D2CFCF93DF9390
:103E700000D000D0CDB7DEB7D901ED91FC911197FC
:103E8000FA83E98312962D913C913C832B8370E059
:103E90009E012F5F3F4F0E94EA1B0F900F900F90E3
:103EA0000F90DF91CF910895FF920F931F93CF93BF
:103EB000DF9300D000D0CDB7DEB78C01F62EDC0149
:103EC0001A96ED91FC911B97309759F01A8219823E
:103ED0001C821B82AE014F5F5F4F18968D919C91A3
:103EE00009951A8219821C821B829E012F5F3F4F07
:103EF00050E040E06F2DC8010E94361F0F900F90D8
:103F00000F900F90DF91CF911F910F91FF90089527
:103F1000AF92BF92CF92DF92EF92FF920F931F93D7
:103F2000CF93DF9300D000D0CDB7DEB78C01FFB6C2
:103F3000F89482ED92E09A838983BE016F5F7F4F90
:103F4000C801845A9D4F0E94E71AFFBE580180E1C4
:103F5000A81A8DEFB80A7801A5E1EA1AADEFFA0ABE
:103F60006801B7E7CB1ABDEFDB0AAE14BF0439F026
:103F7000F70161917F01C6010E94FB12F6CFD801C3
:103F800058961D921D921D921C925B9750961C9202
:103F9000C8010E947B15F801E157FA4F1382128283
:103FA00015821482ED55F14081E080837801BAECEE
:103FB000EB1ABDEFFB0AF7018481958122813381E1
:103FC0003A8329839C838B83CE0101960E9436100D
:103FD000D70112968D919C91139715969C938E9371
:103FE00014978EE990E10E9458080E94DC09F801BC
:103FF000E95CFB4FE080F1803297008111818AE219
:10400000C82E81E0D82EE016F10699F0F8018191D2
:1040100091918F01DC011296ED91FC910480F58164
:10402000E02DDA82C982BE016F5F7F4F029609954B
:10403000EACF0F900F900F900F90DF91CF911F91CB
:104040000F91FF90EF90DF90CF90BF90AF900895C9
:104050000C94881FCF92DF92EF92FF920F931F93E1
:10406000CF93DF9300D0CDB7DEB70E94D7026B01AC
:104070007C0110E000E080919B0690919C06DC01A1
:10408000ED91FC910084F185E02D09951816190633
:10409000E4F40E94D7020F5F1F4F6C197D098E094F
:1040A0009F09683E73408105910578F480919B06D5
:1040B00090919C06DC01ED91FC910284F385E02D4A
:1040C00009950115B1E01B07B1F61FB7F89480E21E
:1040D00091E09A838983BE016F5F7F4F87EF98E0FD
:1040E0000E94E71A1FBF0F900F90DF91CF911F9191
:1040F0000F91FF90EF90DF90CF900895CF93DF93D3
:1041000000D0CDB7DEB78CEF98E00E942414843045
:10411000D1F48091AB068F5F8093AB069091AC0693
:104120008917B0F06091860984E299E00E94FB1241
:1041300086E191E09A838983BE016F5F7F4F87EFAD
:1041400098E00E94E71A0F900F90DF91CF910895A9
:104150008BE996E00E94AA18F6CF9F92AF92BF9289
:10416000CF92DF92EF92FF920F931F93CF93DF9343
:1041700000D000D000D0CDB7DEB78C01F62EBC0148
:10418000665F7F4FCE0105960E948F1AD801159663
:104190008D919C911697892B09F056C01796ED9139
:1041A000FC9118978081918116969C938E93159718
:1041B000892B61F48EE294E09A83898383E192E013
:1041C0009C838B83CE0101960E944013FF20E1F176
:1041D00036E4C32E34E0D32E40E2A42E42E0B42EC7
:1041E000F801E580F680D701ED91FC910680F7811A
:1041F000E02DC7010995982EBFEF8B17F1F0F8015C
:104200008185981640F0DA82C982BC82AB82CE01E9
:1042100001960E944013892D90E0880F991FD801C4
:1042200017962D913C911897820F931FFC01808166
:10423000918116969C938E931597D80115968D9122
:104240009C918E159F0561F6ED81FE811082269668
:104250000FB6F894DEBF0FBECDBFDF91CF911F9197
:104260000F91FF90EF90DF90CF90BF90AF909F9015
:104270000895AF92BF92CF92DF92EF92FF920F9389
:104280001F93CF93DF93CDB7DEB7EB970FB6F894BC
:10429000DEBF0FBECDBFFC01428153812081318141
:1042A0004217530799F490E080E0EB960FB6F8942C
:1042B000DEBF0FBECDBFDF91CF911F910F91FF9059
:1042C000EF90DF90CF90BF90AF900895FB014081B9
:1042D0005181228133812417350729F37B018C0119
:1042E0001C821B821D821F821E82198618861A86D6
:1042F0001B868AEA91E09A8389835D874C873F8792
:104300002E87188A198A1C8A1E8A1D8A188E1F8A6F
:104310001A8E198E1C8E1B8E80E891E09B8B8A8BE7
:1043200081E08F8F19A218A21BA21AA21DA21CA2A3
:104330001FA21EA28EE891E09E8F8D8F82E08AA739
:104340001CA61BA61EA61DA618AA1FA61AAA19AA55
:104350008CE991E099A788A7CE0142969CAB8BABE4
:104360000B969EAB8DAB0B9698AF8FAB43E050E0B6
:10437000BE016D5C7F4F87970E944B1461E0CE01B8
:1043800001960E94AD20F801C280D3800081118186
:1043900088ECA82E81E0B82E8989C016D10689F054
:1043A00081110CC0F8018081BAAEA9AE8BAFBE01FD
:1043B000675C7F4FCE0101960E94E71A0F5F1F4F87
:1043C000EBCF811170CFCE0106960E94241481118B
:1043D0006ACF8C859D85F70120813181821B930BEB
:1043E00064CF3F924F925F926F927F928F929F9293
:1043F000AF92BF92CF92DF92EF92FF920F931F93F3
:10440000CF93DF93CDB7DEB7E7970FB6F894DEBF53
:104410000FBECDBF8C01DB01ED90FC901197129681
:10442000AD90BC9045018E189F08C4010B97813454
:10443000910548F082E090E09B8B8A8B9A83898378
:1044400085E09FE0C4C0FD8AEC8AFF8AEE8A998EDF
:10445000888E81EE90E19B8F8A8F1FA28FEF9FEF56
:10446000DC018BA39CA3ADA3BEA3A40144505109BE
:104470004E0D5F1DB701CE0183960E94F40CEE89AC
:10448000FF898C899D899F01281B390B888D998D07
:10449000C12CD12C2817390739F0CF0101969F8BF9
:1044A0008E8BD080CC24C394BE016C5E7F4FCE0136
:1044B000C5960E946410BE016C5E7F4FCE01C1960E
:1044C0000E946410BE016C5E7F4FCE018B960E94ED
:1044D0006410CC2009F4AECF8FA9882309F4AACFA9
:1044E0008BA9882309F4A6CF8DA5882309F4A2CF30
:1044F000B2E0DB129FCFCDA8DEA8C6010B968816CE
:10450000990609F097CFEFEFCE16DE0631F056018F
:10451000F7E0AF0EB11CAE0CBF1C89A89AA86BA423
:104520007CA42E893F894C895D89888D998DB9013C
:10453000641B750BDC01A61BB70BAC15BD0520F089
:104540002C0D3D1D3F8B2E8B6E897F899B01241B7B
:10455000350B821B930B049708F475C024E030E000
:10456000AE014F5F5F4FCE0144960E9448108E8986
:104570009F8904969F8B8E8B49815A816B817C81A8
:104580008BA19CA1ADA1BEA180959095A095B09561
:1045900084179507A607B70709F055C021E030E05A
:1045A0003B8B2A8B22E02983DB82CA829D828C820C
:1045B0007F826E82E7E0EE0EF11CF986E886BB860C
:1045C000AA868C879D87AE87BF8782EE9EE0998BF7
:1045D000888B8A899B8981309105E1F1029761F08E
:1045E00086E394E09D8B8C8B8CEE94E09F8B8E8B7E
:1045F000CE0144960E94401389819A81D8015E962B
:104600009C938E935D9763E3C8010E94541FCE0173
:1046100001960E94320FE7960FB6F894DEBF0FBEE8
:10462000CDBFDF91CF911F910F91FF90EF90DF9061
:10463000CF90BF90AF909F908F907F906F905F9042
:104640004F903F90089582E090E09B8B8A8B81E0B1
:1046500090E0F4CE1C8E1B8E1E8E1D8E87E0FE0118
:104660003196DE01549601900D928A95E1F72885E6
:1046700039858A859B854C815D8157FD0BC03C8FB8
:104680002B8F9E8F8D8F86E69EE09EA78DA718AA02
:104690001FA632C07801B0EDEB1ABCEFFB0AF701A0
:1046A000A801405D5B4FE417F50711F01192FBCFB5
:1046B000FCA2EBA2FEA3EDA33CA72BA79EA78DA770
:1046C000BE016D5D7F4FCE018B960E943921009710
:1046D00061F5488559852A853B854217530729F19D
:1046E00085E09FE09EA78DA781E090E098AB8FA723
:1046F00082E090E09CA78BA78FA598A90197F1F481
:10470000CE018B960E945715FC0180819181D801C2
:104710005E969C938E935D9763E3C8010E94541F3D
:10472000CE018B960E94B40872CFFC8EEB8EE80E01
:10473000F91EFE8EED8E9E8B8D8BA5CF8F88988C6B
:10474000E89497F87801B1E7EB1ABAEFFB0AF701A2
:10475000A280B38044805580698C7A8CC2019C0110
:10476000220F331F6C01AC14BD04C9F0D70116969B
:10477000ED91FC91E20FF31F8081918186159705E1
:1047800079F0BFEFCB1ADB0A2E5F3F4F90E080E05D
:10479000F70140815181C416D50629F7E0CF6501A4
:1047A00033243394CA14DB0409F4312CC4010E946D
:1047B00050119E012C5E3F4F3CA32BA39EA28DA2C5
:1047C00078A66FA239A68AA7CA14DB0409F041C0F3
:1047D000FFEFCF1ADF0AD7018D919C91C816D90639
:1047E00011F4D12CC12C4C145D0419F4C7010E94A2
:1047F000BD13298D3A8DF70182819381880F991F0E
:104800000680F781E02DE80FF91F31832083D7015F
:1048100012968D919C911397019613969C938E936B
:1048200012972D913C9111978217930721F41396BB
:104830001C921E921297F7018281938144815581C7
:104840008417950731F401962817390769F1958384
:104850008483F801EA5CFD4F248135818281938154
:104860002817390721F18DA19EA186349105F9F011
:104870008B7F80349105D9F0C8018F599D4F0E94DC
:1048800024148350823098F01AAA19AA1CAA1BAAD1
:104890004FA158A59E012F5C3F4F61E3C8010E94C4
:1048A000361FCE018B963ECF15821482D2CF8DA1BA
:1048B0009EA18F3F910509F0B8F4880F991F880FCA
:1048C000991FD801A755BA4FA80FB91FED91FC91B8
:1048D000119712968D919C919C01217033273097EE
:1048E000B1F42115310599F4D8011696ED91FC919A
:1048F0001797309739F06BA17CA114968D919C91FC
:104900000995CFCF61E3C8010E94541FCACF959586
:104910008795800F911F232B41F0DC012D913C9155
:10492000E20FF31F0190F081E02DBE016D5D7F4F1E
:10493000E7CF2091D20A3091D30A4091D00A50910A
:10494000D10A241B350B359527954091CE0A5091FD
:10495000CF0A2417350729F0BC018EEC9AE00C949D
:104960003C4808958F929F92AF92BF920F931F93EE
:10497000CF93DF93CDB7DEB7A1970FB6F894DEBF24
:104980000FBECDBF19A2423008F44AE08E010F5D80
:104990001F4F842E912CB12CA12CA50194010E94B3
:1049A0009A50E62FB901CA01EA3044F5E05DD8011A
:1049B000EE938D01232B242B252B79F790E080E0BB
:1049C000109769F0FD0101900020E9F73197AF01E0
:1049D0004A1B5B0BBD0180EC94E00E94D808A196B5
:1049E0000FB6F894DEBF0FBECDBFDF91CF911F9100
:1049F0000F91BF90AF909F908F900895E95CD7CFB3
:104A000042E050E06EE574E080EC94E00C94D8084D
:104A10004F925F926F927F928F929F92AF92BF92CE
:104A2000CF92DF92EF92FF920F931F93CF93DF937A
:104A30005C018B0169017A01009709F4C6C0672BFC
:104A400041F4CD28CE28CF2809F0BFC090E080E007
:104A5000ABC04C0180E6880E911CF40180819181ED
:104A6000A281B38180349105A105B10508F0B0C0E1
:104A700034964080518062807380BA01A901440D50
:104A8000551D661D771D40835183628373834415D2
:104A900055056605770568F4349640815181628139
:104AA00073814F5F5F4F6F4F7F4F408351836283AE
:104AB0007383E501A0960097A105B10509F441C0F3
:104AC00020E4422E512C612C712C481A590A6A0A92
:104AD0007B0AC414D504E604F70410F42601370158
:104AE0008C0F9D1FA201B8010E94F650F401808135
:104AF0009181A281B381840D951DA61DB71D808370
:104B00009183A283B383040D151DC418D508E6084C
:104B1000F70880349105A105B10599F420E430E04F
:104B200040E050E0BE01CE010E941207BE01C50167
:104B30000E94F0030097C1F5F401108211821282E5
:104B4000138280E4C816D104E104F10488F4C1148E
:104B5000D104E104F10409F479CFA601B801CE0132
:104B60000E94F650F401C082D182E282F3826ECFBD
:104B700080E4F801DE0101900D928A95E1F7005C76
:104B80001F4FF0E4CF1AD108E108F10820E430E02B
:104B900040E050E0BE01CE010E941207BE01C501F7
:104BA0000E94F003009769F2DF91CF911F910F915E
:104BB000FF90EF90DF90CF90BF90AF909F908F903D
:104BC0007F906F905F904F90089583E59FEFECCFBB
:104BD0008CE79FEFE9CF8F929F92AF92BF92CF92D7
:104BE000DF92EF92FF920F931F93CF93DF936115A4
:104BF0007105A9F483E59FEF232B242B252B11F4BA
:104C000090E080E0DF91CF911F910F91FF90EF90A6
:104C1000DF90CF90BF90AF909F908F900895211517
:104C200031054105510561F349015A018B01EC0140
:104C30006C012FEEC21A2EEFD20AF60180819E017E
:104C4000205F3E4F7901811113C0F90180818630C8
:104C500061F420E430E040E050E0BE0162597F4F53
:104C6000CE010E940825009769F681E0F601808355
:104C7000F7018081863021F6A5019401B801CE01AB
:104C8000DF91CF911F910F91FF90EF90DF90CF9028
:104C9000BF90AF909F908F900C9408252F923F92D9
:104CA0004F925F926F927F928F929F92AF92BF923C
:104CB000CF92DF92EF92FF920F931F93CF93DF93E8
:104CC0003B017C0120E6E20EF11CF701408151819D
:104CD00062817381403451056105710508F017C187
:104CE000EC018C01005E1F4FDB01CA010196A11D82
:104CF000B11D80839183A283B383400F511F80E84D
:104D0000FA018083F70180819181A281B381893387
:104D10009105A105B10520F180349105A105B105EA
:104D200050F440E450E0481B590B800F911F70E095
:104D300060E00E94115120E430E040E050E0B80112
:104D4000C8010E941207B801CE010E94F0036C0155
:104D5000892B09F0C8C0F7011082118212821382D8
:104D6000F7018081918148E350E0481B590B70E0C6
:104D700060E0800F911F0E9411514E01F4E68F0EEA
:104D8000911CF40140815181628173815E01F8E6DA
:104D9000AF0EB11CF50180819181A281B38123E026
:104DA000880F991FAA1FBB1F2A95D1F71A012B0143
:104DB0003DE156944794379427943A95D1F7820D64
:104DC000931DA41DB51D80839183A283B383E3E06B
:104DD000440F551F661F771FEA95D1F7F4014083F2
:104DE00051836283738328E330E040E050E0B801F0
:104DF000C8010E94120784E0F501DE01A85ABF4FE6
:104E000001900D928A95E1F784E0F401DE01A45A45
:104E1000BF4F01900D928A95E1F7B801CE010E9433
:104E2000F0036C01892B09F05EC020E230E040E025
:104E300050E0BE01CE010E94120780E2FE01D301C4
:104E400001900D928A95E1F787E696EEA9E0BAE621
:104E500088839983AA83BB8385E89EEAA7E6BBEB98
:104E60008C839D83AE83BF8382E793EFAEE6BCE382
:104E700088879987AA87BB878AE395EFAFE4B5EA6D
:104E80008C879D87AE87BF878FE792E5AEE0B1E55F
:104E9000888B998BAA8BBB8B8CE898E6A5E0BBE945
:104EA0008C8B9D8BAE8BBF8B8BEA99EDA3E8BFE11A
:104EB000888F998FAA8FBB8F89E19DECA0EEBBE50F
:104EC0008C8F9D8FAE8FBF8FF7011082118212825F
:104ED0001382F4011082118212821382F501108272
:104EE000118212821382C601DF91CF911F910F911F
:104EF000FF90EF90DF90CF90BF90AF909F908F90FA
:104F00007F906F905F904F903F902F90089580E436
:104F1000C82EDD24DA94E7CFCF92DF92EF92FF9292
:104F20000F931F93CF93DF93EC017B018C010F5EF6
:104F30001E4FF80180819E01205F3E4F6901811163
:104F400013C0F9018081863061F420E430E040E054
:104F500050E0BE0162597F4FCE010E9408250097A4
:104F600079F581E0F8018083F6018081863089F54A
:104F70006E01FEEECF0ED11CB601CE010E944E2670
:104F80000097F1F420E430E040E050E0BE016255CB
:104F90007F4FCE010E940825009791F420E230E077
:104FA00040E050E0B601CE010E940825009741F490
:104FB000B701CE010E944E26009711F4F80110822D
:104FC000DF91CF911F910F91FF90EF90DF90CF90E5
:104FD000089583E59FEFF4CFFC01118210821382C4
:104FE0001282158214821782168217861686158AF7
:104FF000148A178A168A118E108E138E128E158EB1
:10500000148E178E168E11A210A271876087738777
:105010006287605C7F4F758764870895AF92BF9207
:10502000CF92DF92EF92FF920F931F93CF93DF9374
:105030008C016B017A015901D0E0C0E0D8011296D1
:10504000ED91FC91A5014C1B5D0BB6016C0F7D1F12
:10505000C8010995F80122893389232B59F49C0151
:10506000215031092E3F3F4F40F062E070E0C8010F
:105070000E947507D0E0C0E005C0C80FD91FCE154B
:10508000DF05E0F2CE01DF91CF911F910F91FF90EC
:10509000EF90DF90CF90BF90AF900895FC0184E136
:1050A000DF011D928A95E9F777876687640F751F80
:1050B000718B608B0895FC01CF019F012370332712
:1050C000232BF1F49B012430310508F59B01369523
:1050D000279536952795F901EE0FFF1FEE0FFF1F5D
:1050E000E80FF91F4CEF4203C001439F900D1124BC
:1050F000680F791F6E0F7F1FE617F70779F4089581
:1051000061157105E1F3119261507109D5CF1192CA
:1051100011921192119224503109D5CF1192ECCFF6
:10512000CF93DF93EC01FC01E05FFE4F808186307E
:1051300029F46EE670E0CE010E945B2862E171E026
:10514000CE01DF91CF910C945B284F925F926F92CA
:105150007F92AF92BF92CF92DF92EF92FF920F9326
:105160001F93CF93DF93EC018B0129013A01672B49
:1051700041F483E59FEF411451046104710409F087
:105180009DC07E0182EFE81A8EEFF80AF701C08019
:10519000D1805E01F0EFAF1AFEEFBF0AF50180810A
:1051A000882319F0CE010E949028FE01EF5EFE4F89
:1051B000108286E0F501808387E696EEA9E0BAE6E4
:1051C00088839983AA83BB8385E89EEAA7E6BBEB25
:1051D0008C839D83AE83BF8382E793EFAEE6BCE30F
:1051E00088879987AA87BB878AE395EFAFE4B5EAFA
:1051F0008C879D87AE87BF878FE792E5AEE0B1E5EC
:10520000888B998BAA8BBB8B8CE898E6A5E0BBE9D1
:105210008C8B9D8BAE8BBF8B8BEA99EDA3E8BFE1A6
:10522000888F998FAA8FBB8F89E19DECA0EEBBE59B
:105230008C8F9D8FAE8FBF8FFE01E05AFF4F108283
:10524000118212821382349610821182128213828A
:10525000349610821182128213823496D182C082D7
:10526000F701D182C0827E01FEE6EF0EF11C81E4DF
:10527000481651046104710480F50115110529F0E7
:10528000A201B801C7010E94F650E0E44E16510495
:1052900061047104A9F5F701DE01A255BF4FC251A7
:1052A000DF4F2CE596E3808182278D9380818927CB
:1052B0008193CA17DB07B9F790E080E0DF91CF91C7
:1052C0001F910F91FF90EF90DF90CF90BF90AF9024
:1052D0007F906F905F904F900895A3019201B80165
:1052E000CE010E940825009749F7B701CE010E9420
:1052F0004E26009719F780E2482E512C612C712C14
:1053000040E450E044195509C701840D951D70E033
:1053100060E00E941151BFCF2F923F924F925F9257
:105320006F927F928F929F92AF92BF92CF92DF92B5
:10533000EF92FF920F931F93CF93DF93CDB7DEB71A
:10534000CD55D1400FB6F894DEBF0FBECDBFFB01E7
:10535000DC011296ED90FC9013972D903C90D901B2
:1053600012966D907C9013978D919C91C85ADE4F48
:1053700099838883C855D140DA016D917C9111974A
:1053800012962D913C91261B370B50E040E0A280F5
:10539000B380808091806115710561F4BE016D5EFE
:1053A0007E4F80E2FB0111928A95E9F720E230E01E
:1053B00040E050E08E010F5F1F4F82E191E0D80185
:1053C000FC011D923197E9F7C8010E94A5286C01E4
:1053D000892B99F4A818B908950150E040E0B40170
:1053E000C8010E94EB256C01892B39F4BE016D5C6C
:1053F0007E4FC8010E948C276C01C8010E94902832
:10540000CD2809F09CC081E0CD5ADE4F8883C3557A
:10541000D1402114310409F492C0E218F308C70105
:10542000B0E0A0E0CC5ADE4F88839983AA83BB8387
:10543000C455D1409FE1E922FF2481E090E0A0E043
:10544000B0E0EF2819F480E090E0DC01CC5ADE4FA8
:10545000488159816A817B81C455D14025E0769588
:105460006795579547952A95D1F7840F951FA61FE5
:10547000B71F8F3F9105A105B10511F008F05FC07E
:1054800082E191E0D801FC011D923197E9F7FE011C
:10549000ED5EFE4F80E2DF011D928A95E9F7812CD7
:1054A000912C54018F01C85ADE4FE881F981C8550B
:1054B000D1406E1A7F0AC301B0E0A0E0C65ADE4FA9
:1054C00088839983AA83BB83CA55D140CC5ADE4FC7
:1054D00088819981AA81BB81C455D14088169906DB
:1054E000AA06BB0640F5CD5ADE4F8881C355D14090
:1054F000412C512C3201813029F090E2492E512C5F
:10550000612C712CCC5ADE4FC880D980EA80FB8098
:10551000C455D140C818D908EA08FB0820E230E099
:1055200040E050E0BE016D5C7E4FCE0101960E94CE
:10553000A528892BF1F0CE0101960E949028C35A2C
:10554000DE4F0FB6F894DEBF0FBECDBFDF91CF9117
:105550001F910F91FF90EF90DF90CF90BF90AF9091
:105560009F908F907F906F905F904F903F902F9083
:105570000895A3019201B801CE0101960E94EB2586
:10558000892BC9F6C65ADE4F288139814A815B8151
:10559000CA55D140C85ADE4F68817981C855D1407B
:1055A000CE0101960E94EB25892B29F621E030E0FF
:1055B00040E050E0BE016D5A7E4FCE0101960E9440
:1055C000EB25892B09F0B7CFB801CE0101960E94D7
:1055D0008C27892B09F0AFCF91E2C916D104E104E1
:1055E000F10428F080E2C82ED12CE12CF12CC1016D
:1055F000880D991DA601B8010E94F6508C0C9D1CC7
:10560000AE1CBF1CCD5ADE4F8881C355D1408F5F81
:10561000CD5ADE4F8883C355D14058CFCF93DF9307
:10562000EC018A859B8528853985821B930BE88D43
:10563000F98D22813381280F391F33832283EE892C
:10564000FF8922813381820F931F9383828380E0BD
:1056500090E10E946C4F0097E9F467E070E0CE01A2
:105660000E9463078E859F85892B89F4E88DF98DCB
:10567000828193818E0F9F1F998788878281938172
:105680008E0F9F1F9B878A87F05FFD87EC87DF91D6
:10569000CF910895FC011182108224E030E0338321
:1056A0002283E88DF98D91838083998F888FDACF5B
:1056B000CF92DF92EF92FF920F931F93CF93DF93DE
:1056C000EC017B018A018E859F85892B39F54A85FE
:1056D0005B858C899D89892B51F18A859B852C85D9
:1056E0003D85281B390B68012017310708F4690133
:1056F000A601B7010E94F6508A859B858C0D9D1DE1
:105700009B878A87EC0CFD1C0C191D0939F0CE0112
:105710000E940E2B8E859F85892BF9F2DF91CF9108
:105720001F910F91FF90EF90DF90CF900895E88147
:10573000F981309769F466E070E0CE01DF91CF9196
:105740001F910F91FF90EF90DF90CF900C94630723
:10575000688579857B876A87461B570BCE0109953B
:105760008E859F85892BD1F68A859B852C853D85E5
:10577000281B390B2017310770F4E881F981A80143
:10578000B701CE01DF91CF911F910F91FF90EF9064
:10579000DF90CF900994A801B7010E94F6508A8546
:1057A0009B85080F191F1B870A87B8CF0F931F937C
:1057B000CF93DF93EC014A855B858E859F85892B8E
:1057C00011F080E00DC08B018C899D89892B69F0D7
:1057D000CE010E940E2B81E02E853F85232B89F779
:1057E000DF91CF911F910F910895E881F98166E0D3
:1057F00070E03097B9F0688579857B876A87461BAA
:10580000570BCE0109958E859F85892BD1F68C8506
:105810009D852A853B85821B930B8017910730F469
:1058200062E070E0CE010E946307CBCF81E0D8CF69
:105830001F93CF93DF93EC01142F8C899D890E94D5
:1058400040072C853D858A859B8528173907E1F01F
:10585000EA85FB85106910838A859B8501969B8765
:105860008A87EC89FD89309759F082859385A485D4
:10587000B5850196A11DB11D82879387A487B58741
:10588000DF91CF911F91089561E070E0CE010E94F9
:10589000D62B8111DDCFE5CFEF92FF920F931F93AF
:1058A000CF93DF93EC01FB01E080F1800281138153
:1058B0000E191F098C899D890E9440078C859D8542
:1058C0002A853B85821B930B0F3F110509F040F59C
:1058D000029758F0EA85FB8584EC808301838A85F2
:1058E0009B8502969B878A8707C062E070E0CE01A5
:1058F0000E94D62B8111EECF8A859B852C853D8514
:10590000281B390BA801B70120173107E8F4CE0195
:10591000DF91CF911F910F91FF90EF900C94582B36
:10592000039750F0EA85FB8585EC80831183028321
:105930008A859B850396D6CF63E070E0CE010E94F6
:10594000D62B8111EFCFD8CF0E94F6508A859B8548
:10595000080F191F1B870A87DF91CF911F910F91A5
:10596000FF90EF900895AF92BF92CF92DF92EF92A7
:10597000FF920F931F93CF93DF93CDB7DEB7A69718
:105980000FB6F894DEBF0FBECDBF8C016B015A017C
:105990007901BC0160517D4FCE0101960E94EC2738
:1059A00041E050E060E070E0CE0101960E94182CCA
:1059B000F701808191819CA38BA3828193819EA317
:1059C0008DA3BE016D5D7F4FCE0101960E944C2CD0
:1059D0008F859889892B09F58B859C8529853A8542
:1059E0003CA32BA39EA38DA39E012D5D3F4FA5013C
:1059F000B601C8010E945C1DA6960FB6F894DEBFE2
:105A00000FBECDBFDF91CF911F910F91FF90EF900F
:105A1000DF90CF90BF90AF90089580E0EDCFDF9200
:105A2000EF92FF920F931F93CF93DF9300D000D09C
:105A3000CDB7DEB77C01D62E8C01065A1F4FF80178
:105A40008481958122813381BC01621B730B40816B
:105A500051816417750731F582179307D9F13A839D
:105A600029839C838B839E012F5F3F4F50E040E052
:105A700060E670E08BE996E00E94B32C882329F061
:105A8000F8018281938195838483F80184819581D3
:105A900022813381AC01421B530B2081318142179B
:105AA0005307C1F0FC01D082F701E25AFF4F808119
:105AB000918101969183808381E090E00F900F9017
:105AC0000F900F90DF91CF911F910F91FF90EF906A
:105AD000DF90089590E080E0F1CF0F931F93CF9374
