:100000000C94C0020C94E8020C94E8020C94E802F0
:100010000C94E8020C94E8020C94E8020C94E802B8
:100020000C94E8020C94E8020C94E8020C94E802A8
:100030000C94E8020C94E8020C94E8020C94E80298
:100040000C94BF6A0C94E8020C942F6B0C94096B0F
:100050000C94E8020C94E8020C94E8020C94E80278
:100060000C94E8020C94E8020412004008120440C8
:100070000C120840000000000516010000004200BC
:100080000000000005160100000042000000000012
:1000900004120040000000000516010000001200DC
:1000A00009160100120012000000000004120040B6
:1000B0000000000004120040081204400C12084026
:1000C00000000000041200400000000005170100BD
:1000D00000000800091701000800300000000000BF
:1000E0000412004000000000041200400812044006
:1000F0000D16010008002200111601002A0022003E
:1001000014104C1018104D101C104E100000000060
:100110000412004000000000041200400000000033
:100120000517010000003C00000000000517010059
:100130000000400000000000051701000000400022
:100140000000000005170100000040000916010032
:1001500040004200000000000516010000004200BF
:1001600000000000041200400000000004120040E3
:100170000000000005160100000042000000000021
:1001800005160100000042000000000005170100F4
:100190000000200000000000051701000000200002
:1001A0000916010020004200000000000412004077
:1001B0000000000004120040000000000412004093
:1001C000000000000412004008120440000000007B
:1001D0000412004008120440000000000412004015
:1001E000081204200000000004120040081204401D
:1001F0000C12084010120C4014101010181011109E
:100200001C10121020101310241014102810151098
:100210002C10161030101710341018103810191038
:100220003C101A1040101B1044121C40000000002B
:1002300004120040000000000412004008120440B4
:100240000C12084000000000041200400812044094
:100250000C120840111601000C000E001936012086
:100260001C0052001D3801201C000C002138012008
:100270001C000400253801201C0020002938012022
:100280001C0006002D3801201C0008003138012018
:100290001C000800353801201C00040039380120FA
:1002A0001C0004003D3801201C00040041380120DE
:1002B0001C004200453801201C0062004938012022
:1002C0001C0020004D3801201C0042005138012044
:1002D0001C004200553801201C0004005938012040
:1002E0001C0004005D3801201C0042006138012020
:1002F0001C008200653801201C0040006938012084
:100300001C0040006D3801201C00420071380120A3
:100310001C003C00753801201C00040079380120C5
:100320001C0004007D3801201C004F008138012092
:100330001C000400853801201C0038008938012089
:100340001C0004008D3801201C000C009138012095
:100350001C000400953801201C002400993801205D
:100360001C0004009D3801201C004200A13801201F
:100370001C004200A53801201C000C0000000000F9
:1003800005160100000042000000000005160100F3
:100390000000420000000000436F6D616E646F203A
:1003A000525043206E6F206D616E656A61646F3AD2
:1003B0002049443D3078004572726F722064652098
:1003C00045737461646F3A203078004A004C0050E5
:1003D00000510052006000700083009000B000B334
:1003E00000B400380079624000F36942007E69443D
:1003F000001E614600465248000A694A00C1584C36
:100400000066584E00C2504F00B25050000D585177
:1004100000A757520051575300AA685400AA6860B9
:1004200000F25672009356830034568400F35585CB
:1004300000B4559000E0599100785D9200555993B1
:10044000005555A3000655A5009F54A6002654B09C
:10045000005C50B1004568B3003C50B400CD53007F
:1004600000000023002600290068616E6473686143
:100470006B652D617574686D63756272696467651B
:100480002D763273657373696F6E2D6B6579537555
:10049000963F9E709B58415041BAD2D44DE21F50B6
:1004A000800E0841B87E0DADFCDFE362B26C4A6F8E
:1004B00076656E63696C6C6F20656D706F6E7A6FB8
:1004C000C3B161646F20646520776869736B792CB0
:1004D000207175C3A920666967757269746173209C
:1004E0006578686962656B6579BA7816BF8F01CFE8
:1004F000EA414140DE5DAE2223B00361A396177A44
:100500009CB410FF61F20015AD61626342726964D0
:1005100067652073696E63726F6E697A61646F20BC
:1005200079206F706572616E646F2E0000000000AC
:10053000240027002A0000000000250028002B00CE
:100540000404040404040404020202020202030379
:100550000303030301020408102040800102040881
:100560001020010204081020000000080002010011
:10057000000304070000000000000000716B616BC5
:1005800011241FBECFEFD8E0DEBFCDBF16E0A0E044
:10059000B1E0E6ECF7EE02C005900D92AE3FB10778
:1005A000D9F72EE0AEEFB6E001C01D92AB3EB20728
:1005B000E1F712E0CFEBD2E004C02197FE010E94E8
:1005C000FE72CE3BD107C9F70E94796F0C94D673A7
:1005D0000C940000EF92FF92CF93DF93DC013091F7
:1005E000E1098091D809831778F5E090D109F0905E
:1005F000D20980E0381741F1F70190E1E90EF11CD2
:10060000E701269798819F3FE9F4B183A083428355
:100610005383648375834FEF5FEFBA01468357833B
:1006200060877187828793879487258717861686C8
:100630009091D8099F5F9093D809DF91CF91FF9057
:10064000EF9008958F5FD6CF8FEFF7CFCF92DF92E5
:10065000EF92FF92CF93DF93EC016A017B01E8896F
:10066000F98982E08083C11481EED806E104F104A7
:10067000A1F060E079E08DE390E0A70196010E948F
:10068000DC7221503109410951095695479537953A
:100690002795211580E1380798F0E889F9891082BB
:1006A00060E874E88EE190E0A70196010E94DC7298
:1006B000215031094109510956954795379527959C
:1006C000EC85FD853083EE85FF852083188EEC89CF
:1006D000FD8986E08083EA89FB898081806180834F
:1006E000EA89FB89808188608083EA89FB8980812F
:1006F00080688083EA89FB8980818F7D8083DF9198
:10070000CF91FF90EF90DF90CF90089521E030E0FF
:10071000FC013383228326E030E031832083089577
:1007200021E030E0FC013483238326E030E0318394
:100730002083089521E030E0FC013383228326E00A
:1007400030E0318320830895833081F028F48130B4
:1007500099F08230A9F008958730A9F08830C9F067
:100760008430B1F4809180008F7D03C0809180003F
:100770008F7780938000089584B58F7784BD089526
:1007800084B58F7DFBCF8091B0008F778093B000D0
:1007900008958091B0008F7DF9CF1F93CF93DF93A1
:1007A000282F30E0F901E859FA4F8491F901EC5A09
:1007B000FA4FD491F901E05CFA4FC491CC23A9F02F
:1007C000162F81110E94A403EC2FF0E0EE0FFF1F03
:1007D000EA5CFA4FA591B4918FB7F894EC9111119E
:1007E00008C0D095DE23DC938FBFDF91CF911F919E
:1007F0000895DE2BF8CFCF93DF9390E0FC01EC5A05
:10080000FA4F2491805C9A4FFC0184918823C9F0AF
:1008100090E0880F991FFC01E45DFA4FA591B49117
:10082000FC01EA5CFA4FC591D49161110DC09FB7EC
:10083000F8948C91209582238C9388812823288397
:100840009FBFDF91CF910895623051F49FB7F89424
:100850003C91822F809583238C93E8812E2BEFCFC0
:100860008FB7F894EC912E2B2C938FBFEACF1F9368
:10087000CF93DF93182FEB0161E00E94FB032097D9
:1008800039F460E0812FDF91CF911F910C94CD035B
:10089000CF3FD10511F461E0F5CFE12FF0E0E85949
:1008A000FA4FE491E33031F140F4E130B1F0E2305D
:1008B000E1F0C038D1057CF7E4CFE73029F1E8302A
:1008C00059F1E430B1F7809180008062809380001C
:1008D000D0938B00C0938A0004C084B5806884BD27
:1008E000C7BDDF91CF911F91089584B5806284BD0B
:1008F000C8BDF7CF80918000806880938000D0933E
:100900008900C0938800EDCF8091B000806880930B
:10091000B000C093B300E5CF8091B00080628093B7
:10092000B000C093B400DDCF3FB7F89480911E07AC
:1009300090911F07A0912007B091210726B5A89B91
:1009400005C02F3F19F00196A11DB11D3FBFBA2F61
:10095000A92F982F8827BC01CD01620F711D811D21
:10096000911D42E0660F771F881F991F4A95D1F7A6
:1009700008952FB7F89460911A0770911B07809122
:100980001C0790911D072FBF0895CF93DF9300D0D0
:1009900000D0CDB7DEB7DC01ED91FC91DB018D918C
:1009A0009C9111979A83898312968D919C919C8337
:1009B0008B83CE01019609950F900F900F900F90A9
:1009C000DF91CF910895AF92BF92CF92DF92EF92D5
:1009D000FF920F931F93CF93DF936C017B018B01E9
:1009E000040F151FEB015E01AE18BF08C017D10739
:1009F00059F06991D601ED91FC910190F081E02DC3
:100A0000C6010995892B79F7C501DF91CF911F9117
:100A10000F91FF90EF90DF90CF90BF90AF9008952F
:100A2000FC01538D448D252F30E0842F90E0821BF4
:100A3000930B541710F0CF96089501970895FC0179
:100A4000918D828D981761F0A28DAE0FBF2FB11DD1
:100A50005D968C91928D9F5F9F73928F90E0089529
:100A60008FEF9FEF0895FC01918D828D981731F0E3
:100A7000828DE80FF11D858D90E008958FEF9FEF37
:100A80000895FC01918D228D892F90E0805C9F4F0D
:100A9000821B91098F73992708958DE897E00E9432
:100AA000410521E0892B09F420E0822F089580E0A0
:100AB00090E0892B29F00E944D0581110C940000D3
:100AC0000895FC01A48DA80FB92FB11DA35ABF4FE3
:100AD0002C91848D90E001968F739927848FA6893D
:100AE000B7892C93A089B1898C91837080648C9391
:100AF000938D848D981306C00288F389E02D808140
:100B00008F7D80830895EF92FF920F931F93CF9371
:100B1000DF93EC0181E0888F9B8D8C8D98131AC038
:100B2000E889F989808185FF15C09FB7F894EE891F
:100B3000FF896083E889F98980818370806480837C
:100B40009FBF81E090E0DF91CF911F910F91FF90C7
:100B5000EF900895F62E0B8D10E00F5F1F4F0F736F
:100B60001127E02E8C8D8E110CC00FB607FCFACF2A
:100B7000E889F989808185FFF5CFCE010E94610562
:100B8000F1CFEB8DEC0FFD2FF11DE35AFF4FF082FB
:100B90009FB7F8940B8FEA89FB8980818062CFCF61
:100BA000CF93DF93EC01888D8823B9F0AA89BB89A4
:100BB000E889F9898C9185FD03C0808186FD0DC08F
:100BC0000FB607FCF7CF8C9185FFF2CF808185FFB0
:100BD000EDCFCE010E946105E9CFDF91CF9108955D
:100BE0009FB7F89480911207882319F08150809361
:100BF000120780911207811105C08CB58F7B8CBDC7
:100C0000109223079FBF08952F923F924F925F92B9
:100C10006F927F928F929F92AF92BF92CF92DF920C
:100C2000EF92FF920F931F93CF93DF93CDB7DEB771
:100C3000C253D1400FB6F894DEBF0FBECDBF1C012A
:100C40009E012F5F3E4FC75DDE4F39832883C95217
:100C5000D1408096F901CF5DDE4F39822882C152A2
:100C6000D140CF5DDE4FA881B981C152D1400D91F5
:100C70001D912D913D91CF5DDE4FB983A883C15267
:100C8000D14001931193219331938A179B0749F720
:100C9000FB01CB01805C9F4FDE0111964191519188
:100CA000619171914D935D936D937D938E179F0725
:100CB000A9F701E010E00C0F1D1F00541F4FFE01AB
:100CC00031969F0180AD91ADA2ADB3AD4481558108
:100CD0006681778134964C015D01072E7FE0880C98
:100CE000991CAA1CBB1C7A95D1F7702D6C017D0153
:100CF0000B2EB1E1F694E794D794C794BA95D1F747
:100D0000B02D8C289D28AE28BF286C017D010B2EAC
:100D1000BDE0CC0CDD1CEE1CFF1CBA95D1F7B02D4C
:100D20002C013D01032E33E1769467945794479448
:100D30003A95D1F7302DC428D528E628F728C824BD
:100D4000D924EA24FB24072E7AE0B695A795979537
:100D500087957A95D1F7702DC826D926EA26FB26E5
:100D6000D90194968D909D90AD90BC9097974D90A1
:100D70005D906D907C90840C951CA61CB71CD701CF
:100D8000C601880D991DAA1DBB1D2A013B0127E044
:100D900076946794579447942A95D1F76A017B011A
:100DA00039E1CC0CDD1CEE1CFF1C3A95D1F74C2828
:100DB0005D286E287F284A015B012EE0880C991C73
:100DC000AA1CBB1C2A95D1F76A017B0132E1F6947B
:100DD000E794D794C7943A95D1F78C289D28AE28EC
:100DE000BF28482459246A247B2423E076956795FC
:100DF000579547952A95D1F744255525662577259A
:100E0000840F951FA61FB71F84AF95AFA6AFB7AFCE
:100E10000E171F0709F055CFF0E0E0E041E051E088
:100E20004C0F5D1F405E5F4FC95DDE4F59834883A5
:100E3000C752D140CF0183589B4FC35DDE4F99838A
:100E40008883CD52D140A1E0B0E0AC0FBD1FAE0F02
:100E5000BF1FC55DDE4FB983A883CB52D14090E060
:100E600080E0DC011496A770BB27AA0FBB1FAA0F56
:100E7000BB1F88248394982C8C0E9D1EA80DB91D31
:100E8000CD90DD90ED90FC90DC011696A770BB270D
:100E9000AA0FBB1FAA0FBB1FA80DB91D2D913D9115
:100EA0004D915C91CD5DDE4F288339834A835B830E
:100EB000C352D140C35DDE4FA881B981CD52D1402C
:100EC0000D911D912D913D91C35DDE4FB983A88396
:100ED000CD52D140C55DDE4FA881B981CB52D14002
:100EE0004D915D916D917D91C55DDE4FB983A88374
:100EF000CB52D140040F151F261F371F2601370183
:100F000056E076946794579447945A95D1F7B70171
:100F1000A601AAE1440F551F661F771FAA95D1F7B6
:100F2000442955296629772946015701BBE0B69423
:100F3000A79497948794BA95D1F726013701A5E134
:100F4000440C551C661C771CAA95D1F748285928D3
:100F50006A287B28442655266626772646015701AF
:100F6000B7E0880C991CAA1CBB1CBA95D1F7B70135
:100F7000A601A9E17695679557954795AA95D1F76A
:100F8000482959296A297B29442655266626772629
:100F9000C95DDE4FA881B981C752D1407E916E9163
:100FA0005E914E91C95DDE4FB983A883C752D1408F
:100FB000040F151F261F371F040D151D261D371D75
:100FC000DC011596A770BB27AA0FBB1FAA0FBB1F7A
:100FD00088248394982C8C0E9D1EA80DB91D4D91CC
:100FE0005D916D917C91CD5DDE4F88809980AA8066
:100FF000BB80C352D140482559256A257B254C2109
:101000005D216E217F21482559256A257B25400FCA
:10101000511F621F731FDC01A770BB27AA0FBB1FE4
:10102000AA0FBB1FAA24A394BA2CAC0EBD1EAA0DF6
:10103000BB1D0D911D912D913C91DC011196A77066
:10104000BB27AA0FBB1FAA0FBB1FAA0DBB1D4D902C
:101050005D906D907C90DC011296A770BB27AA0F63
:10106000BB1FAA0FBB1FAA0DBB1D48015901842835
:101070009528A628B728CD90DD90ED90FC908C2087
:101080009D20AE20BF204022512262227322750192
:101090006401C428D528E628F728C15DDE4FC88240
:1010A000D982EA82FB82CF52D14028013901ADE0DA
:1010B0007694679457944794AA95D1F7680179017B
:1010C000B3E1CC0CDD1CEE1CFF1CBA95D1F74C280B
:1010D0005D286E287F2868017901A2E0F694E794E4
:1010E000D794C794AA95D1F748015901BEE1880C5D
:1010F000991CAA1CBB1CBA95D1F7C828D928EA2884
:10110000FB284C245D246E247F2468017901AAE029
:10111000CC0CDD1CEE1CFF1CAA95D1F7B6E1369570
:10112000279517950795BA95D1F70C291D292E29D2
:101130003F294026512662267326C15DDE4F8880F6
:101140009980AA80BB80CF52D140840C951CA61CEC
:10115000B71CDC011396A770BB27AA0FBB1FAA0FF1
:10116000BB1FCC24C394DC2CCC0EDD1EAC0DBD1DEE
:101170000D911D912D913C911397040F151F261F62
:10118000371F0D931D932D933C931397840E951E3B
:10119000A61EB71EC95DDE4FA881B981C752D140D6
:1011A0008D929D92AD92BC9213970197883FBFEFAD
:1011B0009B0709F056CEB096E11521E0F20709F041
:1011C0002DCEF10181919191A191B1911F01C75D46
:1011D000DE4FE881F981C952D1404191519161912D
:1011E0007191C75DDE4FF983E883C952D140F101A7
:1011F0003497840F951FA61FB71F80839183A28306
:10120000B383CF5DDE4F88809980C152D140821474
:101210009304B9F690E080E0CE5CDE4F0FB6F89410
:10122000DEBF0FBECDBFDF91CF911F910F91FF9019
:10123000EF90DF90CF90BF90AF909F908F907F9076
:101240006F905F904F903F902F900895CF92DF92D4
:10125000EF92FF920F931F9369017A0122E0F694B7
:10126000E794D794C7942A95D1F7FB01DC0100E0FD
:1012700010E0980161917191819191910E940473A4
:101280006D937D938D939D930F5F1F4F2F4F3F4F16
:10129000C016D106E206F30669F71F910F91FF9081
:1012A000EF90DF90CF900895FC0160817181828181
:1012B000938108952F923F924F925F926F927F9207
:1012C0008F929F92AF92BF92CF92DF92EF92FF9256
:1012D0000F931F93CF93DF93CDB7DEB7CE55D109D0
:1012E0000FB6F894DEBF0FBECDBF9A878987788F7F
:1012F0006F8B5EAB4DABFC01E65BFF4F80818111D4
:10130000D0C020E030E040E051E02FAB38AF49AF33
:101310005AAFA985BA858D919D910D90BC91A02D54
:101320008D8F9E8FAF8FB8A3A985BA8514962D9106
:101330003D914D915C91179729A33AA34BA35CA3D0
:1013400018962D913D914D915C911B972DA33EA335
:101350004FA358A71C962D913D914D915C911F97DD
:101360002DA73EA74FA758AB50962D913D914D917B
:101370005C9153972BAF3CAF4DAF5EAFA5E0B0E0B3
:1013800029A13AA14BA15CA10E940B7327966CAFD7
:101390007DAF8EAF9FAF27972DA13EA14FA158A53E
:1013A0000E940B7323966CAF7DAF8EAF9FAF2397D8
:1013B0002DA53EA54FA558A90E940B7369AB7AAB2A
:1013C0008BAB9CAB2BAD3CAD4DAD5EAD0E940B73BA
:1013D00069A77AA78BA79CA7E985FA8544885588D1
:1013E00066887788C08CD18CE28CF38C248D358D07
:1013F000468D578D2F87388B498B5A8B20A131A171
:1014000042A153A12B8B3C8B4D8B5E8B24A135A12C
:1014100046A157A12B873C874D875E87ADA9BEA902
:10142000509708F043C0E985FA85448A558A668A50
:10143000778AC08ED18EE28EF38E2F8538894989C6
:101440005A89248F358F468F578F2B893C894D8938
:101450005E8920A331A342A353A32B853C854D85F0
:101460005E8524A335A346A357A390E080E0C25A2B
:10147000DF4F0FB6F894DEBF0FBECDBFDF91CF9127
:101480001F910F91FF90EF90DF90CF90BF90AF90A2
:101490009F908F907F906F905F904F903F902F9094
:1014A00008951FAA18AE19AE1AAE33CF8F89988D42
:1014B0000E9454099370460E571E681E791E8F892C
:1014C000988D03960E94540922E09695879577950A
:1014D00067952A95D1F793709B01AC012C0D3D1DAA
:1014E0004E1D5F1D298F3A8F4B8F5C8F8F89988D92
:1014F00006960E94540934E09695879577956795EE
:101500003A95D1F793702F85388949895A89260FE2
:10151000371F481F591F2F87388B498B5A8B8F894C
:10152000988D09960E94540946E09695879577957F
:1015300067954A95D1F72B893C894D895E89260F9D
:10154000371F481F591F2B8B3C8B4D8B5E8B8F8910
:10155000988D0C960E945409672F782F892F992710
:101560002FA938AD49AD5AAD622B732B842B952B27
:101570002B853C854D855E85260F371F481F591FDB
:101580002B873C874D875E87C301B2012D8D3E8D31
:101590004F8D58A10E941E7359011A014B012896C4
:1015A0008FAF289799836B897C898D899E89239633
:1015B0002CAD3DAD4EAD5FAD23970E941E73F22F53
:1015C000E32F6A017B018C019501A101B4012896EA
:1015D0008FAD28979981AF2EBE2E0E947F7359013F
:1015E0001A014B0128968FAF28979983698D7A8DC0
:1015F0008B8D9C8D29A53AA54BA55CA50E941E73D9
:10160000F22FE32F6A017B018C019501A101B40146
:1016100028968FAD28979981AF2EBE2E0E947F739A
:1016200059011A014B0128968FAF289799836F852E
:10163000788989899A8929A93AA94BA95CA90E9424
:101640001E73F22FE32F6A017B018C019501A1012A
:10165000B40128968FAD28979981AF2EBE2E0E9497
:101660007F7359011A014B0128968FAF28979983F0
:101670006B857C858D859E8527962CAD3DAD4EADC9
:101680005FAD27970E941E73F22FE32F6A017B0143
:101690008C019501A101B40128968FAD28979981FD
:1016A000AF2EBE2E0E947F7329833A834B835C83C7
:1016B0006D837E838F839887C301B20129A13AA1EC
:1016C0004BA15CA10E941E7359011A014B0129967E
:1016D0008FAF299728969FAF28976B897C898D8932
:1016E0009E8929A93AA94BA95CA90E941E73F22FD1
:1016F000E32F6A017B018C019501A101B4012996B8
:101700008FAD299728969FAD2897AF2EBE2E0E94A9
:101710007F7359011A014B0129968FAF299728969B
:101720009FAF28976D8D7E8D8F8D98A1298D3A8DD5
:101730004B8D5C8D0E941E73F22FE32F6A017B019B
:101740008C019501A101B40129968FAD29972896A6
:101750009FAD2897AF2EBE2E0E947F7359011A01AC
:101760004B0129968FAF299728969FAF289769A597
:101770007AA58BA59CA52F85388949895A890E940D
:101780001E73F22FE32F6A017B018C019501A101E9
:10179000B40129968FAD299728969FAD2897AF2E33
:1017A000BE2E0E947F7359011A014B0129968FAFFB
:1017B000299728969FAF289723966CAD7DAD8EAD67
:1017C0009FAD23972B853C854D855E850E941E73BA
:1017D000F22FE32F6A017B018C019501A101B40175
:1017E00029968FAD299728969FAD2897AF2EBE2EAC
:1017F0000E947F7328962FAF289729963FAF29978D
:101800002A964FAF2A972B965FAF2B972C966FAFE8
:101810002C972D967FAF2D972E968FAF2E972F96C4
:101820009FAF2F97C301B2012DA13EA14FA158A593
:101830000E941E7359011A014B0161968FAF619787
:1018400060969FAF609769A57AA58BA59CA52B890B
:101850003C894D895E890E941E73F22FE32F6A0135
:101860007B018C019501A101B40161968FAD619757
:1018700060969FAD6097AF2EBE2E0E947F73590178
:101880001A014B0161968FAF619760969FAF609789
:10189000698D7A8D8B8D9C8D29A13AA14BA15CA17C
:1018A0000E941E73F22FE32F6A017B018C019501C8
:1018B000A101B40161968FAD619760969FAD60976D
:1018C000AF2EBE2E0E947F7359011A014B01619603
:1018D0008FAF619760969FAF60976D8D7E8D8F8D76
:1018E00098A12F85388949895A890E941E73F22F41
:1018F000E32F6A017B018C019501A101B40161967E
:101900008FAD619760969FAD6097AF2EBE2E0E94FF
:101910007F7359011A014B0161968FAF61976096F1
:101920009FAF609769A97AA98BA99CA92B853C8553
:101930004D855E850E941E73F22FE32F6A017B01A5
:101940008C019501A101B40161968FAD61976096FC
:101950009FAD6097AF2EBE2E0E947F7360962FAF13
:10196000609761963FAF619762964FAF62976396BB
:101970005FAF639764966FAF649765967FAF659727
:1019800066968FAF669767969FAF6797C301B20160
:101990002DA53EA54FA558A90E941E7359011A01F5
:1019A0004B0169968FAF699768969FAF68976D8D69
:1019B0007E8D8F8D98A12B893C894D895E890E94EF
:1019C0001E73F22FE32F6A017B018C019501A101A7
:1019D000B40169968FAD699768969FAD6897AF2EF1
:1019E000BE2E0E947F7359011A014B0169968FAF79
:1019F000699768969FAF6897698D7A8D8B8D9C8D5E
:101A00002DA13EA14FA158A50E941E73F22FE32FD6
:101A10006A017B018C019501A101B40169968FAD2A
:101A2000699768969FAD6897AF2EBE2E0E947F7310
:101A300059011A014B0169968FAF699768969FAF5C
:101A400068976F85788989899A8929A13AA14BA1DC
:101A50005CA10E941E73F22FE32F6A017B018C01AF
:101A60009501A101B40169968FAD699768969FAD04
:101A70006897AF2EBE2E0E947F7359011A01699696
:101A80006FAF699768967FAF68974C0169A57AA593
:101A90008BA59CA52B853C854D855E850E941E737C
:101AA000F22FE32F6A017B018C019501A101699658
:101AB0006FAD699768967FAD6897C401AF2EBE2E53
:101AC0000E947F73322E232E68964FAF68976996D7
:101AD0005FAF69976A966FAF6A976B967FAF6B97A8
:101AE0006C968FAF6C976D969FAF6D97C301B201E7
:101AF0002BAD3CAD4DAD5EAD0E941E7329013A0188
:101B00004B016F968FAF6F976E969FAF6E976B89F5
:101B10007C898D899E8929A13AA14BA15CA10E9453
:101B20001E7359016A017B018C019201A301B4016A
:101B30006F968FAD6F976E969FAD6E970E947F7375
:101B400029013A014B016E968FAF6E979B8B698D81
:101B50007A8D8B8D9C8D2DA53EA54FA558A90E94F1
:101B60001E7359016A017B018C019201A301B4012A
:101B70006E968FAD6E979B890E947F7329013A0103
:101B80004B01898F9B8B6F85788989899A892DA1D3
:101B90003EA14FA158A50E941E7359016A017B0105
:101BA0008C019201A301B401898D9B890E947F73EE
:101BB00029013A014B018B8B9F876D8D7E8D8F8D17
:101BC00098A12B853C854D855E850E941E73590129
:101BD0006A017B018C019201A301B4018B899F856D
:101BE0000E947F736F962FAF6F976E963FAF6E9781
:101BF000B42FA52FF62FE72F8B87998F49805A8016
:101C00006B807C8033E0732229813A814B815C8137
:101C10006D817E818F8198850AE10E94647360E006
:101C200070E080E090E02896AFAC28972996BFAC92
:101C300029972A96CFAC2A972B96DFAC2B972C9618
:101C4000EFAC2C972D96FFAC2D972E960FAD2E97BF
:101C50002F961FAD2F970E947F7349015A01537031
:101C600029833A834B835C839401A5010AE10E9496
:101C7000647360E070E080E090E06096AFAC6097E5
:101C80006196BFAC61976296CFAC62976396DFAC0A
:101C900063976496EFAC64976596FFAC659766961C
:101CA0000FAD669767961FAD67970E947F734901D6
:101CB0005A0153702F87388B498B5A8B9401A50199
:101CC0000AE10E94647360E070E080E090E0A32C81
:101CD000B22C6896CFAC68976996DFAC69976A9624
:101CE000EFAC6A976B96FFAC6B976C960FAD6C97E9
:101CF0006D961FAD6D970E947F7349015A01537015
:101D00002B8B3C8B4D8B5E8B9401A5010AE10E94CD
:101D1000647360E070E080E090E06F96AFAC6F9726
:101D20006E96BFAC6E97CB2EDA2EEF2EFE2E0B8565
:101D3000198D0E947F7349015A016B017C01DA0100
:101D4000C901B3708B879C87AD87BE879401A501BD
:101D5000B601C7010AE10E946473A5E0B0E00E94E9
:101D60000B736B017C01C40CD51CE61CF71C26010F
:101D7000370193E079226AE1F694E794D794C79407
:101D80006A95D1F729813A814B815C81C20ED31EBD
:101D9000E41EF51E4F89588D405F5F4F588F4F8B63
:101DA0008DA99EA940979EAB8DAB38CBAF92BF92C9
:101DB000CF92DF92EF92FF920F931F93CF93DF9317
:101DC0008C01EB0169017A01209791F4CD28CE288E
:101DD000CF2809F484C083E59FEFDF91CF911F9155
:101DE0000F91FF90EF90DF90CF90BF90AF9008954C
:101DF000C114D104E104F10409F471C0FC0120AD67
:101E000031AD2115310509F46DC080E190E0821BF0
:101E1000930BAC0170E060E0C416D506E606F70649
:101E200008F4C601F901FA96E00FF11FAE01480F60
:101E3000591FC417D507C9F5280F391FF80131AF4D
:101E400020AF2031310508F44AC0C81AD90AE10888
:101E5000F10840E150E0B801665C7F4FC8010E9484
:101E60005A09F80111AE10AEF0E1CF16D104E10429
:101E7000F10488F0560180EFA822A501BE01C80137
:101E80000E945A09009709F0A8CFCA0DDB1DCA1895
:101E9000DB08E108F108C114D104E104F104F9F010
:101EA000F80120AD31ADDE010AC069916193C1CF67
:101EB0004D91800F911FFC01E20FF31F42AFCD0146
:101EC0008C1B9D0BAC0170E060E04C155D056E0550
:101ED0007F0570F3C20ED31EF801D1AEC0AE90E004
:101EE00080E07BCFF0E1CF16D104E104F104C0F231
:101EF000C1CFCF92DF92EF92FF920F931F93CF93B8
:101F0000DF936115710531F4211531054105510546
:101F100009F040C08C0109561F4FD801EC91E150E7
:101F2000E230D8F5EC01C157DF4FC880D980EA8094
:101F3000FB80C094D094E094F094C216D306E406DB
:101F4000F50670F16115710571F121153105410535
:101F5000510549F169017A018C5B9F4F0E94D60EB1
:101F6000009779F4488159816A817B81C40ED51E1E
:101F7000E61EF71EC882D982EA82FB8222E0F801BF
:101F80002083DF91CF911F910F91FF90EF90DF9011
:101F9000CF90089583E59FEFF4CF80E49FEFF1CFDA
:101FA0008EEE9EEFEECF90E080E0EBCFAF92BF924F
:101FB000EF92FF920F931F93CF93DF93DC015B01AE
:101FC000FA01EC01C62BC0FD39C040FD37C0B90194
:101FD000A8017695679557954795EA01CC0FDD1FC7
:101FE0007E01EA0CFB1CB501AF01CD01AE14BF04AC
:101FF000B0F00170112722273327FB01DA01EC0131
:10200000011511052105310509F058C0DF91CF9167
:102010001F910F91FF90EF90BF90AF90089582E0D5
:10202000A80EB11C3296EB0188819981EA014881A2
:102030005981842795278D939D93D5CF7A01E626E4
:10204000EB01C827CE29C0FDD8CFAF01E501A0FE26
:1020500005C0011511052105310511F5B901A801CA
:102060007695679557954795EA01CC0FDD1F7E0160
:10207000EA0CFB1CAF01B501CD01AE14BF0408F0A2
:10208000B8CFD2E0AD0EB11C3296EB0188819981B8
:10209000EA0148815981842795278D939D93EACF42
:1020A0008FEFA81AB80A31968881EA0198818927AA
:1020B0008D930150110921093109C7CF81919D915B
:1020C00089278993015011092109310999CF9FB7B7
:1020D000F8942091230780912207213019F48DBBB9
:1020E0009FBF08958FBF08958F929F92AF92BF9226
:1020F000CF92DF92EF92FF920F931F93CF93DF93D4
:10210000EC01E0902607EE2009F453C04881598184
:102110002A813B814217530709F44BC0409127079E
:102120003091280720912307222361F02FB7F894DC
:1021300050912307513089F55DB3509322075DB369
:102140005DBB2FBF4CBD3DBD0E94B9044B015C017E
:10215000CA80DB8008811981F12CD0E0C0E0C01674
:10216000D10601F1F11016C00E94B904681979096D
:102170008A099B09633371058105910588F4F8018B
:1021800080818EBD00000DB407FEFDCF8EB5F80135
:10219000808321960F5F1F4FE2CF20932207D2CF7B
:1021A000FE2CF8CF80912307FF2031F081110E948F
:1021B0006710D0E0C0E003C081110E946710CE011B
:1021C000DF91CF911F910F91FF90EF90DF90CF9013
:1021D000BF90AF909F908F90089508950F931F9395
:1021E000FC0180859185A285B3850097A105B10585
:1021F00009F144815581668177814F5F5F4F6F4F51
:102200007F4F4483558366837783048515852685B0
:102210003785401751076207730721F4148215822E
:10222000168217820197A109B10980879187A28739
:10223000B387D7CF10821182128213821482158243
:10224000168217821F910F910895CF93DF93EC01AF
:1022500087EB95E099838883CE0148960E94EE1023
:10226000CE010296DF91CF910C94EE10089589E98A
:102270009CE00C94EE1008952BED35E0FC012193C9
:102280003193CF010C94EE1008950895089590E0D5
:1022900080E008956F927F929F92AF92BF92CF920B
:1022A000DF92EF92FF920F931F93CF93DF933C0146
:1022B000FB01A12CB12CC12CD12CE12CF12C10E074
:1022C000B0E0A0E0E3018C819D81009779F480E08B
:1022D000DF91CF911F910F91FF90EF90DF90CF9002
:1022E000BF90AF909F907F906F9008952A813B811F
:1022F000E90199909E01E3013B832A8301979D8325
:102300008C83AF3318F0892D8E7F09F7292D2F7715
:1023100030E040E050E060E070E080E090E00A2FC4
:102320000E944973A22AB32AC42AD52AE62AF72A88
:10233000182BB92BA95F97FCC5CFA082B182C282AE
:10234000D382E482F5821683B78381E0C1CFCF9236
:10235000DF92EF92FF92CF93DF93FC01DB01848148
:102360009581009759F441155105C9F580E0DF9139
:10237000CF91FF90EF90DF90CF900895C281D381ED
:102380004991D383C28301979583848350E070E0A1
:1023900060E047FF33C04F7750E070E060E027E037
:1023A000E480F580E114F10409F3C281D3819991AD
:1023B000D383C28381E0E81AF108F582E4822032F7
:1023C00020F131E02F3308F43FEF892F8F7759F058
:1023D00077FF03C081E0391739F080E005C081E064
:1023E000FA018083C3CF81E08170203408F0BECF32
:1023F000882309F4BBCF295F97FDD2CF4D935D931E
:102400006D937C93139781E0B2CF892F2C31C9F45F
:10241000807729F0892F8877883709F0A7CF892F0F
:102420008F70C82ED12CF12CE12C8CE1CC0CDD1C52
:10243000EE1CFF1C8A95D1F74C295D296E297F2956
:10244000DACF8F77C82ED12CF12CE12C022E04C0CC
:10245000CC0CDD1CEE1CFF1C0A94D2F7EDCF8F9242
:102460009F92AF92BF92EF92FF920F931F93CF93E1
:10247000DF9300D000D0CDB7DEB78C017B0150E0F8
:1024800040E0BE016F5F7F4F0E94A711811110C015
:1024900080E00F900F900F900F90DF91CF911F91E0
:1024A0000F91FF90EF90BF90AF909F908F90089505
:1024B00096E0F801D70101900D929A95E1F74981D4
:1024C0005A816B817C81F70184809580B12CA12C8D
:1024D00084169506A606B706D8F255834483F801FC
:1024E00024813581241B350B35832483D2CF8F92F1
:1024F0009F92AF92BF92EF92FF920F931F93CF9351
:10250000DF9300D000D0CDB7DEB78B017A01F9019F
:102510001082FB0111821082FA0110821182128254
:102520001382A901BE016F5F7F4F0E94A71188230C
:10253000B9F049815A816B817C814A015B0193E04A
:10254000B694A794979487949A95D1F7F7018082CF
:102550009182A282B38247705527F801518340834C
:102560000F900F900F900F90DF91CF911F910F91CF
:10257000FF90EF90BF90AF909F908F9008959B0138
:10258000BA01FA01468557854430510571F4A58991
:10259000B689109751F0009751F0ED91FC91119789
:1025A000AD014E5F5F4F309771F481E008952115C2
:1025B0003105D9F3ED91FC9111973097B1F3AD014D
:1025C0004E5F5F4FC9010994CF92DF92EF92FF9265
:1025D000CF93DF93DC0114968D919C911597019612
:1025E00015969C938E931497CD91DC911197288525
:1025F000398582179307B8F015961C921E9214978E
:1026000017961C921E9216971B961C921E921A9752
:1026100019961C921E921897DF91CF91FF90EF9020
:10262000DF90CF90089516962D913C911797C90190
:10263000880F991F880F991FE881F981E80FF91F0A
:10264000C590D590E590F49077276F2D5E2D4D2D98
:1026500083E0C822DD2481E090E002C0880F991F4A
:10266000CA94E2F7820F931F17969C938E93169746
:10267000842F807321E030E011F030E020E01896E4
:102680008D919C911997820F931F19969C938E930D
:1026900018974F704850550B21E030E042305105FB
:1026A00010F030E020E01A968D919C911B97820FDC
:1026B000931F1B969C938E931A97AECF2F923F92A7
:1026C0004F925F926F927F928F929F92AF92BF9242
:1026D000CF92DF92EF92FF920F931F93CF93DF93EE
:1026E00000D000D000D0CDB7DEB7DC012D903C90FB
:1026F000119714962D913C911597F1018085918544
:102700002817390708F078C116968D919C91179774
:10271000880F991F880F991F20813181F901E80FD7
:10272000F91FC590D590E590F49055274F2D3E2D7B
:102730002D2D29833A834B835C8352962C93529799
:10274000B701A60143705527662777272601370171
:1027500022E076946794579447942A95D1F74130B4
:1027600051056105710509F45FC008F440C0F1012D
:1027700020813181FC01349642305105610571059B
:1027800009F4D0C0E20FF31F459155916591749102
:10279000FC013896E20FF31F85909590A590B490B8
:1027A000FC013C96E20FF31FC590D590E590F490A4
:1027B000FC017096E20FF31F05911591259134915C
:1027C00051961C930E935097C2018F739927452EF3
:1027D000562E672E772456E0440C551C5A95E1F787
:1027E000482A592A1D965C924E921C9718C081E087
:1027F00090E051969C938E935097FFE34F2255247F
:102800001D965C924E921C974F2D4F708E2C912CE2
:102810007CE1F694E794D794C7947A95D1F71F9604
:10282000DC92CE921E973AC00496F101208131814C
:10283000F901E80FF91F0591159125913491C70110
:102840009F7051969C938E935097C2018F739927D6
:10285000280139014CE176946794579447944A953E
:10286000D1F756E0440C551C5A95E1F7482A592AED
:102870001D965C924E921C976CE1F694E794D79467
:10288000C7946A95D1F74C2D48015901AA24BB245D
:10289000C9019F701F969C938E931E9712968D91DF
:1028A0009C911397009709F06EC054961C921E924B
:1028B000539758961C921E92579752968C91529706
:1028C0008F708850990B029708F091C01A968D91DD
:1028D0009C911B97880F991FF10122813381F90187
:1028E000E80FF91F808191815A969C938E93599796
:1028F00081E026960FB6F894DEBF0FBECDBFDF9104
:10290000CF911F910F91FF90EF90DF90CF90BF90EC
:10291000AF909F908F907F906F905F904F903F907F
:102920002F900895E20FF31F459155916591749191
:10293000FC013896E20FF31F85909590A590B49016
:10294000FC013C96E20FF31F0591159125913491FE
:102950005196FC92EE925097C2018F739927452EA3
:10296000562E672E7724F6E0440C551CFA95E1F7B5
:10297000482A592A1D965C924E921C971F961C93CA
:102980000E931E978BCF880E991E54969C928E9212
:1029900053974423C1F0C401841B910947FD9395CB
:1029A00058969C938E9357978981807C8038D1F478
:1029B00081149104B9F0F4018081918156969C9321
:1029C0008E9355977ACF89818073803231F4F98163
:1029D000F6FD03C0CD014096E3CF58961C921E929F
:1029E0005797E2CF56969C928E92559766CF5A96FD
:1029F0001C921E9259977CCF80E07BCF61E080E0F3
:102A00000E94FB0360E080E00E94CD0361E081E072
:102A10000E94FB0360E081E00E94CD0361E082E060
:102A20000E94FB0360E082E00E94CD0361E083E04E
:102A30000E94FB0360E083E00E94CD0361E084E03C
:102A40000E94FB0360E084E00E94CD0361E085E02A
:102A50000E94FB0360E085E00E94CD0361E086E018
:102A60000E94FB0360E086E00E94CD0361E087E006
:102A70000E94FB0360E087E00E94CD0361E088E0F4
:102A80000E94FB0360E088E00E94CD0361E089E0E2
:102A90000E94FB0360E089E00E94CD0361E08AE0D0
:102AA0000E94FB0360E08AE00E94CD0361E08BE0BE
:102AB0000E94FB0360E08BE00E94CD0361E08CE0AC
:102AC0000E94FB0360E08CE00E94CD0361E08DE09A
:102AD0000E94FB0360E08DE00C94CD0308950895FF
:102AE0000895089581E0089580E0089581E00895B3
:102AF000EF92FF920F931F93CF93DF9300D0CDB748
:102B0000DEB7DC0114962C91621719F06D3F09F0C5
:102B10003FC08C01FC01A081B1815096ED90FC90EA
:102B2000DA018D919C919A838983DC01ED91FC916E
:102B30000084F185E02D0995DC01ED91FC91068082
:102B4000F781E02D0995BE016F5F7F4FC801F70146
:102B5000099589819A810097D9F0DC01ED91FC916A
:102B60000084F185E02D0995DC01ED91FC91008454
:102B7000F185E02D0995672B682B692B49F4898134
:102B80009A81DC01ED91FC910484F585E02D099595
:102B90000F900F90DF91CF911F910F91FF90EF90C9
:102BA00008950F931F93CF93DF93EC01E881F98190
:102BB00004811581DB018D919C91DC01ED91FC91EB
:102BC0000480F581E02D0995BC01CE01F801DF916B
:102BD000CF911F910F910994DC0114963C916317DA
:102BE00011F06D3F41F4DC01ED91FC910480F58121
:102BF000E02DBA0109940895CF93DF93EA01DB0138
:102C0000A20FB31FFC0186819781823D944039F465
:102C1000FB01EA17FB0749F081918993FACF6A1704
:102C20007B0719F08E918993FACFDF91CF910895A8
:102C30002F923F924F925F926F927F928F929F92CC
:102C4000AF92BF92CF92DF92EF92FF920F931F93BA
:102C5000CF93DF93CDB7DEB760970FB6F894DEBFA2
:102C60000FBECDBF4B01FC01228133816081718198
:102C7000C901861B970B0C97D0F480E060960FB6C5
:102C8000F894DEBF0FBECDBFDF91CF911F910F91A2
:102C9000FF90EF90DF90CF90BF90AF909F908F907C
:102CA0007F906F905F904F903F902F9008956C5F52
:102CB0007F4FC901861B970B7A8769877C876B8753
:102CC0009E878D8721EE30E1388B2F87089788F11A
:102CD00028E030E0AE014F5F5F4FCE0109960E94C1
:102CE000FC1549805A806B807C80BD81AE813F801D
:102CF000288481149104D9F0F4012081318142812A
:102D00005381648175818681978152016301EB2E25
:102D1000FA2E032D122D0E94947308F0AECF40823C
:102D2000518262827382B483A5833682278281E0D6
:102D3000A5CF892809F0A1CFFACF81E0089581E0DD
:102D4000089585E0089585E0089580E0089580E085
:102D5000089581E0089585E0089580E0089582E077
:102D6000089581E0089585E0089580E0089583E066
:102D7000089583E0089581E0089585E0089584E052
:102D8000089580E008950F931F93CF93DF938C01F4
:102D9000EB01E881F9810480F581E02DCB010995F3
:102DA00063E070E050E040E0823098F4D80115967E
:102DB0008D919C91009709F1DC01ED91FC910480CB
:102DC000F581E02DBE01DF91CF911F910F91099404
:102DD000B9014617570750F79B01240F351F369549
:102DE0002795F901E25FFB4F9081891769F09817E9
:102DF00078F7A9014F5F5F4FECCFF8018281DF9137
:102E0000CF911F910F910895220F331FF901EF5EAB
:102E1000FB4F0190F081E02DBE01C80109958E3F66
:102E200071F7C4CF0F931F93CF93DF938C01EB0106
:102E3000E881F9810480F581E02DCB01099564E0FA
:102E400070E050E040E04617570738F59B01240F2B
:102E5000351F36952795F901EE5FFB4F9081891755
:102E600079F0981720F4A9014F5F5F4FECCFB901BB
:102E7000EACFF8018281DF91CF911F910F910895E0
:102E8000220F331FF901EA5FFB4F0190F081E02D23
:102E9000BE01C80109958E3F71F7D80115968D9135
:102EA0009C91009731F3DC01ED91FC910480F58158
:102EB000E02DBE01DF91CF911F910F9109940F93E7
:102EC0001F93CF93DF938C01EB01E881F98104809C
:102ED000F581E02DCB01099564E070E050E040E021
:102EE000811113C0D80115968D919C91009709F11D
:102EF000DC01ED91FC910480F581E02DBE01DF91B4
:102F0000CF911F910F910994B9014617570750F7B8
:102F10009B01240F351F36952795F901EA50FC4F88
:102F20009081891769F0981778F7A9014F5F5F4F73
:102F3000ECCFF8018281DF91CF911F910F9108951D
:102F4000220F331FF901E650FC4F0190F081E02D74
:102F5000BE01C80109958E3F71F7C4CF0F931F932F
:102F6000CF93DF938C01EB01E881F9810480F58137
:102F7000E02DCB01099564E070E050E040E0823044
:102F800098F4D80115968D919C91009709F1DC0178
:102F9000ED91FC910480F581E02DBE01DF91CF9190
:102FA0001F910F910994B9014617570750F79B01DC
:102FB000240F351F36952795F901E651FC4F908176
:102FC000891769F0981778F7A9014F5F5F4FECCF29
:102FD000F8018281DF91CF911F910F910895220F07
:102FE000331FF901E251FC4F0190F081E02DBE0149
:102FF000C80109958E3F71F7C4CF0F931F93CF93EC
:10300000DF938C01EB01E881F9810480F581E02DEB
:10301000CB01099564E070E050E040E0823098F424
:10302000D80115968D919C91009709F1DC01ED91E5
:10303000FC910480F581E02DBE01DF91CF911F91BD
:103040000F910994B9014617570750F79B01240FB8
:10305000351F36952795F901E252FC4F908189176B
:1030600069F0981778F7A9014F5F5F4FECCFF8012F
:103070008281DF91CF911F910F910895220F331F0D
:10308000F901EE51FC4F0190F081E02DBE01C80125
:1030900009958E3F71F7C4CF0F931F93CF93DF93A2
:1030A0008C01EB01E881F9810480F581E02DCB01F1
:1030B00009958630C9F0D80115968D919C9100979D
:1030C00061F0DC01ED91FC910480F581E02DBE0101
:1030D000DF91CF911F910F910994F8018281DF91C7
:1030E000CF911F910F91089581E0F9CF80E008956D
:1030F00081E0089582E0089583E0089584E00895D2
:1031000085E0089586E008950895CF93DF9300D079
:1031100000D0CDB7DEB7DC011296ED91FC9130976F
:10312000B9F0DB012D913C9111973A8329831296D6
:103130002D913C913C832B83BE016F5F7F4F09959E
:1031400081E00F900F900F900F90DF91CF91089535
:1031500080E0F7CFFC01DB018C91A681B781228151
:103160003381A20FB31F8C93828193810196938345
:103170008283208131818217930711F41382128296
:1031800082819381448155818417950749F4019682
:103190002817390719F095838483089515821482BE
:1031A0000895FC01208131812115310589F0848544
:1031B0009585009729F4A685B78514968D919C91E5
:1031C0000197958784872150310931832083EACF85
:1031D0008289938917821682F187E0879387828795
:1031E00015861486F787E687918B808B0895640F88
:1031F000751F4617570739F0FC012191CF01FA01DD
:103200002193AF01F6CFCA010895DC011296ED912A
:10321000FC91309729F0DB016C91099581E00895CC
:1032200080E00895CF93DF93CDB7DEB729970FB62F
:10323000F894DEBF0FBECDBF1A8219821B8221E037
:1032400030E03D832C832E8322E030E038872F83CB
:103250002987FC0144815581FE0131969E01265F3C
:103260003F4F608171816417750789F03396E217CB
:10327000F307B9F760E0FC01808129960FB6F89456
:10328000DEBF0FBECDBFDF91CF910C94FB036281F7
:10329000F2CFA89508954091540850915508609137
:1032A000560870915708411551056105710581F067
:1032B00080913E0890913F08009711F00E942603EC
:1032C0001092540810925508109256081092570800
:1032D00008951092780C1092770C10927A0C10923C
:1032E000790C0895009759F0FC0120813196211145
:1032F000FCCF9F01281B390BC9010197089590E06D
:1033000080E00895CF93DF93EC010E94F0051A82CC
:10331000DF91CF910895CF93DF93EC0102960E9445
:10332000EE10CE014896DF91CF910C94EE10FC0187
:103330001382128215821482089502960C94EE1064
:10334000FC0196859E7F96870895FC0192819E7F61
:10335000928308956D7F39F4DC01ED91FC91068034
:10336000F781E02D099408958F929F92AF92BF92BA
:10337000CF92DF92EF92FF92FC0122813381A081F4
:10338000B1816FEF7FEFCB012A173B07B9F14D9168
:103390006B017C0184E0F694E794D794C7948A95F6
:1033A000D1F764276F7084E0689FF0011124E85121
:1033B000FE4F80809180A280B380C824D924EA2463
:1033C000FB24C701B60154E09695879577956795DC
:1033D0005A95D1F742954F70E42FEC25EF7044E0F9
:1033E000E49FF0011124E851FE4FC080D180E280BB
:1033F000F3806C257D258E259F25C6CF6095709521
:1034000080959095FF90EF90DF90CF90BF90AF9018
:103410009F908F9008950E94FE148FEF08952BECDB
:1034200033E0F9012E5F3F4F4081518184179507AA
:1034300031F043E0233E3407A1F7E3EEF3E081E00F
:10344000E35EF34009F480E008958FEF08950F9351
:103450001F93CF93DF93DC0112968D919C9113976C
:1034600020E1629FF0011124E80FF91F54852C918F
:1034700026133CC05C93238511968C91119786137B
:103480003FC011962C931197411121C084858F3F25
:10349000F1F020E1829FC001112412960D90BC91A1
:1034A000A02DA80FB91F16964D915D916D917C913D
:1034B00019970681178120853185400F511F621FA2
:1034C000731F16964D935D936D937C9319978FEFB1
:1034D000838784878FEF9FEFDC0186839783A087A4
:1034E000B187DF91CF911F910F910895238570E1EE
:1034F000279F90011124820F931FEC015C87BBCFA3
:10350000C485D0E1CD9FC00111241296CD91DC91EC
:103510001397C80FD91F2B87B7CF0F931F93CF9344
:10352000DF9320E1629FB0011124FC01C081D181B1
:10353000C60FD71F2A852F3FD1F04E815F81688546
:1035400079854F3F5F4F6F4F7F4F79F08C01F89433
:1035500040E06A8502960E94271ABE01665F7F4F8F
:10356000C8010C960E940519789481E001C080E0A2
:10357000DF91CF911F910F9108950F931F93CF93D8
:10358000DF93DC0120E1629FC00111241296ED91CE
:10359000FC911397E80FF91F8C918F3F51F46C93B6
:1035A00011966C9383878487DF91CF911F910F9140
:1035B000089560E1869FC00111241296CD91DC919F
:1035C0001397C80FD91F46815781608571850E8179
:1035D0001F8128853985041715072607370760F1ED
:1035E0009A858C91981302C082858C938B858387F2
:1035F00082858B878A8584874E815F8168857985FE
:103600000681178120853185401B510B620B730B9E
:103610004E835F836887798783858F3F29F2428550
:10362000C0E18C9FC001112412962D913C91820F14
:10363000931FFC014487B8CF401B510B620B730BE7
:10364000468357836087718712962D913C9113971B
:10365000820F931FEC018C858F3F09F0AACF9285D2
:1036600011964C911197D0E14D9FA0011124240F88
:10367000351FE9019C8711969C9111979387848748
:10368000828511968C9390CFCF92DF92EF92FF922A
:103690000F931F93CF93DF9320E1629FB00111241A
:1036A000FC01C081D181C60FD71F2A852F3F09F4A5
:1036B00042C04A815B816C817D814F3F5F4F6F4F7C
:1036C0007F4FC9F18C01F8946C0122E0C20ED11C2D
:1036D0007E018AE0E80EF11C8E819F81A885B98564
:1036E0008F3F9F4FAF4FBF4F51F040E06A85C601FB
:1036F0000E94271AB701C8010C960E9405198A81F9
:103700009B81AC81BD818E839F83A887B9876A85A1
:10371000C6010E94BD1AB701C80108960E9405198A
:10372000789481E0DF91CF911F910F91FF90EF90FE
:10373000DF90CF90089580E0F5CF9F92AF92BF9237
:10374000CF92DF92EF92FF920F931F93CF93DF936D
:10375000EC01F8014217530798F01B821A82EC190A
:10376000FD09F983E883CE01DF91CF911F910F917D
:10377000FF90EF90DF90CF90BF90AF909F90089513
:10378000DA01AC90A11007C081E090E09B838A83AE
:1037900083E08883E8CFCA010196A901481B590B31
:1037A000AA2DA150BB0B4A175B0708F58A01112708
:1037B00098012F5F3F4F2E0F3F1FE216F30638F19F
:1037C0009F01442341F0DC015D91CD01D9015D935E
:1037D0009D014150F6CFCF01800F911FDC01AC92CB
:1037E0001B821A820F5F1F4FE00FF11FB8CF992481
:1037F0009A949A0C092D10E0AC01400F511F241728
:10380000350710F20E0F1F1FE016F10628F481E0B5
:1038100090E09B838A83BDCF992031F0DC01BD907D
:10382000CD01B1929A94F8CFBFEFAB1651F0421789
:10383000530738F40E151F0551F3F80110820F5F7E
:103840001F4FCE010E949D1B8ECFFC012281338130
:1038500044815581C9012417350720F48081918165
:10386000820F931F841B950B08950F931F93CF9383
:10387000DF93EC018EE397E00E94251C8E010E5F22
:103880001F4F20913E0730913F0721503109488159
:103890005981281B390B4217530708F49A01E80194
:1038A000C20FD31FC017D10741F0B8018EE397E0D4
:1038B0000E94AA180F5F1F4FF5CFDF91CF911F9184
:1038C0000F9108950F960C94251C20910207211149
:1038D0000BC01092FF061092FE0610920107109284
:1038E000000721E020930207E0910007F091010713
:1038F000309731F0BC018091FE069091FF0609944B
:1039000008954F925F926F927F928F929F92AF92A3
:10391000BF92CF92DF92EF92FF920F931F93CF93BC
:10392000DF9300D0CDB7DEB70E94B9042B013C0174
:103930008091CC099091CD09A091CE09B091CF0989
:10394000892B8A2B8B2B41F44092CC095092CD09C4
:103950006092CE097092CF098091CC099091CD09E7
:10396000A091CE09B091CF0953014201881A990A5A
:10397000AA0ABB0A09F46EC08091D709882309F40A
:1039800061C08091D3098F3F09F45CC089E7C82EDC
:1039900086E0D82E0091D30920E1029FC0011124B6
:1039A0000091D5091091D609080F191FF8018681D9
:1039B0009781A085B18588169906AA06BB0608F4EA
:1039C0007AC0881A990AAA0ABB0A41E0628583ED87
:1039D00099E00E94271A7801FAE0EF0EF11CB70176
:1039E0008DED99E00E940519D8011D968C911D97C7
:1039F0008823A9F012968D919D910D90BC91A02DD8
:103A0000F80186839783A087B187628583ED99E06B
:103A10000E94BD1AB70189ED99E00E940519D801ED
:103A2000ED90FC901197E114F10439F01E968D9100
:103A30009C91009711F5F70109958091D3098F3F6B
:103A400009F0A8CF4092CC095092CD096092CE09DE
:103A50007092CF090F900F90DF91CF911F910F912E
:103A6000FF90EF90DF90CF90BF90AF909F908F909E
:103A70007F906F905F904F9008958130910549F449
:103A8000D701ED91FC910480F581E02DC7010995E6
:103A9000D4CF029791F6F70182819381892B31F47B
:103AA000DA82C982CE0101960E94651CD701129666
:103AB000ED91FC91EBCF88199909AA09BB0986837E
:103AC0009783A087B187BECF6F927F928F929F928C
:103AD000AF92BF92CF92DF92EF92FF920F931F931C
:103AE000CF93DF93CDB7DEB72A970FB6F894DEBF3A
:103AF0000FBECDBF641775070CF086C03A015B019D
:103B00004C01DC01ED91FC910284F385E02D0995D7
:103B100097FD7AC08A878111C5C088ED98E00E9420
:103B2000251C009709F469C0A091E008B091E10854
:103B30002091DA083091DB084091DC085091DD08D3
:103B400024173507A1F0E091DE08F091DF08E40FBB
:103B5000F51F60816D934F5F5F4F6091D808709142
:103B6000D9084617570761F750E040E0E9CF1092B7
:103B7000DB081092DA081092DD081092DC08409100
:103B8000E0085091E108E090E208F090E3089A0123
:103B9000280F391F4217530709F04BC018861F82A0
:103BA0001E821D828F819885009709F44CC0209158
:103BB000F8083091F908232B01F1019741F08DE7C6
:103BC00096E09A838983CE0101960E94651C8091BC
:103BD000F8089091F908892B41F489E796E09A83D7
:103BE0008983CE0101960E94651CE091F808F0914E
:103BF000F9086D8186EF98E00995B5016F5F7F4FF9
:103C0000A301C4010E94641D2A960FB6F894DEBF7A
:103C10000FBECDBFDF91CF911F910F91FF90EF901D
:103C2000DF90CF90BF90AF909F908F907F906F90DC
:103C300008956A018A01BE01675F7F4FCE01059634
:103C40000E949D1BAFCF2D813E818091E008909115
:103C5000E1089A838983820F931F9C838B838091D1
:103C6000F4089091F508892B41F2BE016F5F7F4FF8
:103C700084EE98E00E948518BE016F5F7F4F88EE4A
:103C800098E00E948518BE016F5F7F4F8CEE98E030
:103C90000E948518BE016F5F7F4F80EF98E00E9401
:103CA0008518ABCFBE01665F7F4F88ED98E00E941C
:103CB000AA18A3CFCF93DF9300D0CDB7DEB7E091A2
:103CC0002E08F0912F0820912C0830912D08D90151
:103CD000EA17FB07B1F04D915C9111978417950796
:103CE00059F11396F5CF9183808381E0828380918F
:103CF0002E0890912F08039690932F0880932E08FA
:103D00001BC0BF01621B730B2BEA3AEA629FA00142
:103D1000639F500D729F500D112420912A083091FD
:103D20002B0842175307F9F681E896E09A838983B6
:103D3000CE0101960E94651C0F900F90DF91CF91EC
:103D40000895EAE2F8E0828193819583848381E893
:103D50009CE00E945A1E83EB9EE00E945A1E85EB57
:103D60009EE00E945A1E89E297E00E945A1E84E259
:103D700097E00C945A1E4F925F927F928F929F927F
:103D8000AF92BF92CF92DF92EF92FF920F931F9369
:103D9000CF93DF9300D0CDB7DEB7FC014901890195
:103DA000041B150BE480F580A281B3816701CA1A58
:103DB000DB0A98012C0D3D1D8081918182179307AC
:103DC000D0F485E896E09A838983CE0101960E941B
:103DD000651C0F900F90DF91CF911F910F91FF9075
:103DE000EF90DF90CF90BF90AF909F908F907F909B
:103DF0005F904F9008956A1B7B0BC801860F971F39
:103E00009601261B370BC816D90690F42D01480ED3
:103E1000591EB12CA12C6701C21AD30AEC14FD045F
:103E200069F0D6017D906D01D2017D922D01F6CF12
:103E30005901A01AB10A27019801EDCFA281B381DF
:103E40008A0D9B1D8A0F9B1FA60EB71EAA0EBB1EB6
:103E50006D01C60ED71ECA14DB0439F0D501FE90E1
:103E60005D01DC01FE92CD01F6CF84819581240FA6
:103E7000351F69018C149D0439F0D601FD906D0148
:103E8000DC01FD92CD01F6CF82819381680F791F0D
:103E90002417350739F0DA018D91AD01DB018D93DF
:103EA000BD01F6CF84819581080F191F1583048306
:103EB00090CF0F931F93CF93DF9300D0CDB7DEB792
:103EC000FC0180859185A285B3850097A105B10588
:103ED00079F489E896E09A838983CE0101960E945D
:103EE000651C0F900F90DF91CF911F910F91089556
:103EF00044815581668177814F5F5F4F6F4F7F4F60
:103F000044835583668377830485158526853785A5
:103F1000401751076207730721F414821582168235
:103F200017820197A109B10980879187A287B3877A
:103F3000D8CF7F928F929F92AF92BF92CF92DF9213
:103F4000EF92FF920F931F93CF93DF93CDB7DEB71E
:103F500060970FB6F894DEBF0FBECDBF8C01809185
:103F6000D10E9091D20E23E0880F991F2A95E1F788
:103F7000E091DD0EF091DE0EE80FF91F88E0DE0122
:103F8000119601900D928A95E1F78DEC9EE00E94CA
:103F9000591F48018CE2880E911CD8019A96CD9049
:103FA000DC90C80CD91C5801BAE0AB0EB11CF8016A
:103FB000E084F184EA0CFB1C70808F819885892B4A
:103FC00041F489E796E09A878987CE0109960E9495
:103FD000651CEF81F8859A868986DC86CB86BE864D
:103FE000AD86F88AEF86D80114964D915C918E01CA
:103FF000075F1F4F9E01235F3F4F672DCE01059640
:10400000099560960FB6F894DEBF0FBECDBFDF9165
:10401000CF911F910F91FF90EF90DF90CF90BF90C5
:10402000AF909F908F907F900895CF92DF92EF9204
:10403000FF92CF93DF9300D000D000D0CDB7DEB792
:104040007C018091BB0E9091BC0E880F991F880F48
:10405000991FE091C70EF091C80EE80FF91F8081FB
:104060009181A281B38189839A83AB83BC8387EBDF
:104070009EE00E94591FF701C080D180E280F3804A
:104080008B819C81892B41F489E796E09E838D8307
:10409000CE0105960E94651CEB81FC81B701A6014B
:1040A000CE010196099526960FB6F894DEBF0FBE95
:1040B000CDBFDF91CF91FF90EF90DF90CF9008952B
:1040C0000F931F93CF93DF93CDB7DEB72C970FB627
:1040D000F894DEBF0FBECDBF40918B0C50918C0C7D
:1040E00060918D0C70918E0C452B462B472BC1F1A6
:1040F0008C018091870C9091880C880F991F880FF4
:10410000991FE091930CF091940CE80FF91F8081B6
:104110009181A281B38189879A87AB87BC8783E825
:104120009CE00E94591FEB85FC853097C9F09801EF
:104130002E5F3F4FD8018D919C91820F931F3E833C
:104140002D8398878F831A8219821C821B82AE016D
:104150004B5F5F4FBE016F5F7F4FCE0109960995A0
:104160002C960FB6F894DEBF0FBECDBFDF91CF9176
:104170001F910F9108950F931F93CF93DF93CDB7A6
:10418000DEB7C154D1090FB6F894DEBF0FBECDBF64
:104190000091A50C1091A60C2091A70C3091A80CB1
:1041A0004091A10C5091A20C6091A30C7091A40CB1
:1041B000041715072607370709F46BC0DC012D919A
:1041C0003C912034310510F020E430E0322F22966B
:1041D0002FAF2297AC014E5F5F4FCE010196FC01DD
:1041E000332341F0DA012D91AD01DC012D93CD0196
:1041F0003150F6CF4091990C50919A0C81E4849FF4
:104200009001859F300D1124A091A90CB091AA0CAA
:10421000A20FB31F01900D928A95E1F78091990C3E
:1042200090919A0CA0919B0CB0919C0C0196A11DB1
:10423000B11D8093990C90939A0CA0939B0CB09312
:104240009C0C4091A50C5091A60C6091A70C70910C
:10425000A80C84179507A607B70741F41092990C8C
:1042600010929A0C10929B0C10929C0C8091A10CB5
:104270009091A20CA091A30CB091A40C0196A11D49
:10428000B11D8093A10C9093A20CA093A30CB093AA
:10429000A40CCF5BDF4F0FB6F894DEBF0FBECDBFCF
:1042A000DF91CF911F910F910895EF92FF920F939D
:1042B0001F93CF93DF9300D000D0CDB7DEB78C0132
:1042C0007B01DC0112968D919C91892B41F489E749
:1042D00096E09A838983CE0101960E94651CD801DD
:1042E0001296ED91FC91D7018D919C9111979A8333
:1042F000898312968D919C919C838B83BE016F5F05
:104300007F4FC80109950F900F900F900F90DF918C
:10431000CF911F910F91FF90EF900895CF93DF936E
:1043200000D000D0CDB7DEB78091A10C9091A20C47
:10433000A091A30CB091A40C892B8A2B8B2B59F143
:104340008091100790911107892B29F180919D0C84
:1043500090919E0C41E4489F9001499F300D11249B
:104360008091A90C9091AA0C820F931FFC01E05C34
:10437000FF4F20819A838983820F911D9C838B83B9
:10438000BE016F5F7F4F8EE097E00E94552189E963
:104390009CE00E94591F0F900F900F900F90DF919B
:1043A000CF910895CF93DF9300D000D0CDB7DEB783
:1043B00020912D0730912E07232B81F0FC01819154
:1043C0009191FA83E983E80FF91FFC83EB83BE0127
:1043D0006F5F7F4F8BE297E00E9455210F900F9007
:1043E0000F900F90DF91CF910895CF93DF9300D07E
:1043F000CDB7DEB7FC0183819481892B79F08DE8FC
:1044000096E09A838983CE0101960E94651C80E024
:1044100090E00F900F90DF91CF910895CF01F9CFE9
:104420000F931F93CF93DF9300D0CDB7DEB78C01EE
:10443000FC0122813381848195812817390741F459
:1044400081E996E09A838983CE0101960E94651CDA
:10445000F80184819581019695838483208131813F
:104460008217930711F4158214820F900F90DF9139
:10447000CF911F910F910895CF93DC0153962D9109
:104480003C91549751964D915C9152974217530726
:1044900069F05596ED91FC91E20FF31FC0810F96E4
:1044A0000E9410228C2F90E0CF9108958FEF9FEF04
:1044B000FBCFDC0153968D919C91549751962D9191
:1044C0003C9152972817390741F05596ED91FC9190
:1044D000E80FF91F808190E008958FEF9FEF089516
:1044E0000F931F93CF93DF9300D0CDB7DEB78C012E
:1044F000DC0115968D919C91892B41F485E996E01C
:104500009A838983CE0101960E94651CD801159675
:10451000ED91FC919281935081E0923008F080E01F
:104520000F900F90DF91CF911F910F9108950F93EE
:104530001F93CF93DF9300D0CDB7DEB78C01DC01A2
:1045400015968D919C91892B41F485E996E09A838B
:104550008983CE0101960E94651CD8011596ED91C4
:10456000FC9181E09281943009F080E00F900F90EF
:10457000DF91CF911F910F910895CF92DF92EF922B
:10458000FF920F931F93CF93DF9300D0CDB7DEB789
:104590008C01FC0184859585A685B78580349105BD
:1045A000A105B10540F489E996E09A838983CE019B
:1045B00001960E94651CF80180899189A289B389BE
:1045C0004481558166817781481759076A077B07BF
:1045D00008F05CC04085518562857385481759078E
:1045E0006A077B07F0F484859585849F9001859FF9
:1045F000300D949F300D11240190F081E02DE20FD9
:10460000F31F8E0F9F1F91838083F8018085918512
:10461000A285B3850196A11DB11D80879187A287D0
:10462000B387D80112968D919C91139714964D9152
:104630005D916D917C9117974F5F5F4F6F4F7F4FEB
:10464000F8014483558366837783C088D188E288E4
:10465000F3884C155D056E057F05A8F4DC012D91EE
:104660003C913383228321E030E0DC012D933C93A5
:104670000F900F90DF91CF911F910F91FF90EF90CE
:10468000DF90CF90089513821282EDCF8DE996E0EE
:104690009A838983CE0101960E94651C90E080E098
:1046A000E7CFCF93DF9300D0CDB7DEB7DC01129612
:1046B0004D915C9113972D913C914217530769F4EA
:1046C0008EE996E09A838983CE0101960E94651C4B
:1046D0000F900F90DF91CF910895FC0124853585CF
:1046E00043E0220F331F4A95E1F7A089B189A20F59
:1046F000B31F28E0FB0101900D922A95E1F7DC0140
:104700001C962D913C911D971E96ED91FC91448134
:104710005581415051092417350761F02F5F3F4FF4
:10472000FC0135872487208131812F5F3F4F318302
:104730002083CECF30E020E0F3CFEF92FF920F93B3
:104740001F93CF93DF9300D0CDB7DEB78C017B01F1
:10475000FC01808191819B01281B390B37FD13C01F
:1047600080899189A289B3890197A109B1096485DA
:104770007585689FA001699F500D789F500D112489
:104780004217530744F481EA96E09A838983CE0165
:1047900001960E94651CF80184819581A681B781EC
:1047A000892B8A2B8B2BE1F082819381F7019183F6
:1047B0008083F801F382E28284819581A681B781AA
:1047C0000197A109B10984839583A683B7830F90CC
:1047D0000F90DF91CF911F910F91FF90EF9008956F
:1047E0008DE996E09A838983CE0101960E94651C2B
:1047F000EECF7F928F929F92AF92BF92CF92DF9235
:10480000EF92FF920F931F93CF93DF934C017FB6EC
:10481000F894FC01ED5CFB4FC080D1803697C081DD
:10482000D18102811381E480F5805C018DE2A81AB8
:104830008CEFB80ACC16DD06E1F0FE0183E0EE0F46
:10484000FF1F8A95E1F7EE0DFF1D648175816115EB
:10485000710519F0C5010E949D23F801848195819D
:104860000197C817D90711F02196E4CFD0E0C0E036
:10487000E1CFC401895D9B4F0E94D1187FBEDF91BB
:10488000CF911F910F91FF90EF90DF90CF90BF904D
:10489000AF909F908F907F900895EF92FF920F932B
:1048A0001F93CF93DF9300D0CDB7DEB78C016D3F60
:1048B000B1F4DC0115968D919C91DC01ED91FC9198
:1048C0000084F185E02D0995F80185819681DC0150
:1048D000ED91FC910680F781E02D0995682FD801B4
:1048E0001596ED91FC9116978281681781F0862FBD
:1048F0008D7F8D3F61F019968C916817B0F085EA35
:1049000096E09A838983CE0101960E94651CD801A6
:104910001596ED91FC9182810F900F90DF91CF91D0
:104920001F910F91FF90EF90089570E0660F771F31
:10493000F80187819085680F791FDB01ED90FC906D
:10494000F80185819681DC01ED91FC910084F1856F
:10495000E02D0995F801F682E582D701ED91FC91F1
:104960000680F781E02DC7010995D8011596ED91D4
:10497000FC91169792818917A9F0982F9D7F9D3FF2
:1049800089F019969C911997891708F0B8CF90E093
:10499000880F991F17962D913C91820F931FDC0170
:1049A000ED90FC90EE16FF0659F6B1CF0F931F93D2
:1049B000CF93DF9300D0CDB7DEB78C01DC016D93D0
:1049C0007C93FB018081882341F089EA96E09A83F9
:1049D0008983CE0101960E94651CD801ED91FC915E
:1049E00081E080830F900F90DF91CF911F910F9105
:1049F0000895FF920F931F93CF93DF9300D0CDB70D
:104A0000DEB78C01F62EBC01665F7F4FCE010196AA
:104A10000E94D624D80115968D919C91009749F05B
:104A2000FF2039F0DC01ED91FC910084F185E02D4F
:104A30000995F80116821582E981FA8110820F909A
:104A40000F90DF91CF911F910F91FF900895EF92FA
:104A5000FF920F931F93CF93DF9300D000D0CDB779
:104A6000DEB78C017B01BC01665F7F4FCE010396F0
:104A70000E94D624D80115968D919C910097F9F04B
:104A8000DC01ED91FC910480F581E02DB7010995E1
:104A9000D801ED91FC91008CF18DE02D682FC801BB
:104AA0000995EB81FC8110820F900F900F900F9071
:104AB000DF91CF911F910F91FF90EF9008958DEAB4
:104AC00096E09A838983CE0101960E94651CE9CF06
:104AD000EF92FF920F931F93CF93DF9300D0CDB748
:104AE000DEB77C010E94FE14F701EE52FC4F1082EB
:104AF000C7010E94F92381E895E09A838983BE016A
:104B00006F5F7F4FC701875B9E4F0E942725D701AC
:104B100012960D911C91F701848195818017910760
:104B200099F0D80112968C911297882351F08D91AB
:104B30009C91DC01ED91FC910480F581E02D60E019
:104B400009950D5F1F4FE7CF0F900F90DF91CF9129
:104B50001F910F91FF90EF900895CF93DF9300D0B6
:104B6000CDB7DEB783E799E00E94702281110DC0B6
:104B70008EE693E09A838983BE016F5F7F4F83E760
:104B800099E00E9427251092FC0B0F900F90DF9167
:104B9000CF910895BF92CF92DF92EF92FF920F9341
:104BA0001F93CF93DF9300D000D0CDB7DEB78C0139
:104BB000F62EBC01665F7F4FCE0103960E94D6247D
:104BC000D80115968D919C911697892B09F04CC0B0
:104BD0001796ED91FC9118978081918116969C9380
:104BE0008E931597892B41F485E996E09A83898302
:104BF000CE0101960E94651CFF20B1F135EAC32E5B
:104C000036E0D32EF801E580F680D701ED91FC91D6
:104C10000680F781E02DC7010995B82EBFEF8B17ED
:104C2000E1F0F8018185B81630F0DA82C982CE0150
:104C300001960E94651C8B2D90E0880F991FD8016A
:104C400017962D913C911897820F931FFC0180813C
:104C5000918116969C938E931597D80115968D91F8
:104C60009C918E159F0571F6EB81FC8110820F904F
:104C70000F900F900F90DF91CF911F910F91FF90A8
:104C8000EF90DF90CF90BF9008954F925F926F9218
:104C90007F928F929F92AF92BF92CF92DF92EF92CC
:104CA000FF920F931F93CF93DF935C018B016901F8
:104CB0007A01009709F4C6C0672B41F4CD28CE28AD
:104CC000CF2809F0BFC090E080E0ABC04C0180E687
:104CD000880E911CF40180819181A281B38180347E
:104CE0009105A105B10508F0B0C03496408051800F
:104CF00062807380BA01A901440D551D661D771DA0
:104D00004083518362837383441555056605770597
:104D100068F4349640815181628173814F5F5F4FA7
:104D20006F4F7F4F4083518362837383E501A09669
:104D30000097A105B10509F441C020E4422E512C91
:104D4000612C712C481A590A6A0A7B0AC414D504CA
:104D5000E604F70410F4260137018C0F9D1FA20111
:104D6000B8010E94C673F40180819181A281B38150
:104D7000840D951DA61DB71D80839183A283B383E7
:104D8000040D151DC418D508E608F70880349105F0
:104D9000A105B10599F420E430E040E050E0BE0107
:104DA000CE010E942609BE01C5010E94040600979B
:104DB000C1F5F401108211821282138280E4C816B8
:104DC000D104E104F10488F4C114D104E104F10434
:104DD00009F479CFA601B801CE010E94C673F4018F
:104DE000C082D182E282F3826ECF80E4F801DE01DC
:104DF00001900D928A95E1F7005C1F4FF0E4CF1A05
:104E0000D108E108F10820E430E040E050E0BE01C4
:104E1000CE010E942609BE01C5010E94040600972A
:104E200069F2DF91CF911F910F91FF90EF90DF908A
:104E3000CF90BF90AF909F908F907F906F905F903A
:104E40004F90089583E59FEFECCF8CE79FEFE9CF7C
:104E50008F929F92AF92BF92CF92DF92EF92FF928A
:104E60000F931F93CF93DF9361157105A9F483E529
:104E70009FEF232B242B252B11F490E080E0DF9172
:104E8000CF911F910F91FF90EF90DF90CF90BF9047
:104E9000AF909F908F9008952115310541055105E0
:104EA00061F349015A018B01EC016C012FEEC21A2A
:104EB0002EEFD20AF60180819E01205F3E4F7901DC
:104EC000811113C0F9018081863061F420E430E063
:104ED00040E050E0BE0162597F4FCE010E9445265E
:104EE000009769F681E0F6018083F70180818630C2
:104EF00021F6A5019401B801CE01DF91CF911F9158
:104F00000F91FF90EF90DF90CF90BF90AF909F9068
:104F10008F900C9445262F923F924F925F926F9202
:104F20007F928F929F92AF92BF92CF92DF92EF9239
:104F3000FF920F931F93CF93DF93CDB7DEB7C85483
:104F4000D1090FB6F894DEBF0FBECDBF29969FAF33
:104F50008EAF299726966FAF269727967FAF279714
:104F600080E4FB012996AEADBFAD299701900D926B
:104F70008A95E1F72996AEADBFAD29972D903D906A
:104F80004D905C9013972D8A3E8A4F8A588E50968A
:104F90004D915D916D917C915397D0964D905D9020
:104FA0006D907C90D3979096CD90DD90ED90FC9095
:104FB000939714968D909D90AD90BC9017978DA26D
:104FC0009EA2AFA2B8A654968D909D90AD90BC9035
:104FD000579789829A82AB82BC82D4968D909D909D
:104FE000AD90BC90D797898A9A8AAB8ABC8A9496EE
:104FF0000D911D912D913C91979718968D909D90B4
:10500000AD90BC901B9789A29AA2ABA2BCA2589665
:105010008D909D90AD90BC905B978D829E82AF826B
:10502000B886D8968D909D90AD90BC90DB978D867C
:105030009E86AF86B88A98968D909D90AD90BC90D4
:105040009B978D8E9E8EAF8EB8A21C968D909D9054
:10505000AD90BC901F9789869A86AB86BC865C967D
:105060008D919D910D90BC91A02D2996EEADFFAD37
:10507000299784AC95ACA6ACB7AC89A69AA6ABA68A
:10508000BCA684A495A4A6A4B7A48DA69EA6AFA6EC
:10509000B8AAF0E0E0E08D889E88AF88B88C840ED6
:1050A000951EA61EB71E8D8A9E8AAF8AB88E48248A
:1050B00059246A247B2452012301350146015701FA
:1050C000840C951CA61CB71C89AA9AAAABAABCAAD8
:1050D000482559256A257B254A015B01072E7CE07E
:1050E000880C991CAA1CBB1C7A95D1F7702D032E35
:1050F00034E176956795579547953A95D1F7302DD8
:10510000482959296A297B29AD88BE88CF88D88C3F
:10511000A40EB51EC61ED71EAD8ABE8ACF8AD88EF3
:105120004A245B246C247D24D42CE52CF62CC72C3B
:10513000C9AEDAAEEBAEFCAE49A85AA86BA87CA803
:10514000C40CD51CE61CF71CC9AADAAAEBAAFCAA57
:105150004C255D256E257F256A017B01689416F834
:10516000CC0CDD1CEE1CFF1C1694D1F73A014B0150
:1051700049E196948794779467944A95D1F76C287F
:105180007D288E289F28698E7A8E8B8E9C8E8980B2
:105190009A80AB80BC80CDA0DEA0EFA0F8A48C0CE0
:1051A0009D1CAE1CBF1CC988DA88EB88FC88C8240B
:1051B000D924EA24FB24A60167017A010C0D1D1DE8
:1051C0002E1D3F1D49815A816B817C8140275127CB
:1051D000622773272A013B01032E3CE0440C551C37
:1051E000661C771C3A95D1F7302D032E34E1769565
:1051F0006795579547953A95D1F7302D442955290C
:105200006629772914012501240E351E461E571ED6
:10521000298A3A8A4B8A5C8AC224D324E424F5245E
:105220005C2C6D2C7E2C4F2C21964CAE5DAE6EAE60
:105230007FAE2197400E511E621E731E4DAA5EAABC
:105240006FAA78AE44255525662577258A019B01EE
:10525000689416F8000F111F221F331F1694D1F700
:105260005A016B0149E1D694C794B794A7944A9523
:10527000D1F7A02AB12AC22AD32AA982BA82CB8224
:10528000DC82CD80DE80EF80F88409A11AA12BA1F9
:105290003CA1C00ED11EE21EF31E0D851E852F857A
:1052A00038890C251D252E253F25A80189019A0145
:1052B0008D8C9E8CAF8CB8A0800E911EA21EB31E4A
:1052C0004D815E816F817885482559256A257B252A
:1052D0002A013B01032E3CE0440C551C661C771C44
:1052E0003A95D1F7302D032E34E176956795579591
:1052F00047953A95D1F7302D4429552966297729C4
:1053000016012701240E351E461E571E2D863E8689
:105310004F86588A0225132524253525502E612EC7
:10532000722E432E25964CAE5DAE6EAE7FAE2597A7
:10533000840C951CA61CB71C482559256A257B257D
:105340008A019B01689416F8000F111F221F331F5A
:105350001694D1F71A012B0149E1569447943794DA
:1053600027944A95D1F7202A312A422A532A2D829E
:105370003E824F82588649845A846B847C84480ECE
:10538000591E6A1E7B1E09A51AA52BA53CA504253E
:10539000152526253725680189019601CDA4DEA4AF
:1053A000EFA4F8A8C00ED11EE21EF31E8C259D2589
:1053B000AE25BF25AC01BD01032E3CE0440F551FB7
:1053C000661F771F3A95D1F7302D072E74E1B695F9
:1053D000A795979587957A95D1F7702D842B952B66
:1053E000A62BB72BB301A201480F591F6A1F7B1FC1
:1053F00049875A876B877C870427152726273727F5
:10540000502F032F322F212F152F16012701200E89
:10541000311E421E531E29A23AA24BA25CA2822533
:105420009325A425B5252C013D0147E0440C551CCE
:10543000661C771C4A95D1F759E1B695A7959795C3
:1054400087955A95D1F784299529A629B7294D889A
:105450005E886F88788CC980DA80EB80FC804C0C89
:105460005D1C6E1C7F1C042515252625372578011B
:1054700089019701800E911EA21EB31E49815A8197
:105480006B817C81482559256A257B256A017B0132
:105490000B2EBCE0CC0CDD1CEE1CFF1CBA95D1F72A
:1054A000B02D032E34E176956795579547953A953B
:1054B000D1F7302D4C295D296E297F2973016201B6
:1054C000C40ED51EE61EF71ECD8ADE8AEF8AF88E40
:1054D0000C251D252E253F25302E412E522E232E04
:1054E00029A63AA64BA65CA6280C391C4A1C5B1CB4
:1054F0002D8E3E8E4F8E58A29201810104271527D2
:1055000026273727B901A801689416F8440F551FBC
:10551000661F771F1694D1F74801590129E1B69407
:10552000A794979487942A95D1F7842A952AA62A36
:10553000B72A89829A82AB82BC8289889A88AB8892
:10554000BC88CD80DE80EF80F8848C0C9D1CAE1C66
:10555000BF1C49AC5AAC6BAC7CAC482459246A24BF
:105560007B24720123013701C9A0DAA0EBA0FCA0C3
:10557000C40CD51CE61CF71C4D815E816F817885BB
:105580004C255D256E257F258A019B010F2EFCE0B1
:10559000000F111F221F331FFA95D1F7F02D032E94
:1055A00034E176956795579547953A95D1F7302D23
:1055B000402B512B622B732B95018401040F151F77
:1055C000261F371F0DA31EA32FA338A74026512641
:1055D00062267326142D472C762C652C512E4601FD
:1055E0005701840C951CA61CB71C8DA69EA6AFA6C1
:1055F000B8AA482559256A257B258A019B0168940C
:1056000016F8000F111F221F331F1694D1F75A01ED
:105610006B0149E1D694C794B794A7944A95D1F702
:10562000A02AB12AC22AD32AAD82BE82CF82D886CE
:105630008D849E84AF84B888880E991EAA1EBB1ED6
:1056400021960CAD1DAD2EAD3FAD21970825192536
:105650002A253B25680189019601C9A8DAA8EBA88B
:10566000FCA8C00ED11EE21EF31E8C259D25AE2582
:10567000BF25AC01BD01032E3CE0440F551F661F42
:10568000771F3A95D1F7302D072E74E1B695A7957F
:10569000979587957A95D1F7702D842B952BA62B0E
:1056A000B72BB501A401480F591F6A1F7B1F49A3DF
:1056B0005AA36BA37CA30427152726273727902EF0
:1056C000A12EB22E832E898A9A8AAB8ABC8AC80CF4
:1056D000D91CEA1CFB1C8C259D25AE25BF258C0101
:1056E0009D0147E0000F111F221F331F4A95D1F77C
:1056F00059E1B695A795979587955A95D1F7802B3F
:10570000912BA22BB32B89849A84AB84BC84098D02
:105710001A8D2B8D3C8D800E911EA21EB31E898684
:105720009A86AB86BC8625962CAD3DAD4EAD5FAD61
:10573000259782269326A426B526A40145015A0161
:105740000DA91EA92FA938AD080D191D2A1D3B1D35
:1057500009AB1AAB2BAB3CAB498D5A8D6B8D7C8D55
:1057600040275127622773278A019B010F2EFCE0F7
:10577000000F111F221F331FFA95D1F7F02D032EB2
:1057800034E176956795579547953A95D1F7302D41
:10579000402B512B622B732B09851A852B853C8559
:1057A000040F151F261F371F09871A872B873C8771
:1057B00080269126A226B326182D292D3A2D0B2DB1
:1057C0000D871E872F87388B09A91AA92BA93CA9F9
:1057D0008D849E84AF84B888080D191D2A1D3B1D39
:1057E00040275127622773274A015B01689416F806
:1057F000880C991CAA1CBB1C1694D1F7032E39E106
:1058000076956795579547953A95D1F7302D482964
:1058100059296A297B293196EA30F10509F03BCCF8
:105820008D889E88AF88B88C2996EEADFFAD2997FC
:1058300080829182A282B382408B518B628B738B68
:1058400040AA51AA62AA73AAC0A2D1A2E2A2F3A25C
:105850002DA03EA04FA058A42482358246825782B4
:1058600029803A804B805C80248A358A468A578A10
:1058700029883A884B885C8824AA35AA46AA57AA60
:1058800004A315A326A337A329A03AA04BA05CA08C
:1058900020863186428653862D803E804F805884F4
:1058A000208E318E428E538E2D843E844F845888B4
:1058B00020AE31AE42AE53AE2D8C3E8C4F8C58A0F4
:1058C00020A631A642A653A629843A844B845C8440
:1058D0002486358646865786848F958FA68FB78F08
:1058E00029A43AA44BA45CA424AE35AE46AE57AE70
:1058F0002DA43EA44FA458A824A635A646A657A674
:105900008F0126966FAD269727967FAD27979F012B
:10591000205C3F4FF80181919191A191B1918F014C
:10592000FB01C190D190E190F190BF01A8014450DA
:1059300051098C0D9D1DAE1DBF1DFA018083918301
:10594000A283B3832017310729F7C85BDF4F0FB657
:10595000F894DEBF0FBECDBFDF91CF911F910F91A5
:10596000FF90EF90DF90CF90BF90AF909F908F907F
:105970007F906F905F904F903F902F9008952F925F
:105980003F924F925F926F927F928F929F92AF92CF
:10599000BF92CF92DF92EF92FF920F931F93CF931C
:1059A000DF93CDB7DEB7C854D1090FB6F894DEBF88
:1059B0000FBECDBF7C0123967FAF6EAF23976A01E8
:1059C00028013901411451046104710409F4BCC077
:1059D000805C9F4F25969FAF8EAF2597DC018D9001
:1059E0009D90AD90BC9081149104A104B10409F480
:1059F00052C0481459046A047B0410F45901480148
:105A0000B7018E010F5F1F4FC8010E948B2725969B
:105A1000EEADFFAD259780819181A801481B590B00
:105A2000405C5F4F9501840123966EAD7FAD239757
:105A3000C6010E94D60F2596EEADFFAD2597808159
:105A40009181A281B38188199909AA09BB09808330
:105A50009183A283B383892B8A2B8B2B61F4F7016B
:105A600080A991A9A2A9B3A90196A11DB11D80ABDE
:105A700091ABA2ABB3AB481859086A087B08C80CB5
:105A8000D91C23968EAD9FAD2397880D991D239623
:105A90009FAF8EAF239729964CAE5DAE6EAE7FAEB4
:105AA0002997460123962EAC3FAC239729968CADBF
:105AB0009DADAEADBFAD299780349105A105B1056F
:105AC00008F05CC0A301920186E056954795379592
:105AD00027958A95D1F7C90166E0880F991F6A95C5
